{
	"Practical7/prac7_3commondatatypes.sol": {
		"Types": {
			"abi": [
				{
					"inputs": [],
					"name": "idata",
					"outputs": [
						{
							"internalType": "int32",
							"name": "",
							"type": "int32"
						}
					],
					"stateMutability": "view",
					"type": "function"
				},
				{
					"inputs": [],
					"name": "ui_data",
					"outputs": [
						{
							"internalType": "uint32",
							"name": "",
							"type": "uint32"
						}
					],
					"stateMutability": "view",
					"type": "function"
				},
				{
					"inputs": [],
					"name": "uidata",
					"outputs": [
						{
							"internalType": "uint32",
							"name": "",
							"type": "uint32"
						}
					],
					"stateMutability": "view",
					"type": "function"
				},
				{
					"inputs": [],
					"name": "valid",
					"outputs": [
						{
							"internalType": "bool",
							"name": "",
							"type": "bool"
						}
					],
					"stateMutability": "view",
					"type": "function"
				}
			],
			"devdoc": {
				"kind": "dev",
				"methods": {},
				"version": 1
			},
			"evm": {
				"assembly": "    /* \"Practical7/prac7_3commondatatypes.sol\":28:249  contract Types{... */\n  mstore(0x40, 0x80)\n    /* \"Practical7/prac7_3commondatatypes.sol\":69:74  false */\n  0x00\n    /* \"Practical7/prac7_3commondatatypes.sol\":49:74  bool public valid = false */\n  dup1\n  exp(0x0100, 0x00)\n  dup2\n  sload\n  dup2\n  0xff\n  mul\n  not\n  and\n  swap1\n  dup4\n  iszero\n  iszero\n  mul\n  or\n  swap1\n  sstore\n  pop\n    /* \"Practical7/prac7_3commondatatypes.sol\":106:113  5012019 */\n  0x4c7a33\n    /* \"Practical7/prac7_3commondatatypes.sol\":83:113  uint32 public uidata = 5012019 */\n  0x00\n  exp(0x0100, 0x01)\n  dup2\n  sload\n  dup2\n  0xffffffff\n  mul\n  not\n  and\n  swap1\n  dup4\n  0xffffffff\n  and\n  mul\n  or\n  swap1\n  sstore\n  pop\n    /* \"Practical7/prac7_3commondatatypes.sol\":161:169  -6012019 */\n  0xffffffffffffffffffffffffffffffffffffffffffffffffffffffffffa4438d\n    /* \"Practical7/prac7_3commondatatypes.sol\":140:169  int32 public idata = -6012019 */\n  0x00\n  exp(0x0100, 0x05)\n  dup2\n  sload\n  dup2\n  0xffffffff\n  mul\n  not\n  and\n  swap1\n  dup4\n  0x03\n  signextend\n  0xffffffff\n  and\n  mul\n  or\n  swap1\n  sstore\n  pop\n    /* \"Practical7/prac7_3commondatatypes.sol\":202:211  5_01_2019 */\n  0x4c7a33\n    /* \"Practical7/prac7_3commondatatypes.sol\":178:211  uint32 public ui_data = 5_01_2019 */\n  0x00\n  exp(0x0100, 0x09)\n  dup2\n  sload\n  dup2\n  0xffffffff\n  mul\n  not\n  and\n  swap1\n  dup4\n  0xffffffff\n  and\n  mul\n  or\n  swap1\n  sstore\n  pop\n    /* \"Practical7/prac7_3commondatatypes.sol\":28:249  contract Types{... */\n  callvalue\n  dup1\n  iszero\n  tag_1\n  jumpi\n  0x00\n  dup1\n  revert\ntag_1:\n  pop\n  dataSize(sub_0)\n  dup1\n  dataOffset(sub_0)\n  0x00\n  codecopy\n  0x00\n  return\nstop\n\nsub_0: assembly {\n        /* \"Practical7/prac7_3commondatatypes.sol\":28:249  contract Types{... */\n      mstore(0x40, 0x80)\n      callvalue\n      dup1\n      iszero\n      tag_1\n      jumpi\n      0x00\n      dup1\n      revert\n    tag_1:\n      pop\n      jumpi(tag_2, lt(calldatasize, 0x04))\n      shr(0xe0, calldataload(0x00))\n      dup1\n      0x1bb8aa91\n      eq\n      tag_3\n      jumpi\n      dup1\n      0x861f708f\n      eq\n      tag_4\n      jumpi\n      dup1\n      0xa951209b\n      eq\n      tag_5\n      jumpi\n      dup1\n      0xc1991219\n      eq\n      tag_6\n      jumpi\n    tag_2:\n      0x00\n      dup1\n      revert\n        /* \"Practical7/prac7_3commondatatypes.sol\":140:169  int32 public idata = -6012019 */\n    tag_3:\n      tag_7\n      tag_8\n      jump\t// in\n    tag_7:\n      mload(0x40)\n      tag_9\n      swap2\n      swap1\n      tag_10\n      jump\t// in\n    tag_9:\n      mload(0x40)\n      dup1\n      swap2\n      sub\n      swap1\n      return\n        /* \"Practical7/prac7_3commondatatypes.sol\":178:211  uint32 public ui_data = 5_01_2019 */\n    tag_4:\n      tag_11\n      tag_12\n      jump\t// in\n    tag_11:\n      mload(0x40)\n      tag_13\n      swap2\n      swap1\n      tag_14\n      jump\t// in\n    tag_13:\n      mload(0x40)\n      dup1\n      swap2\n      sub\n      swap1\n      return\n        /* \"Practical7/prac7_3commondatatypes.sol\":83:113  uint32 public uidata = 5012019 */\n    tag_5:\n      tag_15\n      tag_16\n      jump\t// in\n    tag_15:\n      mload(0x40)\n      tag_17\n      swap2\n      swap1\n      tag_14\n      jump\t// in\n    tag_17:\n      mload(0x40)\n      dup1\n      swap2\n      sub\n      swap1\n      return\n        /* \"Practical7/prac7_3commondatatypes.sol\":49:74  bool public valid = false */\n    tag_6:\n      tag_18\n      tag_19\n      jump\t// in\n    tag_18:\n      mload(0x40)\n      tag_20\n      swap2\n      swap1\n      tag_21\n      jump\t// in\n    tag_20:\n      mload(0x40)\n      dup1\n      swap2\n      sub\n      swap1\n      return\n        /* \"Practical7/prac7_3commondatatypes.sol\":140:169  int32 public idata = -6012019 */\n    tag_8:\n      0x00\n      0x05\n      swap1\n      sload\n      swap1\n      0x0100\n      exp\n      swap1\n      div\n      0x03\n      signextend\n      dup2\n      jump\t// out\n        /* \"Practical7/prac7_3commondatatypes.sol\":178:211  uint32 public ui_data = 5_01_2019 */\n    tag_12:\n      0x00\n      0x09\n      swap1\n      sload\n      swap1\n      0x0100\n      exp\n      swap1\n      div\n      0xffffffff\n      and\n      dup2\n      jump\t// out\n        /* \"Practical7/prac7_3commondatatypes.sol\":83:113  uint32 public uidata = 5012019 */\n    tag_16:\n      0x00\n      0x01\n      swap1\n      sload\n      swap1\n      0x0100\n      exp\n      swap1\n      div\n      0xffffffff\n      and\n      dup2\n      jump\t// out\n        /* \"Practical7/prac7_3commondatatypes.sol\":49:74  bool public valid = false */\n    tag_19:\n      0x00\n      dup1\n      sload\n      swap1\n      0x0100\n      exp\n      swap1\n      div\n      0xff\n      and\n      dup2\n      jump\t// out\n        /* \"#utility.yul\":7:97   */\n    tag_22:\n        /* \"#utility.yul\":42:49   */\n      0x00\n        /* \"#utility.yul\":85:90   */\n      dup2\n        /* \"#utility.yul\":82:83   */\n      0x03\n        /* \"#utility.yul\":71:91   */\n      signextend\n        /* \"#utility.yul\":60:91   */\n      swap1\n      pop\n        /* \"#utility.yul\":7:97   */\n      swap2\n      swap1\n      pop\n      jump\t// out\n        /* \"#utility.yul\":103:215   */\n    tag_23:\n        /* \"#utility.yul\":186:208   */\n      tag_31\n        /* \"#utility.yul\":202:207   */\n      dup2\n        /* \"#utility.yul\":186:208   */\n      tag_22\n      jump\t// in\n    tag_31:\n        /* \"#utility.yul\":181:184   */\n      dup3\n        /* \"#utility.yul\":174:209   */\n      mstore\n        /* \"#utility.yul\":103:215   */\n      pop\n      pop\n      jump\t// out\n        /* \"#utility.yul\":221:435   */\n    tag_10:\n        /* \"#utility.yul\":310:314   */\n      0x00\n        /* \"#utility.yul\":348:350   */\n      0x20\n        /* \"#utility.yul\":337:346   */\n      dup3\n        /* \"#utility.yul\":333:351   */\n      add\n        /* \"#utility.yul\":325:351   */\n      swap1\n      pop\n        /* \"#utility.yul\":361:428   */\n      tag_33\n        /* \"#utility.yul\":425:426   */\n      0x00\n        /* \"#utility.yul\":414:423   */\n      dup4\n        /* \"#utility.yul\":410:427   */\n      add\n        /* \"#utility.yul\":401:407   */\n      dup5\n        /* \"#utility.yul\":361:428   */\n      tag_23\n      jump\t// in\n    tag_33:\n        /* \"#utility.yul\":221:435   */\n      swap3\n      swap2\n      pop\n      pop\n      jump\t// out\n        /* \"#utility.yul\":441:534   */\n    tag_24:\n        /* \"#utility.yul\":477:484   */\n      0x00\n        /* \"#utility.yul\":517:527   */\n      0xffffffff\n        /* \"#utility.yul\":510:515   */\n      dup3\n        /* \"#utility.yul\":506:528   */\n      and\n        /* \"#utility.yul\":495:528   */\n      swap1\n      pop\n        /* \"#utility.yul\":441:534   */\n      swap2\n      swap1\n      pop\n      jump\t// out\n        /* \"#utility.yul\":540:655   */\n    tag_25:\n        /* \"#utility.yul\":625:648   */\n      tag_36\n        /* \"#utility.yul\":642:647   */\n      dup2\n        /* \"#utility.yul\":625:648   */\n      tag_24\n      jump\t// in\n    tag_36:\n        /* \"#utility.yul\":620:623   */\n      dup3\n        /* \"#utility.yul\":613:649   */\n      mstore\n        /* \"#utility.yul\":540:655   */\n      pop\n      pop\n      jump\t// out\n        /* \"#utility.yul\":661:879   */\n    tag_14:\n        /* \"#utility.yul\":752:756   */\n      0x00\n        /* \"#utility.yul\":790:792   */\n      0x20\n        /* \"#utility.yul\":779:788   */\n      dup3\n        /* \"#utility.yul\":775:793   */\n      add\n        /* \"#utility.yul\":767:793   */\n      swap1\n      pop\n        /* \"#utility.yul\":803:872   */\n      tag_38\n        /* \"#utility.yul\":869:870   */\n      0x00\n        /* \"#utility.yul\":858:867   */\n      dup4\n        /* \"#utility.yul\":854:871   */\n      add\n        /* \"#utility.yul\":845:851   */\n      dup5\n        /* \"#utility.yul\":803:872   */\n      tag_25\n      jump\t// in\n    tag_38:\n        /* \"#utility.yul\":661:879   */\n      swap3\n      swap2\n      pop\n      pop\n      jump\t// out\n        /* \"#utility.yul\":885:975   */\n    tag_26:\n        /* \"#utility.yul\":919:926   */\n      0x00\n        /* \"#utility.yul\":962:967   */\n      dup2\n        /* \"#utility.yul\":955:968   */\n      iszero\n        /* \"#utility.yul\":948:969   */\n      iszero\n        /* \"#utility.yul\":937:969   */\n      swap1\n      pop\n        /* \"#utility.yul\":885:975   */\n      swap2\n      swap1\n      pop\n      jump\t// out\n        /* \"#utility.yul\":981:1090   */\n    tag_27:\n        /* \"#utility.yul\":1062:1083   */\n      tag_41\n        /* \"#utility.yul\":1077:1082   */\n      dup2\n        /* \"#utility.yul\":1062:1083   */\n      tag_26\n      jump\t// in\n    tag_41:\n        /* \"#utility.yul\":1057:1060   */\n      dup3\n        /* \"#utility.yul\":1050:1084   */\n      mstore\n        /* \"#utility.yul\":981:1090   */\n      pop\n      pop\n      jump\t// out\n        /* \"#utility.yul\":1096:1306   */\n    tag_21:\n        /* \"#utility.yul\":1183:1187   */\n      0x00\n        /* \"#utility.yul\":1221:1223   */\n      0x20\n        /* \"#utility.yul\":1210:1219   */\n      dup3\n        /* \"#utility.yul\":1206:1224   */\n      add\n        /* \"#utility.yul\":1198:1224   */\n      swap1\n      pop\n        /* \"#utility.yul\":1234:1299   */\n      tag_43\n        /* \"#utility.yul\":1296:1297   */\n      0x00\n        /* \"#utility.yul\":1285:1294   */\n      dup4\n        /* \"#utility.yul\":1281:1298   */\n      add\n        /* \"#utility.yul\":1272:1278   */\n      dup5\n        /* \"#utility.yul\":1234:1299   */\n      tag_27\n      jump\t// in\n    tag_43:\n        /* \"#utility.yul\":1096:1306   */\n      swap3\n      swap2\n      pop\n      pop\n      jump\t// out\n\n    auxdata: 0xa2646970667358221220f8e5835b577623f1feb6d25b90c1d69978c43552b3a6b9efd8f3891db468b77764736f6c63430008160033\n}\n",
				"bytecode": {
					"linkReferences": {},
					"object": "60806040525f805f6101000a81548160ff021916908315150217905550624c7a335f60016101000a81548163ffffffff021916908363ffffffff1602179055507fffffffffffffffffffffffffffffffffffffffffffffffffffffffffffa4438d5f60056101000a81548163ffffffff021916908360030b63ffffffff160217905550624c7a335f60096101000a81548163ffffffff021916908363ffffffff1602179055503480156100b0575f80fd5b506101e6806100be5f395ff3fe608060405234801561000f575f80fd5b506004361061004a575f3560e01c80631bb8aa911461004e578063861f708f1461006c578063a951209b1461008a578063c1991219146100a8575b5f80fd5b6100566100c6565b604051610063919061012d565b60405180910390f35b6100746100d8565b6040516100819190610164565b60405180910390f35b6100926100ed565b60405161009f9190610164565b60405180910390f35b6100b0610102565b6040516100bd9190610197565b60405180910390f35b5f60059054906101000a900460030b81565b5f60099054906101000a900463ffffffff1681565b5f60019054906101000a900463ffffffff1681565b5f8054906101000a900460ff1681565b5f8160030b9050919050565b61012781610112565b82525050565b5f6020820190506101405f83018461011e565b92915050565b5f63ffffffff82169050919050565b61015e81610146565b82525050565b5f6020820190506101775f830184610155565b92915050565b5f8115159050919050565b6101918161017d565b82525050565b5f6020820190506101aa5f830184610188565b9291505056fea2646970667358221220f8e5835b577623f1feb6d25b90c1d69978c43552b3a6b9efd8f3891db468b77764736f6c63430008160033",
					"opcodes": "PUSH1 0x80 PUSH1 0x40 MSTORE PUSH0 DUP1 PUSH0 PUSH2 0x100 EXP DUP2 SLOAD DUP2 PUSH1 0xFF MUL NOT AND SWAP1 DUP4 ISZERO ISZERO MUL OR SWAP1 SSTORE POP PUSH3 0x4C7A33 PUSH0 PUSH1 0x1 PUSH2 0x100 EXP DUP2 SLOAD DUP2 PUSH4 0xFFFFFFFF MUL NOT AND SWAP1 DUP4 PUSH4 0xFFFFFFFF AND MUL OR SWAP1 SSTORE POP PUSH32 0xFFFFFFFFFFFFFFFFFFFFFFFFFFFFFFFFFFFFFFFFFFFFFFFFFFFFFFFFFFA4438D PUSH0 PUSH1 0x5 PUSH2 0x100 EXP DUP2 SLOAD DUP2 PUSH4 0xFFFFFFFF MUL NOT AND SWAP1 DUP4 PUSH1 0x3 SIGNEXTEND PUSH4 0xFFFFFFFF AND MUL OR SWAP1 SSTORE POP PUSH3 0x4C7A33 PUSH0 PUSH1 0x9 PUSH2 0x100 EXP DUP2 SLOAD DUP2 PUSH4 0xFFFFFFFF MUL NOT AND SWAP1 DUP4 PUSH4 0xFFFFFFFF AND MUL OR SWAP1 SSTORE POP CALLVALUE DUP1 ISZERO PUSH2 0xB0 JUMPI PUSH0 DUP1 REVERT JUMPDEST POP PUSH2 0x1E6 DUP1 PUSH2 0xBE PUSH0 CODECOPY PUSH0 RETURN INVALID PUSH1 0x80 PUSH1 0x40 MSTORE CALLVALUE DUP1 ISZERO PUSH2 0xF JUMPI PUSH0 DUP1 REVERT JUMPDEST POP PUSH1 0x4 CALLDATASIZE LT PUSH2 0x4A JUMPI PUSH0 CALLDATALOAD PUSH1 0xE0 SHR DUP1 PUSH4 0x1BB8AA91 EQ PUSH2 0x4E JUMPI DUP1 PUSH4 0x861F708F EQ PUSH2 0x6C JUMPI DUP1 PUSH4 0xA951209B EQ PUSH2 0x8A JUMPI DUP1 PUSH4 0xC1991219 EQ PUSH2 0xA8 JUMPI JUMPDEST PUSH0 DUP1 REVERT JUMPDEST PUSH2 0x56 PUSH2 0xC6 JUMP JUMPDEST PUSH1 0x40 MLOAD PUSH2 0x63 SWAP2 SWAP1 PUSH2 0x12D JUMP JUMPDEST PUSH1 0x40 MLOAD DUP1 SWAP2 SUB SWAP1 RETURN JUMPDEST PUSH2 0x74 PUSH2 0xD8 JUMP JUMPDEST PUSH1 0x40 MLOAD PUSH2 0x81 SWAP2 SWAP1 PUSH2 0x164 JUMP JUMPDEST PUSH1 0x40 MLOAD DUP1 SWAP2 SUB SWAP1 RETURN JUMPDEST PUSH2 0x92 PUSH2 0xED JUMP JUMPDEST PUSH1 0x40 MLOAD PUSH2 0x9F SWAP2 SWAP1 PUSH2 0x164 JUMP JUMPDEST PUSH1 0x40 MLOAD DUP1 SWAP2 SUB SWAP1 RETURN JUMPDEST PUSH2 0xB0 PUSH2 0x102 JUMP JUMPDEST PUSH1 0x40 MLOAD PUSH2 0xBD SWAP2 SWAP1 PUSH2 0x197 JUMP JUMPDEST PUSH1 0x40 MLOAD DUP1 SWAP2 SUB SWAP1 RETURN JUMPDEST PUSH0 PUSH1 0x5 SWAP1 SLOAD SWAP1 PUSH2 0x100 EXP SWAP1 DIV PUSH1 0x3 SIGNEXTEND DUP2 JUMP JUMPDEST PUSH0 PUSH1 0x9 SWAP1 SLOAD SWAP1 PUSH2 0x100 EXP SWAP1 DIV PUSH4 0xFFFFFFFF AND DUP2 JUMP JUMPDEST PUSH0 PUSH1 0x1 SWAP1 SLOAD SWAP1 PUSH2 0x100 EXP SWAP1 DIV PUSH4 0xFFFFFFFF AND DUP2 JUMP JUMPDEST PUSH0 DUP1 SLOAD SWAP1 PUSH2 0x100 EXP SWAP1 DIV PUSH1 0xFF AND DUP2 JUMP JUMPDEST PUSH0 DUP2 PUSH1 0x3 SIGNEXTEND SWAP1 POP SWAP2 SWAP1 POP JUMP JUMPDEST PUSH2 0x127 DUP2 PUSH2 0x112 JUMP JUMPDEST DUP3 MSTORE POP POP JUMP JUMPDEST PUSH0 PUSH1 0x20 DUP3 ADD SWAP1 POP PUSH2 0x140 PUSH0 DUP4 ADD DUP5 PUSH2 0x11E JUMP JUMPDEST SWAP3 SWAP2 POP POP JUMP JUMPDEST PUSH0 PUSH4 0xFFFFFFFF DUP3 AND SWAP1 POP SWAP2 SWAP1 POP JUMP JUMPDEST PUSH2 0x15E DUP2 PUSH2 0x146 JUMP JUMPDEST DUP3 MSTORE POP POP JUMP JUMPDEST PUSH0 PUSH1 0x20 DUP3 ADD SWAP1 POP PUSH2 0x177 PUSH0 DUP4 ADD DUP5 PUSH2 0x155 JUMP JUMPDEST SWAP3 SWAP2 POP POP JUMP JUMPDEST PUSH0 DUP2 ISZERO ISZERO SWAP1 POP SWAP2 SWAP1 POP JUMP JUMPDEST PUSH2 0x191 DUP2 PUSH2 0x17D JUMP JUMPDEST DUP3 MSTORE POP POP JUMP JUMPDEST PUSH0 PUSH1 0x20 DUP3 ADD SWAP1 POP PUSH2 0x1AA PUSH0 DUP4 ADD DUP5 PUSH2 0x188 JUMP JUMPDEST SWAP3 SWAP2 POP POP JUMP INVALID LOG2 PUSH5 0x6970667358 0x22 SLT KECCAK256 0xF8 0xE5 DUP4 JUMPDEST JUMPI PUSH23 0x23F1FEB6D25B90C1D69978C43552B3A6B9EFD8F3891DB4 PUSH9 0xB77764736F6C634300 ADDMOD AND STOP CALLER "
				},
				"gasEstimates": {
					"creation": {
						"codeDepositCost": "97200",
						"executionCost": "97366",
						"totalCost": "194566"
					},
					"external": {
						"idata()": "2498",
						"ui_data()": "2516",
						"uidata()": "2538",
						"valid()": "2507"
					}
				},
				"methodIdentifiers": {
					"idata()": "1bb8aa91",
					"ui_data()": "861f708f",
					"uidata()": "a951209b",
					"valid()": "c1991219"
				}
			},
			"storageLayout": {
				"storage": [
					{
						"astId": 4,
						"contract": "Practical7/prac7_3commondatatypes.sol:Types",
						"label": "valid",
						"offset": 0,
						"slot": "0",
						"type": "t_bool"
					},
					{
						"astId": 7,
						"contract": "Practical7/prac7_3commondatatypes.sol:Types",
						"label": "uidata",
						"offset": 1,
						"slot": "0",
						"type": "t_uint32"
					},
					{
						"astId": 11,
						"contract": "Practical7/prac7_3commondatatypes.sol:Types",
						"label": "idata",
						"offset": 5,
						"slot": "0",
						"type": "t_int32"
					},
					{
						"astId": 14,
						"contract": "Practical7/prac7_3commondatatypes.sol:Types",
						"label": "ui_data",
						"offset": 9,
						"slot": "0",
						"type": "t_uint32"
					}
				],
				"types": {
					"t_bool": {
						"encoding": "inplace",
						"label": "bool",
						"numberOfBytes": "1"
					},
					"t_int32": {
						"encoding": "inplace",
						"label": "int32",
						"numberOfBytes": "4"
					},
					"t_uint32": {
						"encoding": "inplace",
						"label": "uint32",
						"numberOfBytes": "4"
					}
				}
			},
			"userdoc": {
				"kind": "user",
				"methods": {},
				"version": 1
			}
		}
	}
}