{
	"Practical7/prac7_9structDemo2.sol": {
		"MyContract": {
			"abi": [
				{
					"inputs": [
						{
							"internalType": "string",
							"name": "_firstName",
							"type": "string"
						},
						{
							"internalType": "string",
							"name": "_lastName",
							"type": "string"
						}
					],
					"name": "addPerson",
					"outputs": [],
					"stateMutability": "nonpayable",
					"type": "function"
				},
				{
					"inputs": [
						{
							"internalType": "uint256",
							"name": "",
							"type": "uint256"
						}
					],
					"name": "people",
					"outputs": [
						{
							"internalType": "uint256",
							"name": "_id",
							"type": "uint256"
						},
						{
							"internalType": "string",
							"name": "_firstName",
							"type": "string"
						},
						{
							"internalType": "string",
							"name": "_lastName",
							"type": "string"
						}
					],
					"stateMutability": "view",
					"type": "function"
				},
				{
					"inputs": [],
					"name": "peopleCount",
					"outputs": [
						{
							"internalType": "uint256",
							"name": "",
							"type": "uint256"
						}
					],
					"stateMutability": "view",
					"type": "function"
				}
			],
			"devdoc": {
				"kind": "dev",
				"methods": {},
				"version": 1
			},
			"evm": {
				"assembly": "    /* \"Practical7/prac7_9structDemo2.sol\":28:523  contract MyContract {... */\n  mstore(0x40, 0x80)\n    /* \"Practical7/prac7_9structDemo2.sol\":86:87  0 */\n  0x00\n    /* \"Practical7/prac7_9structDemo2.sol\":57:87  uint256 public peopleCount = 0 */\n  dup1\n  sstore\n    /* \"Practical7/prac7_9structDemo2.sol\":28:523  contract MyContract {... */\n  callvalue\n  dup1\n  iszero\n  tag_1\n  jumpi\n  0x00\n  dup1\n  revert\ntag_1:\n  pop\n  dataSize(sub_0)\n  dup1\n  dataOffset(sub_0)\n  0x00\n  codecopy\n  0x00\n  return\nstop\n\nsub_0: assembly {\n        /* \"Practical7/prac7_9structDemo2.sol\":28:523  contract MyContract {... */\n      mstore(0x40, 0x80)\n      callvalue\n      dup1\n      iszero\n      tag_1\n      jumpi\n      0x00\n      dup1\n      revert\n    tag_1:\n      pop\n      jumpi(tag_2, lt(calldatasize, 0x04))\n      shr(0xe0, calldataload(0x00))\n      dup1\n      0x22f5b58d\n      eq\n      tag_3\n      jumpi\n      dup1\n      0x267c68e0\n      eq\n      tag_4\n      jumpi\n      dup1\n      0x9e7a13ad\n      eq\n      tag_5\n      jumpi\n    tag_2:\n      0x00\n      dup1\n      revert\n        /* \"Practical7/prac7_9structDemo2.sol\":256:442  function addPerson(string memory _firstName, string memory _lastName) public{... */\n    tag_3:\n      tag_6\n      0x04\n      dup1\n      calldatasize\n      sub\n      dup2\n      add\n      swap1\n      tag_7\n      swap2\n      swap1\n      tag_8\n      jump\t// in\n    tag_7:\n      tag_9\n      jump\t// in\n    tag_6:\n      stop\n        /* \"Practical7/prac7_9structDemo2.sol\":57:87  uint256 public peopleCount = 0 */\n    tag_4:\n      tag_10\n      tag_11\n      jump\t// in\n    tag_10:\n      mload(0x40)\n      tag_12\n      swap2\n      swap1\n      tag_13\n      jump\t// in\n    tag_12:\n      mload(0x40)\n      dup1\n      swap2\n      sub\n      swap1\n      return\n        /* \"Practical7/prac7_9structDemo2.sol\":96:133  mapping(uint => Person) public people */\n    tag_5:\n      tag_14\n      0x04\n      dup1\n      calldatasize\n      sub\n      dup2\n      add\n      swap1\n      tag_15\n      swap2\n      swap1\n      tag_16\n      jump\t// in\n    tag_15:\n      tag_17\n      jump\t// in\n    tag_14:\n      mload(0x40)\n      tag_18\n      swap4\n      swap3\n      swap2\n      swap1\n      tag_19\n      jump\t// in\n    tag_18:\n      mload(0x40)\n      dup1\n      swap2\n      sub\n      swap1\n      return\n        /* \"Practical7/prac7_9structDemo2.sol\":256:442  function addPerson(string memory _firstName, string memory _lastName) public{... */\n    tag_9:\n        /* \"Practical7/prac7_9structDemo2.sol\":343:359  incrementCount() */\n      tag_21\n        /* \"Practical7/prac7_9structDemo2.sol\":343:357  incrementCount */\n      tag_22\n        /* \"Practical7/prac7_9structDemo2.sol\":343:359  incrementCount() */\n      jump\t// in\n    tag_21:\n        /* \"Practical7/prac7_9structDemo2.sol\":392:434  Person(peopleCount, _firstName, _lastName) */\n      mload(0x40)\n      dup1\n      0x60\n      add\n      0x40\n      mstore\n      dup1\n        /* \"Practical7/prac7_9structDemo2.sol\":399:410  peopleCount */\n      sload(0x00)\n        /* \"Practical7/prac7_9structDemo2.sol\":392:434  Person(peopleCount, _firstName, _lastName) */\n      dup2\n      mstore\n      0x20\n      add\n        /* \"Practical7/prac7_9structDemo2.sol\":412:422  _firstName */\n      dup4\n        /* \"Practical7/prac7_9structDemo2.sol\":392:434  Person(peopleCount, _firstName, _lastName) */\n      dup2\n      mstore\n      0x20\n      add\n        /* \"Practical7/prac7_9structDemo2.sol\":424:433  _lastName */\n      dup3\n        /* \"Practical7/prac7_9structDemo2.sol\":392:434  Person(peopleCount, _firstName, _lastName) */\n      dup2\n      mstore\n      pop\n        /* \"Practical7/prac7_9structDemo2.sol\":370:376  people */\n      0x01\n        /* \"Practical7/prac7_9structDemo2.sol\":370:389  people[peopleCount] */\n      0x00\n        /* \"Practical7/prac7_9structDemo2.sol\":377:388  peopleCount */\n      dup1\n      sload\n        /* \"Practical7/prac7_9structDemo2.sol\":370:389  people[peopleCount] */\n      dup2\n      mstore\n      0x20\n      add\n      swap1\n      dup2\n      mstore\n      0x20\n      add\n      0x00\n      keccak256\n        /* \"Practical7/prac7_9structDemo2.sol\":370:434  people[peopleCount] = Person(peopleCount, _firstName, _lastName) */\n      0x00\n      dup3\n      add\n      mload\n      dup2\n      0x00\n      add\n      sstore\n      0x20\n      dup3\n      add\n      mload\n      dup2\n      0x01\n      add\n      swap1\n      dup2\n      tag_23\n      swap2\n      swap1\n      tag_24\n      jump\t// in\n    tag_23:\n      pop\n      0x40\n      dup3\n      add\n      mload\n      dup2\n      0x02\n      add\n      swap1\n      dup2\n      tag_25\n      swap2\n      swap1\n      tag_24\n      jump\t// in\n    tag_25:\n      pop\n      swap1\n      pop\n      pop\n        /* \"Practical7/prac7_9structDemo2.sol\":256:442  function addPerson(string memory _firstName, string memory _lastName) public{... */\n      pop\n      pop\n      jump\t// out\n        /* \"Practical7/prac7_9structDemo2.sol\":57:87  uint256 public peopleCount = 0 */\n    tag_11:\n      sload(0x00)\n      dup2\n      jump\t// out\n        /* \"Practical7/prac7_9structDemo2.sol\":96:133  mapping(uint => Person) public people */\n    tag_17:\n      mstore(0x20, 0x01)\n      dup1\n      0x00\n      mstore\n      keccak256(0x00, 0x40)\n      0x00\n      swap2\n      pop\n      swap1\n      pop\n      dup1\n      0x00\n      add\n      sload\n      swap1\n      dup1\n      0x01\n      add\n      dup1\n      sload\n      tag_26\n      swap1\n      tag_27\n      jump\t// in\n    tag_26:\n      dup1\n      0x1f\n      add\n      0x20\n      dup1\n      swap2\n      div\n      mul\n      0x20\n      add\n      mload(0x40)\n      swap1\n      dup2\n      add\n      0x40\n      mstore\n      dup1\n      swap3\n      swap2\n      swap1\n      dup2\n      dup2\n      mstore\n      0x20\n      add\n      dup3\n      dup1\n      sload\n      tag_28\n      swap1\n      tag_27\n      jump\t// in\n    tag_28:\n      dup1\n      iszero\n      tag_29\n      jumpi\n      dup1\n      0x1f\n      lt\n      tag_30\n      jumpi\n      0x0100\n      dup1\n      dup4\n      sload\n      div\n      mul\n      dup4\n      mstore\n      swap2\n      0x20\n      add\n      swap2\n      jump(tag_29)\n    tag_30:\n      dup3\n      add\n      swap2\n      swap1\n      0x00\n      mstore\n      keccak256(0x00, 0x20)\n      swap1\n    tag_31:\n      dup2\n      sload\n      dup2\n      mstore\n      swap1\n      0x01\n      add\n      swap1\n      0x20\n      add\n      dup1\n      dup4\n      gt\n      tag_31\n      jumpi\n      dup3\n      swap1\n      sub\n      0x1f\n      and\n      dup3\n      add\n      swap2\n    tag_29:\n      pop\n      pop\n      pop\n      pop\n      pop\n      swap1\n      dup1\n      0x02\n      add\n      dup1\n      sload\n      tag_32\n      swap1\n      tag_27\n      jump\t// in\n    tag_32:\n      dup1\n      0x1f\n      add\n      0x20\n      dup1\n      swap2\n      div\n      mul\n      0x20\n      add\n      mload(0x40)\n      swap1\n      dup2\n      add\n      0x40\n      mstore\n      dup1\n      swap3\n      swap2\n      swap1\n      dup2\n      dup2\n      mstore\n      0x20\n      add\n      dup3\n      dup1\n      sload\n      tag_33\n      swap1\n      tag_27\n      jump\t// in\n    tag_33:\n      dup1\n      iszero\n      tag_34\n      jumpi\n      dup1\n      0x1f\n      lt\n      tag_35\n      jumpi\n      0x0100\n      dup1\n      dup4\n      sload\n      div\n      mul\n      dup4\n      mstore\n      swap2\n      0x20\n      add\n      swap2\n      jump(tag_34)\n    tag_35:\n      dup3\n      add\n      swap2\n      swap1\n      0x00\n      mstore\n      keccak256(0x00, 0x20)\n      swap1\n    tag_36:\n      dup2\n      sload\n      dup2\n      mstore\n      swap1\n      0x01\n      add\n      swap1\n      0x20\n      add\n      dup1\n      dup4\n      gt\n      tag_36\n      jumpi\n      dup3\n      swap1\n      sub\n      0x1f\n      and\n      dup3\n      add\n      swap2\n    tag_34:\n      pop\n      pop\n      pop\n      pop\n      pop\n      swap1\n      pop\n      dup4\n      jump\t// out\n        /* \"Practical7/prac7_9structDemo2.sol\":450:520  function incrementCount() internal {... */\n    tag_22:\n        /* \"Practical7/prac7_9structDemo2.sol\":511:512  1 */\n      0x01\n        /* \"Practical7/prac7_9structDemo2.sol\":496:507  peopleCount */\n      0x00\n      dup1\n        /* \"Practical7/prac7_9structDemo2.sol\":496:512  peopleCount += 1 */\n      dup3\n      dup3\n      sload\n      tag_38\n      swap2\n      swap1\n      tag_39\n      jump\t// in\n    tag_38:\n      swap3\n      pop\n      pop\n      dup2\n      swap1\n      sstore\n      pop\n        /* \"Practical7/prac7_9structDemo2.sol\":450:520  function incrementCount() internal {... */\n      jump\t// out\n        /* \"#utility.yul\":7:82   */\n    tag_40:\n        /* \"#utility.yul\":40:46   */\n      0x00\n        /* \"#utility.yul\":73:75   */\n      0x40\n        /* \"#utility.yul\":67:76   */\n      mload\n        /* \"#utility.yul\":57:76   */\n      swap1\n      pop\n        /* \"#utility.yul\":7:82   */\n      swap1\n      jump\t// out\n        /* \"#utility.yul\":88:205   */\n    tag_41:\n        /* \"#utility.yul\":197:198   */\n      0x00\n        /* \"#utility.yul\":194:195   */\n      dup1\n        /* \"#utility.yul\":187:199   */\n      revert\n        /* \"#utility.yul\":211:328   */\n    tag_42:\n        /* \"#utility.yul\":320:321   */\n      0x00\n        /* \"#utility.yul\":317:318   */\n      dup1\n        /* \"#utility.yul\":310:322   */\n      revert\n        /* \"#utility.yul\":334:451   */\n    tag_43:\n        /* \"#utility.yul\":443:444   */\n      0x00\n        /* \"#utility.yul\":440:441   */\n      dup1\n        /* \"#utility.yul\":433:445   */\n      revert\n        /* \"#utility.yul\":457:574   */\n    tag_44:\n        /* \"#utility.yul\":566:567   */\n      0x00\n        /* \"#utility.yul\":563:564   */\n      dup1\n        /* \"#utility.yul\":556:568   */\n      revert\n        /* \"#utility.yul\":580:682   */\n    tag_45:\n        /* \"#utility.yul\":621:627   */\n      0x00\n        /* \"#utility.yul\":672:674   */\n      0x1f\n        /* \"#utility.yul\":668:675   */\n      not\n        /* \"#utility.yul\":663:665   */\n      0x1f\n        /* \"#utility.yul\":656:661   */\n      dup4\n        /* \"#utility.yul\":652:666   */\n      add\n        /* \"#utility.yul\":648:676   */\n      and\n        /* \"#utility.yul\":638:676   */\n      swap1\n      pop\n        /* \"#utility.yul\":580:682   */\n      swap2\n      swap1\n      pop\n      jump\t// out\n        /* \"#utility.yul\":688:868   */\n    tag_46:\n        /* \"#utility.yul\":736:813   */\n      0x4e487b7100000000000000000000000000000000000000000000000000000000\n        /* \"#utility.yul\":733:734   */\n      0x00\n        /* \"#utility.yul\":726:814   */\n      mstore\n        /* \"#utility.yul\":833:837   */\n      0x41\n        /* \"#utility.yul\":830:831   */\n      0x04\n        /* \"#utility.yul\":823:838   */\n      mstore\n        /* \"#utility.yul\":857:861   */\n      0x24\n        /* \"#utility.yul\":854:855   */\n      0x00\n        /* \"#utility.yul\":847:862   */\n      revert\n        /* \"#utility.yul\":874:1155   */\n    tag_47:\n        /* \"#utility.yul\":957:984   */\n      tag_87\n        /* \"#utility.yul\":979:983   */\n      dup3\n        /* \"#utility.yul\":957:984   */\n      tag_45\n      jump\t// in\n    tag_87:\n        /* \"#utility.yul\":949:955   */\n      dup2\n        /* \"#utility.yul\":945:985   */\n      add\n        /* \"#utility.yul\":1087:1093   */\n      dup2\n        /* \"#utility.yul\":1075:1085   */\n      dup2\n        /* \"#utility.yul\":1072:1094   */\n      lt\n        /* \"#utility.yul\":1051:1069   */\n      0xffffffffffffffff\n        /* \"#utility.yul\":1039:1049   */\n      dup3\n        /* \"#utility.yul\":1036:1070   */\n      gt\n        /* \"#utility.yul\":1033:1095   */\n      or\n        /* \"#utility.yul\":1030:1118   */\n      iszero\n      tag_88\n      jumpi\n        /* \"#utility.yul\":1098:1116   */\n      tag_89\n      tag_46\n      jump\t// in\n    tag_89:\n        /* \"#utility.yul\":1030:1118   */\n    tag_88:\n        /* \"#utility.yul\":1138:1148   */\n      dup1\n        /* \"#utility.yul\":1134:1136   */\n      0x40\n        /* \"#utility.yul\":1127:1149   */\n      mstore\n        /* \"#utility.yul\":917:1155   */\n      pop\n        /* \"#utility.yul\":874:1155   */\n      pop\n      pop\n      jump\t// out\n        /* \"#utility.yul\":1161:1290   */\n    tag_48:\n        /* \"#utility.yul\":1195:1201   */\n      0x00\n        /* \"#utility.yul\":1222:1242   */\n      tag_91\n      tag_40\n      jump\t// in\n    tag_91:\n        /* \"#utility.yul\":1212:1242   */\n      swap1\n      pop\n        /* \"#utility.yul\":1251:1284   */\n      tag_92\n        /* \"#utility.yul\":1279:1283   */\n      dup3\n        /* \"#utility.yul\":1271:1277   */\n      dup3\n        /* \"#utility.yul\":1251:1284   */\n      tag_47\n      jump\t// in\n    tag_92:\n        /* \"#utility.yul\":1161:1290   */\n      swap2\n      swap1\n      pop\n      jump\t// out\n        /* \"#utility.yul\":1296:1604   */\n    tag_49:\n        /* \"#utility.yul\":1358:1362   */\n      0x00\n        /* \"#utility.yul\":1448:1466   */\n      0xffffffffffffffff\n        /* \"#utility.yul\":1440:1446   */\n      dup3\n        /* \"#utility.yul\":1437:1467   */\n      gt\n        /* \"#utility.yul\":1434:1490   */\n      iszero\n      tag_94\n      jumpi\n        /* \"#utility.yul\":1470:1488   */\n      tag_95\n      tag_46\n      jump\t// in\n    tag_95:\n        /* \"#utility.yul\":1434:1490   */\n    tag_94:\n        /* \"#utility.yul\":1508:1537   */\n      tag_96\n        /* \"#utility.yul\":1530:1536   */\n      dup3\n        /* \"#utility.yul\":1508:1537   */\n      tag_45\n      jump\t// in\n    tag_96:\n        /* \"#utility.yul\":1500:1537   */\n      swap1\n      pop\n        /* \"#utility.yul\":1592:1596   */\n      0x20\n        /* \"#utility.yul\":1586:1590   */\n      dup2\n        /* \"#utility.yul\":1582:1597   */\n      add\n        /* \"#utility.yul\":1574:1597   */\n      swap1\n      pop\n        /* \"#utility.yul\":1296:1604   */\n      swap2\n      swap1\n      pop\n      jump\t// out\n        /* \"#utility.yul\":1610:1756   */\n    tag_50:\n        /* \"#utility.yul\":1707:1713   */\n      dup3\n        /* \"#utility.yul\":1702:1705   */\n      dup2\n        /* \"#utility.yul\":1697:1700   */\n      dup4\n        /* \"#utility.yul\":1684:1714   */\n      calldatacopy\n        /* \"#utility.yul\":1748:1749   */\n      0x00\n        /* \"#utility.yul\":1739:1745   */\n      dup4\n        /* \"#utility.yul\":1734:1737   */\n      dup4\n        /* \"#utility.yul\":1730:1746   */\n      add\n        /* \"#utility.yul\":1723:1750   */\n      mstore\n        /* \"#utility.yul\":1610:1756   */\n      pop\n      pop\n      pop\n      jump\t// out\n        /* \"#utility.yul\":1762:2187   */\n    tag_51:\n        /* \"#utility.yul\":1840:1845   */\n      0x00\n        /* \"#utility.yul\":1865:1931   */\n      tag_99\n        /* \"#utility.yul\":1881:1930   */\n      tag_100\n        /* \"#utility.yul\":1923:1929   */\n      dup5\n        /* \"#utility.yul\":1881:1930   */\n      tag_49\n      jump\t// in\n    tag_100:\n        /* \"#utility.yul\":1865:1931   */\n      tag_48\n      jump\t// in\n    tag_99:\n        /* \"#utility.yul\":1856:1931   */\n      swap1\n      pop\n        /* \"#utility.yul\":1954:1960   */\n      dup3\n        /* \"#utility.yul\":1947:1952   */\n      dup2\n        /* \"#utility.yul\":1940:1961   */\n      mstore\n        /* \"#utility.yul\":1992:1996   */\n      0x20\n        /* \"#utility.yul\":1985:1990   */\n      dup2\n        /* \"#utility.yul\":1981:1997   */\n      add\n        /* \"#utility.yul\":2030:2033   */\n      dup5\n        /* \"#utility.yul\":2021:2027   */\n      dup5\n        /* \"#utility.yul\":2016:2019   */\n      dup5\n        /* \"#utility.yul\":2012:2028   */\n      add\n        /* \"#utility.yul\":2009:2034   */\n      gt\n        /* \"#utility.yul\":2006:2118   */\n      iszero\n      tag_101\n      jumpi\n        /* \"#utility.yul\":2037:2116   */\n      tag_102\n      tag_44\n      jump\t// in\n    tag_102:\n        /* \"#utility.yul\":2006:2118   */\n    tag_101:\n        /* \"#utility.yul\":2127:2181   */\n      tag_103\n        /* \"#utility.yul\":2174:2180   */\n      dup5\n        /* \"#utility.yul\":2169:2172   */\n      dup3\n        /* \"#utility.yul\":2164:2167   */\n      dup6\n        /* \"#utility.yul\":2127:2181   */\n      tag_50\n      jump\t// in\n    tag_103:\n        /* \"#utility.yul\":1846:2187   */\n      pop\n        /* \"#utility.yul\":1762:2187   */\n      swap4\n      swap3\n      pop\n      pop\n      pop\n      jump\t// out\n        /* \"#utility.yul\":2207:2547   */\n    tag_52:\n        /* \"#utility.yul\":2263:2268   */\n      0x00\n        /* \"#utility.yul\":2312:2315   */\n      dup3\n        /* \"#utility.yul\":2305:2309   */\n      0x1f\n        /* \"#utility.yul\":2297:2303   */\n      dup4\n        /* \"#utility.yul\":2293:2310   */\n      add\n        /* \"#utility.yul\":2289:2316   */\n      slt\n        /* \"#utility.yul\":2279:2401   */\n      tag_105\n      jumpi\n        /* \"#utility.yul\":2320:2399   */\n      tag_106\n      tag_43\n      jump\t// in\n    tag_106:\n        /* \"#utility.yul\":2279:2401   */\n    tag_105:\n        /* \"#utility.yul\":2437:2443   */\n      dup2\n        /* \"#utility.yul\":2424:2444   */\n      calldataload\n        /* \"#utility.yul\":2462:2541   */\n      tag_107\n        /* \"#utility.yul\":2537:2540   */\n      dup5\n        /* \"#utility.yul\":2529:2535   */\n      dup3\n        /* \"#utility.yul\":2522:2526   */\n      0x20\n        /* \"#utility.yul\":2514:2520   */\n      dup7\n        /* \"#utility.yul\":2510:2527   */\n      add\n        /* \"#utility.yul\":2462:2541   */\n      tag_51\n      jump\t// in\n    tag_107:\n        /* \"#utility.yul\":2453:2541   */\n      swap2\n      pop\n        /* \"#utility.yul\":2269:2547   */\n      pop\n        /* \"#utility.yul\":2207:2547   */\n      swap3\n      swap2\n      pop\n      pop\n      jump\t// out\n        /* \"#utility.yul\":2553:3387   */\n    tag_8:\n        /* \"#utility.yul\":2641:2647   */\n      0x00\n        /* \"#utility.yul\":2649:2655   */\n      dup1\n        /* \"#utility.yul\":2698:2700   */\n      0x40\n        /* \"#utility.yul\":2686:2695   */\n      dup4\n        /* \"#utility.yul\":2677:2684   */\n      dup6\n        /* \"#utility.yul\":2673:2696   */\n      sub\n        /* \"#utility.yul\":2669:2701   */\n      slt\n        /* \"#utility.yul\":2666:2785   */\n      iszero\n      tag_109\n      jumpi\n        /* \"#utility.yul\":2704:2783   */\n      tag_110\n      tag_41\n      jump\t// in\n    tag_110:\n        /* \"#utility.yul\":2666:2785   */\n    tag_109:\n        /* \"#utility.yul\":2852:2853   */\n      0x00\n        /* \"#utility.yul\":2841:2850   */\n      dup4\n        /* \"#utility.yul\":2837:2854   */\n      add\n        /* \"#utility.yul\":2824:2855   */\n      calldataload\n        /* \"#utility.yul\":2882:2900   */\n      0xffffffffffffffff\n        /* \"#utility.yul\":2874:2880   */\n      dup2\n        /* \"#utility.yul\":2871:2901   */\n      gt\n        /* \"#utility.yul\":2868:2985   */\n      iszero\n      tag_111\n      jumpi\n        /* \"#utility.yul\":2904:2983   */\n      tag_112\n      tag_42\n      jump\t// in\n    tag_112:\n        /* \"#utility.yul\":2868:2985   */\n    tag_111:\n        /* \"#utility.yul\":3009:3072   */\n      tag_113\n        /* \"#utility.yul\":3064:3071   */\n      dup6\n        /* \"#utility.yul\":3055:3061   */\n      dup3\n        /* \"#utility.yul\":3044:3053   */\n      dup7\n        /* \"#utility.yul\":3040:3062   */\n      add\n        /* \"#utility.yul\":3009:3072   */\n      tag_52\n      jump\t// in\n    tag_113:\n        /* \"#utility.yul\":2999:3072   */\n      swap3\n      pop\n        /* \"#utility.yul\":2795:3082   */\n      pop\n        /* \"#utility.yul\":3149:3151   */\n      0x20\n        /* \"#utility.yul\":3138:3147   */\n      dup4\n        /* \"#utility.yul\":3134:3152   */\n      add\n        /* \"#utility.yul\":3121:3153   */\n      calldataload\n        /* \"#utility.yul\":3180:3198   */\n      0xffffffffffffffff\n        /* \"#utility.yul\":3172:3178   */\n      dup2\n        /* \"#utility.yul\":3169:3199   */\n      gt\n        /* \"#utility.yul\":3166:3283   */\n      iszero\n      tag_114\n      jumpi\n        /* \"#utility.yul\":3202:3281   */\n      tag_115\n      tag_42\n      jump\t// in\n    tag_115:\n        /* \"#utility.yul\":3166:3283   */\n    tag_114:\n        /* \"#utility.yul\":3307:3370   */\n      tag_116\n        /* \"#utility.yul\":3362:3369   */\n      dup6\n        /* \"#utility.yul\":3353:3359   */\n      dup3\n        /* \"#utility.yul\":3342:3351   */\n      dup7\n        /* \"#utility.yul\":3338:3360   */\n      add\n        /* \"#utility.yul\":3307:3370   */\n      tag_52\n      jump\t// in\n    tag_116:\n        /* \"#utility.yul\":3297:3370   */\n      swap2\n      pop\n        /* \"#utility.yul\":3092:3380   */\n      pop\n        /* \"#utility.yul\":2553:3387   */\n      swap3\n      pop\n      swap3\n      swap1\n      pop\n      jump\t// out\n        /* \"#utility.yul\":3393:3470   */\n    tag_53:\n        /* \"#utility.yul\":3430:3437   */\n      0x00\n        /* \"#utility.yul\":3459:3464   */\n      dup2\n        /* \"#utility.yul\":3448:3464   */\n      swap1\n      pop\n        /* \"#utility.yul\":3393:3470   */\n      swap2\n      swap1\n      pop\n      jump\t// out\n        /* \"#utility.yul\":3476:3594   */\n    tag_54:\n        /* \"#utility.yul\":3563:3587   */\n      tag_119\n        /* \"#utility.yul\":3581:3586   */\n      dup2\n        /* \"#utility.yul\":3563:3587   */\n      tag_53\n      jump\t// in\n    tag_119:\n        /* \"#utility.yul\":3558:3561   */\n      dup3\n        /* \"#utility.yul\":3551:3588   */\n      mstore\n        /* \"#utility.yul\":3476:3594   */\n      pop\n      pop\n      jump\t// out\n        /* \"#utility.yul\":3600:3822   */\n    tag_13:\n        /* \"#utility.yul\":3693:3697   */\n      0x00\n        /* \"#utility.yul\":3731:3733   */\n      0x20\n        /* \"#utility.yul\":3720:3729   */\n      dup3\n        /* \"#utility.yul\":3716:3734   */\n      add\n        /* \"#utility.yul\":3708:3734   */\n      swap1\n      pop\n        /* \"#utility.yul\":3744:3815   */\n      tag_121\n        /* \"#utility.yul\":3812:3813   */\n      0x00\n        /* \"#utility.yul\":3801:3810   */\n      dup4\n        /* \"#utility.yul\":3797:3814   */\n      add\n        /* \"#utility.yul\":3788:3794   */\n      dup5\n        /* \"#utility.yul\":3744:3815   */\n      tag_54\n      jump\t// in\n    tag_121:\n        /* \"#utility.yul\":3600:3822   */\n      swap3\n      swap2\n      pop\n      pop\n      jump\t// out\n        /* \"#utility.yul\":3828:3950   */\n    tag_55:\n        /* \"#utility.yul\":3901:3925   */\n      tag_123\n        /* \"#utility.yul\":3919:3924   */\n      dup2\n        /* \"#utility.yul\":3901:3925   */\n      tag_53\n      jump\t// in\n    tag_123:\n        /* \"#utility.yul\":3894:3899   */\n      dup2\n        /* \"#utility.yul\":3891:3926   */\n      eq\n        /* \"#utility.yul\":3881:3944   */\n      tag_124\n      jumpi\n        /* \"#utility.yul\":3940:3941   */\n      0x00\n        /* \"#utility.yul\":3937:3938   */\n      dup1\n        /* \"#utility.yul\":3930:3942   */\n      revert\n        /* \"#utility.yul\":3881:3944   */\n    tag_124:\n        /* \"#utility.yul\":3828:3950   */\n      pop\n      jump\t// out\n        /* \"#utility.yul\":3956:4095   */\n    tag_56:\n        /* \"#utility.yul\":4002:4007   */\n      0x00\n        /* \"#utility.yul\":4040:4046   */\n      dup2\n        /* \"#utility.yul\":4027:4047   */\n      calldataload\n        /* \"#utility.yul\":4018:4047   */\n      swap1\n      pop\n        /* \"#utility.yul\":4056:4089   */\n      tag_126\n        /* \"#utility.yul\":4083:4088   */\n      dup2\n        /* \"#utility.yul\":4056:4089   */\n      tag_55\n      jump\t// in\n    tag_126:\n        /* \"#utility.yul\":3956:4095   */\n      swap3\n      swap2\n      pop\n      pop\n      jump\t// out\n        /* \"#utility.yul\":4101:4430   */\n    tag_16:\n        /* \"#utility.yul\":4160:4166   */\n      0x00\n        /* \"#utility.yul\":4209:4211   */\n      0x20\n        /* \"#utility.yul\":4197:4206   */\n      dup3\n        /* \"#utility.yul\":4188:4195   */\n      dup5\n        /* \"#utility.yul\":4184:4207   */\n      sub\n        /* \"#utility.yul\":4180:4212   */\n      slt\n        /* \"#utility.yul\":4177:4296   */\n      iszero\n      tag_128\n      jumpi\n        /* \"#utility.yul\":4215:4294   */\n      tag_129\n      tag_41\n      jump\t// in\n    tag_129:\n        /* \"#utility.yul\":4177:4296   */\n    tag_128:\n        /* \"#utility.yul\":4335:4336   */\n      0x00\n        /* \"#utility.yul\":4360:4413   */\n      tag_130\n        /* \"#utility.yul\":4405:4412   */\n      dup5\n        /* \"#utility.yul\":4396:4402   */\n      dup3\n        /* \"#utility.yul\":4385:4394   */\n      dup6\n        /* \"#utility.yul\":4381:4403   */\n      add\n        /* \"#utility.yul\":4360:4413   */\n      tag_56\n      jump\t// in\n    tag_130:\n        /* \"#utility.yul\":4350:4413   */\n      swap2\n      pop\n        /* \"#utility.yul\":4306:4423   */\n      pop\n        /* \"#utility.yul\":4101:4430   */\n      swap3\n      swap2\n      pop\n      pop\n      jump\t// out\n        /* \"#utility.yul\":4436:4535   */\n    tag_57:\n        /* \"#utility.yul\":4488:4494   */\n      0x00\n        /* \"#utility.yul\":4522:4527   */\n      dup2\n        /* \"#utility.yul\":4516:4528   */\n      mload\n        /* \"#utility.yul\":4506:4528   */\n      swap1\n      pop\n        /* \"#utility.yul\":4436:4535   */\n      swap2\n      swap1\n      pop\n      jump\t// out\n        /* \"#utility.yul\":4541:4710   */\n    tag_58:\n        /* \"#utility.yul\":4625:4636   */\n      0x00\n        /* \"#utility.yul\":4659:4665   */\n      dup3\n        /* \"#utility.yul\":4654:4657   */\n      dup3\n        /* \"#utility.yul\":4647:4666   */\n      mstore\n        /* \"#utility.yul\":4699:4703   */\n      0x20\n        /* \"#utility.yul\":4694:4697   */\n      dup3\n        /* \"#utility.yul\":4690:4704   */\n      add\n        /* \"#utility.yul\":4675:4704   */\n      swap1\n      pop\n        /* \"#utility.yul\":4541:4710   */\n      swap3\n      swap2\n      pop\n      pop\n      jump\t// out\n        /* \"#utility.yul\":4716:4962   */\n    tag_59:\n        /* \"#utility.yul\":4797:4798   */\n      0x00\n        /* \"#utility.yul\":4807:4920   */\n    tag_134:\n        /* \"#utility.yul\":4821:4827   */\n      dup4\n        /* \"#utility.yul\":4818:4819   */\n      dup2\n        /* \"#utility.yul\":4815:4828   */\n      lt\n        /* \"#utility.yul\":4807:4920   */\n      iszero\n      tag_136\n      jumpi\n        /* \"#utility.yul\":4906:4907   */\n      dup1\n        /* \"#utility.yul\":4901:4904   */\n      dup3\n        /* \"#utility.yul\":4897:4908   */\n      add\n        /* \"#utility.yul\":4891:4909   */\n      mload\n        /* \"#utility.yul\":4887:4888   */\n      dup2\n        /* \"#utility.yul\":4882:4885   */\n      dup5\n        /* \"#utility.yul\":4878:4889   */\n      add\n        /* \"#utility.yul\":4871:4910   */\n      mstore\n        /* \"#utility.yul\":4843:4845   */\n      0x20\n        /* \"#utility.yul\":4840:4841   */\n      dup2\n        /* \"#utility.yul\":4836:4846   */\n      add\n        /* \"#utility.yul\":4831:4846   */\n      swap1\n      pop\n        /* \"#utility.yul\":4807:4920   */\n      jump(tag_134)\n    tag_136:\n        /* \"#utility.yul\":4954:4955   */\n      0x00\n        /* \"#utility.yul\":4945:4951   */\n      dup5\n        /* \"#utility.yul\":4940:4943   */\n      dup5\n        /* \"#utility.yul\":4936:4952   */\n      add\n        /* \"#utility.yul\":4929:4956   */\n      mstore\n        /* \"#utility.yul\":4778:4962   */\n      pop\n        /* \"#utility.yul\":4716:4962   */\n      pop\n      pop\n      pop\n      jump\t// out\n        /* \"#utility.yul\":4968:5345   */\n    tag_60:\n        /* \"#utility.yul\":5056:5059   */\n      0x00\n        /* \"#utility.yul\":5084:5123   */\n      tag_138\n        /* \"#utility.yul\":5117:5122   */\n      dup3\n        /* \"#utility.yul\":5084:5123   */\n      tag_57\n      jump\t// in\n    tag_138:\n        /* \"#utility.yul\":5139:5210   */\n      tag_139\n        /* \"#utility.yul\":5203:5209   */\n      dup2\n        /* \"#utility.yul\":5198:5201   */\n      dup6\n        /* \"#utility.yul\":5139:5210   */\n      tag_58\n      jump\t// in\n    tag_139:\n        /* \"#utility.yul\":5132:5210   */\n      swap4\n      pop\n        /* \"#utility.yul\":5219:5284   */\n      tag_140\n        /* \"#utility.yul\":5277:5283   */\n      dup2\n        /* \"#utility.yul\":5272:5275   */\n      dup6\n        /* \"#utility.yul\":5265:5269   */\n      0x20\n        /* \"#utility.yul\":5258:5263   */\n      dup7\n        /* \"#utility.yul\":5254:5270   */\n      add\n        /* \"#utility.yul\":5219:5284   */\n      tag_59\n      jump\t// in\n    tag_140:\n        /* \"#utility.yul\":5309:5338   */\n      tag_141\n        /* \"#utility.yul\":5331:5337   */\n      dup2\n        /* \"#utility.yul\":5309:5338   */\n      tag_45\n      jump\t// in\n    tag_141:\n        /* \"#utility.yul\":5304:5307   */\n      dup5\n        /* \"#utility.yul\":5300:5339   */\n      add\n        /* \"#utility.yul\":5293:5339   */\n      swap2\n      pop\n        /* \"#utility.yul\":5060:5345   */\n      pop\n        /* \"#utility.yul\":4968:5345   */\n      swap3\n      swap2\n      pop\n      pop\n      jump\t// out\n        /* \"#utility.yul\":5351:5975   */\n    tag_19:\n        /* \"#utility.yul\":5540:5544   */\n      0x00\n        /* \"#utility.yul\":5578:5580   */\n      0x60\n        /* \"#utility.yul\":5567:5576   */\n      dup3\n        /* \"#utility.yul\":5563:5581   */\n      add\n        /* \"#utility.yul\":5555:5581   */\n      swap1\n      pop\n        /* \"#utility.yul\":5591:5662   */\n      tag_143\n        /* \"#utility.yul\":5659:5660   */\n      0x00\n        /* \"#utility.yul\":5648:5657   */\n      dup4\n        /* \"#utility.yul\":5644:5661   */\n      add\n        /* \"#utility.yul\":5635:5641   */\n      dup7\n        /* \"#utility.yul\":5591:5662   */\n      tag_54\n      jump\t// in\n    tag_143:\n        /* \"#utility.yul\":5709:5718   */\n      dup2\n        /* \"#utility.yul\":5703:5707   */\n      dup2\n        /* \"#utility.yul\":5699:5719   */\n      sub\n        /* \"#utility.yul\":5694:5696   */\n      0x20\n        /* \"#utility.yul\":5683:5692   */\n      dup4\n        /* \"#utility.yul\":5679:5697   */\n      add\n        /* \"#utility.yul\":5672:5720   */\n      mstore\n        /* \"#utility.yul\":5737:5815   */\n      tag_144\n        /* \"#utility.yul\":5810:5814   */\n      dup2\n        /* \"#utility.yul\":5801:5807   */\n      dup6\n        /* \"#utility.yul\":5737:5815   */\n      tag_60\n      jump\t// in\n    tag_144:\n        /* \"#utility.yul\":5729:5815   */\n      swap1\n      pop\n        /* \"#utility.yul\":5862:5871   */\n      dup2\n        /* \"#utility.yul\":5856:5860   */\n      dup2\n        /* \"#utility.yul\":5852:5872   */\n      sub\n        /* \"#utility.yul\":5847:5849   */\n      0x40\n        /* \"#utility.yul\":5836:5845   */\n      dup4\n        /* \"#utility.yul\":5832:5850   */\n      add\n        /* \"#utility.yul\":5825:5873   */\n      mstore\n        /* \"#utility.yul\":5890:5968   */\n      tag_145\n        /* \"#utility.yul\":5963:5967   */\n      dup2\n        /* \"#utility.yul\":5954:5960   */\n      dup5\n        /* \"#utility.yul\":5890:5968   */\n      tag_60\n      jump\t// in\n    tag_145:\n        /* \"#utility.yul\":5882:5968   */\n      swap1\n      pop\n        /* \"#utility.yul\":5351:5975   */\n      swap5\n      swap4\n      pop\n      pop\n      pop\n      pop\n      jump\t// out\n        /* \"#utility.yul\":5981:6161   */\n    tag_61:\n        /* \"#utility.yul\":6029:6106   */\n      0x4e487b7100000000000000000000000000000000000000000000000000000000\n        /* \"#utility.yul\":6026:6027   */\n      0x00\n        /* \"#utility.yul\":6019:6107   */\n      mstore\n        /* \"#utility.yul\":6126:6130   */\n      0x22\n        /* \"#utility.yul\":6123:6124   */\n      0x04\n        /* \"#utility.yul\":6116:6131   */\n      mstore\n        /* \"#utility.yul\":6150:6154   */\n      0x24\n        /* \"#utility.yul\":6147:6148   */\n      0x00\n        /* \"#utility.yul\":6140:6155   */\n      revert\n        /* \"#utility.yul\":6167:6487   */\n    tag_27:\n        /* \"#utility.yul\":6211:6217   */\n      0x00\n        /* \"#utility.yul\":6248:6249   */\n      0x02\n        /* \"#utility.yul\":6242:6246   */\n      dup3\n        /* \"#utility.yul\":6238:6250   */\n      div\n        /* \"#utility.yul\":6228:6250   */\n      swap1\n      pop\n        /* \"#utility.yul\":6295:6296   */\n      0x01\n        /* \"#utility.yul\":6289:6293   */\n      dup3\n        /* \"#utility.yul\":6285:6297   */\n      and\n        /* \"#utility.yul\":6316:6334   */\n      dup1\n        /* \"#utility.yul\":6306:6387   */\n      tag_148\n      jumpi\n        /* \"#utility.yul\":6372:6376   */\n      0x7f\n        /* \"#utility.yul\":6364:6370   */\n      dup3\n        /* \"#utility.yul\":6360:6377   */\n      and\n        /* \"#utility.yul\":6350:6377   */\n      swap2\n      pop\n        /* \"#utility.yul\":6306:6387   */\n    tag_148:\n        /* \"#utility.yul\":6434:6436   */\n      0x20\n        /* \"#utility.yul\":6426:6432   */\n      dup3\n        /* \"#utility.yul\":6423:6437   */\n      lt\n        /* \"#utility.yul\":6403:6421   */\n      dup2\n        /* \"#utility.yul\":6400:6438   */\n      sub\n        /* \"#utility.yul\":6397:6481   */\n      tag_149\n      jumpi\n        /* \"#utility.yul\":6453:6471   */\n      tag_150\n      tag_61\n      jump\t// in\n    tag_150:\n        /* \"#utility.yul\":6397:6481   */\n    tag_149:\n        /* \"#utility.yul\":6218:6487   */\n      pop\n        /* \"#utility.yul\":6167:6487   */\n      swap2\n      swap1\n      pop\n      jump\t// out\n        /* \"#utility.yul\":6493:6634   */\n    tag_62:\n        /* \"#utility.yul\":6542:6546   */\n      0x00\n        /* \"#utility.yul\":6565:6568   */\n      dup2\n        /* \"#utility.yul\":6557:6568   */\n      swap1\n      pop\n        /* \"#utility.yul\":6588:6591   */\n      dup2\n        /* \"#utility.yul\":6585:6586   */\n      0x00\n        /* \"#utility.yul\":6578:6592   */\n      mstore\n        /* \"#utility.yul\":6622:6626   */\n      0x20\n        /* \"#utility.yul\":6619:6620   */\n      0x00\n        /* \"#utility.yul\":6609:6627   */\n      keccak256\n        /* \"#utility.yul\":6601:6627   */\n      swap1\n      pop\n        /* \"#utility.yul\":6493:6634   */\n      swap2\n      swap1\n      pop\n      jump\t// out\n        /* \"#utility.yul\":6640:6733   */\n    tag_63:\n        /* \"#utility.yul\":6677:6683   */\n      0x00\n        /* \"#utility.yul\":6724:6726   */\n      0x20\n        /* \"#utility.yul\":6719:6721   */\n      0x1f\n        /* \"#utility.yul\":6712:6717   */\n      dup4\n        /* \"#utility.yul\":6708:6722   */\n      add\n        /* \"#utility.yul\":6704:6727   */\n      div\n        /* \"#utility.yul\":6694:6727   */\n      swap1\n      pop\n        /* \"#utility.yul\":6640:6733   */\n      swap2\n      swap1\n      pop\n      jump\t// out\n        /* \"#utility.yul\":6739:6846   */\n    tag_64:\n        /* \"#utility.yul\":6783:6791   */\n      0x00\n        /* \"#utility.yul\":6833:6838   */\n      dup3\n        /* \"#utility.yul\":6827:6831   */\n      dup3\n        /* \"#utility.yul\":6823:6839   */\n      shl\n        /* \"#utility.yul\":6802:6839   */\n      swap1\n      pop\n        /* \"#utility.yul\":6739:6846   */\n      swap3\n      swap2\n      pop\n      pop\n      jump\t// out\n        /* \"#utility.yul\":6852:7245   */\n    tag_65:\n        /* \"#utility.yul\":6921:6927   */\n      0x00\n        /* \"#utility.yul\":6971:6972   */\n      0x08\n        /* \"#utility.yul\":6959:6969   */\n      dup4\n        /* \"#utility.yul\":6955:6973   */\n      mul\n        /* \"#utility.yul\":6994:7091   */\n      tag_155\n        /* \"#utility.yul\":7024:7090   */\n      0xffffffffffffffffffffffffffffffffffffffffffffffffffffffffffffffff\n        /* \"#utility.yul\":7013:7022   */\n      dup3\n        /* \"#utility.yul\":6994:7091   */\n      tag_64\n      jump\t// in\n    tag_155:\n        /* \"#utility.yul\":7112:7151   */\n      tag_156\n        /* \"#utility.yul\":7142:7150   */\n      dup7\n        /* \"#utility.yul\":7131:7140   */\n      dup4\n        /* \"#utility.yul\":7112:7151   */\n      tag_64\n      jump\t// in\n    tag_156:\n        /* \"#utility.yul\":7100:7151   */\n      swap6\n      pop\n        /* \"#utility.yul\":7184:7188   */\n      dup1\n        /* \"#utility.yul\":7180:7189   */\n      not\n        /* \"#utility.yul\":7173:7178   */\n      dup5\n        /* \"#utility.yul\":7169:7190   */\n      and\n        /* \"#utility.yul\":7160:7190   */\n      swap4\n      pop\n        /* \"#utility.yul\":7233:7237   */\n      dup1\n        /* \"#utility.yul\":7223:7231   */\n      dup7\n        /* \"#utility.yul\":7219:7238   */\n      and\n        /* \"#utility.yul\":7212:7217   */\n      dup5\n        /* \"#utility.yul\":7209:7239   */\n      or\n        /* \"#utility.yul\":7199:7239   */\n      swap3\n      pop\n        /* \"#utility.yul\":6928:7245   */\n      pop\n      pop\n        /* \"#utility.yul\":6852:7245   */\n      swap4\n      swap3\n      pop\n      pop\n      pop\n      jump\t// out\n        /* \"#utility.yul\":7251:7311   */\n    tag_66:\n        /* \"#utility.yul\":7279:7282   */\n      0x00\n        /* \"#utility.yul\":7300:7305   */\n      dup2\n        /* \"#utility.yul\":7293:7305   */\n      swap1\n      pop\n        /* \"#utility.yul\":7251:7311   */\n      swap2\n      swap1\n      pop\n      jump\t// out\n        /* \"#utility.yul\":7317:7459   */\n    tag_67:\n        /* \"#utility.yul\":7367:7376   */\n      0x00\n        /* \"#utility.yul\":7400:7453   */\n      tag_159\n        /* \"#utility.yul\":7418:7452   */\n      tag_160\n        /* \"#utility.yul\":7427:7451   */\n      tag_161\n        /* \"#utility.yul\":7445:7450   */\n      dup5\n        /* \"#utility.yul\":7427:7451   */\n      tag_53\n      jump\t// in\n    tag_161:\n        /* \"#utility.yul\":7418:7452   */\n      tag_66\n      jump\t// in\n    tag_160:\n        /* \"#utility.yul\":7400:7453   */\n      tag_53\n      jump\t// in\n    tag_159:\n        /* \"#utility.yul\":7387:7453   */\n      swap1\n      pop\n        /* \"#utility.yul\":7317:7459   */\n      swap2\n      swap1\n      pop\n      jump\t// out\n        /* \"#utility.yul\":7465:7540   */\n    tag_68:\n        /* \"#utility.yul\":7508:7511   */\n      0x00\n        /* \"#utility.yul\":7529:7534   */\n      dup2\n        /* \"#utility.yul\":7522:7534   */\n      swap1\n      pop\n        /* \"#utility.yul\":7465:7540   */\n      swap2\n      swap1\n      pop\n      jump\t// out\n        /* \"#utility.yul\":7546:7815   */\n    tag_69:\n        /* \"#utility.yul\":7656:7695   */\n      tag_164\n        /* \"#utility.yul\":7687:7694   */\n      dup4\n        /* \"#utility.yul\":7656:7695   */\n      tag_67\n      jump\t// in\n    tag_164:\n        /* \"#utility.yul\":7717:7808   */\n      tag_165\n        /* \"#utility.yul\":7766:7807   */\n      tag_166\n        /* \"#utility.yul\":7790:7806   */\n      dup3\n        /* \"#utility.yul\":7766:7807   */\n      tag_68\n      jump\t// in\n    tag_166:\n        /* \"#utility.yul\":7758:7764   */\n      dup5\n        /* \"#utility.yul\":7751:7755   */\n      dup5\n        /* \"#utility.yul\":7745:7756   */\n      sload\n        /* \"#utility.yul\":7717:7808   */\n      tag_65\n      jump\t// in\n    tag_165:\n        /* \"#utility.yul\":7711:7715   */\n      dup3\n        /* \"#utility.yul\":7704:7809   */\n      sstore\n        /* \"#utility.yul\":7622:7815   */\n      pop\n        /* \"#utility.yul\":7546:7815   */\n      pop\n      pop\n      pop\n      jump\t// out\n        /* \"#utility.yul\":7821:7894   */\n    tag_70:\n        /* \"#utility.yul\":7866:7869   */\n      0x00\n        /* \"#utility.yul\":7821:7894   */\n      swap1\n      jump\t// out\n        /* \"#utility.yul\":7900:8089   */\n    tag_71:\n        /* \"#utility.yul\":7977:8009   */\n      tag_169\n      tag_70\n      jump\t// in\n    tag_169:\n        /* \"#utility.yul\":8018:8083   */\n      tag_170\n        /* \"#utility.yul\":8076:8082   */\n      dup2\n        /* \"#utility.yul\":8068:8074   */\n      dup5\n        /* \"#utility.yul\":8062:8066   */\n      dup5\n        /* \"#utility.yul\":8018:8083   */\n      tag_69\n      jump\t// in\n    tag_170:\n        /* \"#utility.yul\":7953:8089   */\n      pop\n        /* \"#utility.yul\":7900:8089   */\n      pop\n      pop\n      jump\t// out\n        /* \"#utility.yul\":8095:8281   */\n    tag_72:\n        /* \"#utility.yul\":8155:8275   */\n    tag_172:\n        /* \"#utility.yul\":8172:8175   */\n      dup2\n        /* \"#utility.yul\":8165:8170   */\n      dup2\n        /* \"#utility.yul\":8162:8176   */\n      lt\n        /* \"#utility.yul\":8155:8275   */\n      iszero\n      tag_174\n      jumpi\n        /* \"#utility.yul\":8226:8265   */\n      tag_175\n        /* \"#utility.yul\":8263:8264   */\n      0x00\n        /* \"#utility.yul\":8256:8261   */\n      dup3\n        /* \"#utility.yul\":8226:8265   */\n      tag_71\n      jump\t// in\n    tag_175:\n        /* \"#utility.yul\":8199:8200   */\n      0x01\n        /* \"#utility.yul\":8192:8197   */\n      dup2\n        /* \"#utility.yul\":8188:8201   */\n      add\n        /* \"#utility.yul\":8179:8201   */\n      swap1\n      pop\n        /* \"#utility.yul\":8155:8275   */\n      jump(tag_172)\n    tag_174:\n        /* \"#utility.yul\":8095:8281   */\n      pop\n      pop\n      jump\t// out\n        /* \"#utility.yul\":8287:8830   */\n    tag_73:\n        /* \"#utility.yul\":8388:8390   */\n      0x1f\n        /* \"#utility.yul\":8383:8386   */\n      dup3\n        /* \"#utility.yul\":8380:8391   */\n      gt\n        /* \"#utility.yul\":8377:8823   */\n      iszero\n      tag_177\n      jumpi\n        /* \"#utility.yul\":8422:8460   */\n      tag_178\n        /* \"#utility.yul\":8454:8459   */\n      dup2\n        /* \"#utility.yul\":8422:8460   */\n      tag_62\n      jump\t// in\n    tag_178:\n        /* \"#utility.yul\":8506:8535   */\n      tag_179\n        /* \"#utility.yul\":8524:8534   */\n      dup5\n        /* \"#utility.yul\":8506:8535   */\n      tag_63\n      jump\t// in\n    tag_179:\n        /* \"#utility.yul\":8496:8504   */\n      dup2\n        /* \"#utility.yul\":8492:8536   */\n      add\n        /* \"#utility.yul\":8689:8691   */\n      0x20\n        /* \"#utility.yul\":8677:8687   */\n      dup6\n        /* \"#utility.yul\":8674:8692   */\n      lt\n        /* \"#utility.yul\":8671:8720   */\n      iszero\n      tag_180\n      jumpi\n        /* \"#utility.yul\":8710:8718   */\n      dup2\n        /* \"#utility.yul\":8695:8718   */\n      swap1\n      pop\n        /* \"#utility.yul\":8671:8720   */\n    tag_180:\n        /* \"#utility.yul\":8733:8813   */\n      tag_181\n        /* \"#utility.yul\":8789:8811   */\n      tag_182\n        /* \"#utility.yul\":8807:8810   */\n      dup6\n        /* \"#utility.yul\":8789:8811   */\n      tag_63\n      jump\t// in\n    tag_182:\n        /* \"#utility.yul\":8779:8787   */\n      dup4\n        /* \"#utility.yul\":8775:8812   */\n      add\n        /* \"#utility.yul\":8762:8773   */\n      dup3\n        /* \"#utility.yul\":8733:8813   */\n      tag_72\n      jump\t// in\n    tag_181:\n        /* \"#utility.yul\":8392:8823   */\n      pop\n      pop\n        /* \"#utility.yul\":8377:8823   */\n    tag_177:\n        /* \"#utility.yul\":8287:8830   */\n      pop\n      pop\n      pop\n      jump\t// out\n        /* \"#utility.yul\":8836:8953   */\n    tag_74:\n        /* \"#utility.yul\":8890:8898   */\n      0x00\n        /* \"#utility.yul\":8940:8945   */\n      dup3\n        /* \"#utility.yul\":8934:8938   */\n      dup3\n        /* \"#utility.yul\":8930:8946   */\n      shr\n        /* \"#utility.yul\":8909:8946   */\n      swap1\n      pop\n        /* \"#utility.yul\":8836:8953   */\n      swap3\n      swap2\n      pop\n      pop\n      jump\t// out\n        /* \"#utility.yul\":8959:9128   */\n    tag_75:\n        /* \"#utility.yul\":9003:9009   */\n      0x00\n        /* \"#utility.yul\":9036:9087   */\n      tag_185\n        /* \"#utility.yul\":9084:9085   */\n      0x00\n        /* \"#utility.yul\":9080:9086   */\n      not\n        /* \"#utility.yul\":9072:9077   */\n      dup5\n        /* \"#utility.yul\":9069:9070   */\n      0x08\n        /* \"#utility.yul\":9065:9078   */\n      mul\n        /* \"#utility.yul\":9036:9087   */\n      tag_74\n      jump\t// in\n    tag_185:\n        /* \"#utility.yul\":9032:9088   */\n      not\n        /* \"#utility.yul\":9117:9121   */\n      dup1\n        /* \"#utility.yul\":9111:9115   */\n      dup4\n        /* \"#utility.yul\":9107:9122   */\n      and\n        /* \"#utility.yul\":9097:9122   */\n      swap2\n      pop\n        /* \"#utility.yul\":9010:9128   */\n      pop\n        /* \"#utility.yul\":8959:9128   */\n      swap3\n      swap2\n      pop\n      pop\n      jump\t// out\n        /* \"#utility.yul\":9133:9428   */\n    tag_76:\n        /* \"#utility.yul\":9209:9213   */\n      0x00\n        /* \"#utility.yul\":9355:9384   */\n      tag_187\n        /* \"#utility.yul\":9380:9383   */\n      dup4\n        /* \"#utility.yul\":9374:9378   */\n      dup4\n        /* \"#utility.yul\":9355:9384   */\n      tag_75\n      jump\t// in\n    tag_187:\n        /* \"#utility.yul\":9347:9384   */\n      swap2\n      pop\n        /* \"#utility.yul\":9417:9420   */\n      dup3\n        /* \"#utility.yul\":9414:9415   */\n      0x02\n        /* \"#utility.yul\":9410:9421   */\n      mul\n        /* \"#utility.yul\":9404:9408   */\n      dup3\n        /* \"#utility.yul\":9401:9422   */\n      or\n        /* \"#utility.yul\":9393:9422   */\n      swap1\n      pop\n        /* \"#utility.yul\":9133:9428   */\n      swap3\n      swap2\n      pop\n      pop\n      jump\t// out\n        /* \"#utility.yul\":9433:10828   */\n    tag_24:\n        /* \"#utility.yul\":9550:9587   */\n      tag_189\n        /* \"#utility.yul\":9583:9586   */\n      dup3\n        /* \"#utility.yul\":9550:9587   */\n      tag_57\n      jump\t// in\n    tag_189:\n        /* \"#utility.yul\":9652:9670   */\n      0xffffffffffffffff\n        /* \"#utility.yul\":9644:9650   */\n      dup2\n        /* \"#utility.yul\":9641:9671   */\n      gt\n        /* \"#utility.yul\":9638:9694   */\n      iszero\n      tag_190\n      jumpi\n        /* \"#utility.yul\":9674:9692   */\n      tag_191\n      tag_46\n      jump\t// in\n    tag_191:\n        /* \"#utility.yul\":9638:9694   */\n    tag_190:\n        /* \"#utility.yul\":9718:9756   */\n      tag_192\n        /* \"#utility.yul\":9750:9754   */\n      dup3\n        /* \"#utility.yul\":9744:9755   */\n      sload\n        /* \"#utility.yul\":9718:9756   */\n      tag_27\n      jump\t// in\n    tag_192:\n        /* \"#utility.yul\":9803:9870   */\n      tag_193\n        /* \"#utility.yul\":9863:9869   */\n      dup3\n        /* \"#utility.yul\":9855:9861   */\n      dup3\n        /* \"#utility.yul\":9849:9853   */\n      dup6\n        /* \"#utility.yul\":9803:9870   */\n      tag_73\n      jump\t// in\n    tag_193:\n        /* \"#utility.yul\":9897:9898   */\n      0x00\n        /* \"#utility.yul\":9921:9925   */\n      0x20\n        /* \"#utility.yul\":9908:9925   */\n      swap1\n      pop\n        /* \"#utility.yul\":9953:9955   */\n      0x1f\n        /* \"#utility.yul\":9945:9951   */\n      dup4\n        /* \"#utility.yul\":9942:9956   */\n      gt\n        /* \"#utility.yul\":9970:9971   */\n      0x01\n        /* \"#utility.yul\":9965:10583   */\n      dup2\n      eq\n      tag_195\n      jumpi\n        /* \"#utility.yul\":10627:10628   */\n      0x00\n        /* \"#utility.yul\":10644:10650   */\n      dup5\n        /* \"#utility.yul\":10641:10718   */\n      iszero\n      tag_196\n      jumpi\n        /* \"#utility.yul\":10693:10702   */\n      dup3\n        /* \"#utility.yul\":10688:10691   */\n      dup8\n        /* \"#utility.yul\":10684:10703   */\n      add\n        /* \"#utility.yul\":10678:10704   */\n      mload\n        /* \"#utility.yul\":10669:10704   */\n      swap1\n      pop\n        /* \"#utility.yul\":10641:10718   */\n    tag_196:\n        /* \"#utility.yul\":10744:10811   */\n      tag_197\n        /* \"#utility.yul\":10804:10810   */\n      dup6\n        /* \"#utility.yul\":10797:10802   */\n      dup3\n        /* \"#utility.yul\":10744:10811   */\n      tag_76\n      jump\t// in\n    tag_197:\n        /* \"#utility.yul\":10738:10742   */\n      dup7\n        /* \"#utility.yul\":10731:10812   */\n      sstore\n        /* \"#utility.yul\":10600:10822   */\n      pop\n        /* \"#utility.yul\":9935:10822   */\n      jump(tag_194)\n        /* \"#utility.yul\":9965:10583   */\n    tag_195:\n        /* \"#utility.yul\":10017:10021   */\n      0x1f\n        /* \"#utility.yul\":10013:10022   */\n      not\n        /* \"#utility.yul\":10005:10011   */\n      dup5\n        /* \"#utility.yul\":10001:10023   */\n      and\n        /* \"#utility.yul\":10051:10088   */\n      tag_198\n        /* \"#utility.yul\":10083:10087   */\n      dup7\n        /* \"#utility.yul\":10051:10088   */\n      tag_62\n      jump\t// in\n    tag_198:\n        /* \"#utility.yul\":10110:10111   */\n      0x00\n        /* \"#utility.yul\":10124:10332   */\n    tag_199:\n        /* \"#utility.yul\":10138:10145   */\n      dup3\n        /* \"#utility.yul\":10135:10136   */\n      dup2\n        /* \"#utility.yul\":10132:10146   */\n      lt\n        /* \"#utility.yul\":10124:10332   */\n      iszero\n      tag_201\n      jumpi\n        /* \"#utility.yul\":10217:10226   */\n      dup5\n        /* \"#utility.yul\":10212:10215   */\n      dup10\n        /* \"#utility.yul\":10208:10227   */\n      add\n        /* \"#utility.yul\":10202:10228   */\n      mload\n        /* \"#utility.yul\":10194:10200   */\n      dup3\n        /* \"#utility.yul\":10187:10229   */\n      sstore\n        /* \"#utility.yul\":10268:10269   */\n      0x01\n        /* \"#utility.yul\":10260:10266   */\n      dup3\n        /* \"#utility.yul\":10256:10270   */\n      add\n        /* \"#utility.yul\":10246:10270   */\n      swap2\n      pop\n        /* \"#utility.yul\":10315:10317   */\n      0x20\n        /* \"#utility.yul\":10304:10313   */\n      dup6\n        /* \"#utility.yul\":10300:10318   */\n      add\n        /* \"#utility.yul\":10287:10318   */\n      swap5\n      pop\n        /* \"#utility.yul\":10161:10165   */\n      0x20\n        /* \"#utility.yul\":10158:10159   */\n      dup2\n        /* \"#utility.yul\":10154:10166   */\n      add\n        /* \"#utility.yul\":10149:10166   */\n      swap1\n      pop\n        /* \"#utility.yul\":10124:10332   */\n      jump(tag_199)\n    tag_201:\n        /* \"#utility.yul\":10360:10366   */\n      dup7\n        /* \"#utility.yul\":10351:10358   */\n      dup4\n        /* \"#utility.yul\":10348:10367   */\n      lt\n        /* \"#utility.yul\":10345:10524   */\n      iszero\n      tag_202\n      jumpi\n        /* \"#utility.yul\":10418:10427   */\n      dup5\n        /* \"#utility.yul\":10413:10416   */\n      dup10\n        /* \"#utility.yul\":10409:10428   */\n      add\n        /* \"#utility.yul\":10403:10429   */\n      mload\n        /* \"#utility.yul\":10461:10509   */\n      tag_203\n        /* \"#utility.yul\":10503:10507   */\n      0x1f\n        /* \"#utility.yul\":10495:10501   */\n      dup10\n        /* \"#utility.yul\":10491:10508   */\n      and\n        /* \"#utility.yul\":10480:10489   */\n      dup3\n        /* \"#utility.yul\":10461:10509   */\n      tag_75\n      jump\t// in\n    tag_203:\n        /* \"#utility.yul\":10453:10459   */\n      dup4\n        /* \"#utility.yul\":10446:10510   */\n      sstore\n        /* \"#utility.yul\":10368:10524   */\n      pop\n        /* \"#utility.yul\":10345:10524   */\n    tag_202:\n        /* \"#utility.yul\":10570:10571   */\n      0x01\n        /* \"#utility.yul\":10566:10567   */\n      0x02\n        /* \"#utility.yul\":10558:10564   */\n      dup9\n        /* \"#utility.yul\":10554:10568   */\n      mul\n        /* \"#utility.yul\":10550:10572   */\n      add\n        /* \"#utility.yul\":10544:10548   */\n      dup9\n        /* \"#utility.yul\":10537:10573   */\n      sstore\n        /* \"#utility.yul\":9972:10583   */\n      pop\n      pop\n      pop\n        /* \"#utility.yul\":9935:10822   */\n    tag_194:\n      pop\n        /* \"#utility.yul\":9525:10828   */\n      pop\n      pop\n      pop\n        /* \"#utility.yul\":9433:10828   */\n      pop\n      pop\n      jump\t// out\n        /* \"#utility.yul\":10834:11014   */\n    tag_77:\n        /* \"#utility.yul\":10882:10959   */\n      0x4e487b7100000000000000000000000000000000000000000000000000000000\n        /* \"#utility.yul\":10879:10880   */\n      0x00\n        /* \"#utility.yul\":10872:10960   */\n      mstore\n        /* \"#utility.yul\":10979:10983   */\n      0x11\n        /* \"#utility.yul\":10976:10977   */\n      0x04\n        /* \"#utility.yul\":10969:10984   */\n      mstore\n        /* \"#utility.yul\":11003:11007   */\n      0x24\n        /* \"#utility.yul\":11000:11001   */\n      0x00\n        /* \"#utility.yul\":10993:11008   */\n      revert\n        /* \"#utility.yul\":11020:11211   */\n    tag_39:\n        /* \"#utility.yul\":11060:11063   */\n      0x00\n        /* \"#utility.yul\":11079:11099   */\n      tag_206\n        /* \"#utility.yul\":11097:11098   */\n      dup3\n        /* \"#utility.yul\":11079:11099   */\n      tag_53\n      jump\t// in\n    tag_206:\n        /* \"#utility.yul\":11074:11099   */\n      swap2\n      pop\n        /* \"#utility.yul\":11113:11133   */\n      tag_207\n        /* \"#utility.yul\":11131:11132   */\n      dup4\n        /* \"#utility.yul\":11113:11133   */\n      tag_53\n      jump\t// in\n    tag_207:\n        /* \"#utility.yul\":11108:11133   */\n      swap3\n      pop\n        /* \"#utility.yul\":11156:11157   */\n      dup3\n        /* \"#utility.yul\":11153:11154   */\n      dup3\n        /* \"#utility.yul\":11149:11158   */\n      add\n        /* \"#utility.yul\":11142:11158   */\n      swap1\n      pop\n        /* \"#utility.yul\":11177:11180   */\n      dup1\n        /* \"#utility.yul\":11174:11175   */\n      dup3\n        /* \"#utility.yul\":11171:11181   */\n      gt\n        /* \"#utility.yul\":11168:11204   */\n      iszero\n      tag_208\n      jumpi\n        /* \"#utility.yul\":11184:11202   */\n      tag_209\n      tag_77\n      jump\t// in\n    tag_209:\n        /* \"#utility.yul\":11168:11204   */\n    tag_208:\n        /* \"#utility.yul\":11020:11211   */\n      swap3\n      swap2\n      pop\n      pop\n      jump\t// out\n\n    auxdata: 0xa264697066735822122020add73cdc1d9678ccf8fb12b12f76f78ab9a15e138a2814330e8ebc798f808064736f6c63430008160033\n}\n",
				"bytecode": {
					"linkReferences": {},
					"object": "60806040525f8055348015610012575f80fd5b506108d6806100205f395ff3fe608060405234801561000f575f80fd5b506004361061003f575f3560e01c806322f5b58d14610043578063267c68e01461005f5780639e7a13ad1461007d575b5f80fd5b61005d600480360381019061005891906103be565b6100af565b005b610067610120565b604051610074919061044c565b60405180910390f35b6100976004803603810190610092919061048f565b610125565b6040516100a693929190610534565b60405180910390f35b6100b7610257565b60405180606001604052805f5481526020018381526020018281525060015f805481526020019081526020015f205f820151815f015560208201518160010190816101029190610771565b5060408201518160020190816101189190610771565b509050505050565b5f5481565b6001602052805f5260405f205f91509050805f01549080600101805461014a906105a4565b80601f0160208091040260200160405190810160405280929190818152602001828054610176906105a4565b80156101c15780601f10610198576101008083540402835291602001916101c1565b820191905f5260205f20905b8154815290600101906020018083116101a457829003601f168201915b5050505050908060020180546101d6906105a4565b80601f0160208091040260200160405190810160405280929190818152602001828054610202906105a4565b801561024d5780601f106102245761010080835404028352916020019161024d565b820191905f5260205f20905b81548152906001019060200180831161023057829003601f168201915b5050505050905083565b60015f80828254610268919061086d565b92505081905550565b5f604051905090565b5f80fd5b5f80fd5b5f80fd5b5f80fd5b5f601f19601f8301169050919050565b7f4e487b71000000000000000000000000000000000000000000000000000000005f52604160045260245ffd5b6102d08261028a565b810181811067ffffffffffffffff821117156102ef576102ee61029a565b5b80604052505050565b5f610301610271565b905061030d82826102c7565b919050565b5f67ffffffffffffffff82111561032c5761032b61029a565b5b6103358261028a565b9050602081019050919050565b828183375f83830152505050565b5f61036261035d84610312565b6102f8565b90508281526020810184848401111561037e5761037d610286565b5b610389848285610342565b509392505050565b5f82601f8301126103a5576103a4610282565b5b81356103b5848260208601610350565b91505092915050565b5f80604083850312156103d4576103d361027a565b5b5f83013567ffffffffffffffff8111156103f1576103f061027e565b5b6103fd85828601610391565b925050602083013567ffffffffffffffff81111561041e5761041d61027e565b5b61042a85828601610391565b9150509250929050565b5f819050919050565b61044681610434565b82525050565b5f60208201905061045f5f83018461043d565b92915050565b61046e81610434565b8114610478575f80fd5b50565b5f8135905061048981610465565b92915050565b5f602082840312156104a4576104a361027a565b5b5f6104b18482850161047b565b91505092915050565b5f81519050919050565b5f82825260208201905092915050565b5f5b838110156104f15780820151818401526020810190506104d6565b5f8484015250505050565b5f610506826104ba565b61051081856104c4565b93506105208185602086016104d4565b6105298161028a565b840191505092915050565b5f6060820190506105475f83018661043d565b818103602083015261055981856104fc565b9050818103604083015261056d81846104fc565b9050949350505050565b7f4e487b71000000000000000000000000000000000000000000000000000000005f52602260045260245ffd5b5f60028204905060018216806105bb57607f821691505b6020821081036105ce576105cd610577565b5b50919050565b5f819050815f5260205f209050919050565b5f6020601f8301049050919050565b5f82821b905092915050565b5f600883026106307fffffffffffffffffffffffffffffffffffffffffffffffffffffffffffffffff826105f5565b61063a86836105f5565b95508019841693508086168417925050509392505050565b5f819050919050565b5f61067561067061066b84610434565b610652565b610434565b9050919050565b5f819050919050565b61068e8361065b565b6106a261069a8261067c565b848454610601565b825550505050565b5f90565b6106b66106aa565b6106c1818484610685565b505050565b5b818110156106e4576106d95f826106ae565b6001810190506106c7565b5050565b601f821115610729576106fa816105d4565b610703846105e6565b81016020851015610712578190505b61072661071e856105e6565b8301826106c6565b50505b505050565b5f82821c905092915050565b5f6107495f198460080261072e565b1980831691505092915050565b5f610761838361073a565b9150826002028217905092915050565b61077a826104ba565b67ffffffffffffffff8111156107935761079261029a565b5b61079d82546105a4565b6107a88282856106e8565b5f60209050601f8311600181146107d9575f84156107c7578287015190505b6107d18582610756565b865550610838565b601f1984166107e7866105d4565b5f5b8281101561080e578489015182556001820191506020850194506020810190506107e9565b8683101561082b5784890151610827601f89168261073a565b8355505b6001600288020188555050505b505050505050565b7f4e487b71000000000000000000000000000000000000000000000000000000005f52601160045260245ffd5b5f61087782610434565b915061088283610434565b925082820190508082111561089a57610899610840565b5b9291505056fea264697066735822122020add73cdc1d9678ccf8fb12b12f76f78ab9a15e138a2814330e8ebc798f808064736f6c63430008160033",
					"opcodes": "PUSH1 0x80 PUSH1 0x40 MSTORE PUSH0 DUP1 SSTORE CALLVALUE DUP1 ISZERO PUSH2 0x12 JUMPI PUSH0 DUP1 REVERT JUMPDEST POP PUSH2 0x8D6 DUP1 PUSH2 0x20 PUSH0 CODECOPY PUSH0 RETURN INVALID PUSH1 0x80 PUSH1 0x40 MSTORE CALLVALUE DUP1 ISZERO PUSH2 0xF JUMPI PUSH0 DUP1 REVERT JUMPDEST POP PUSH1 0x4 CALLDATASIZE LT PUSH2 0x3F JUMPI PUSH0 CALLDATALOAD PUSH1 0xE0 SHR DUP1 PUSH4 0x22F5B58D EQ PUSH2 0x43 JUMPI DUP1 PUSH4 0x267C68E0 EQ PUSH2 0x5F JUMPI DUP1 PUSH4 0x9E7A13AD EQ PUSH2 0x7D JUMPI JUMPDEST PUSH0 DUP1 REVERT JUMPDEST PUSH2 0x5D PUSH1 0x4 DUP1 CALLDATASIZE SUB DUP2 ADD SWAP1 PUSH2 0x58 SWAP2 SWAP1 PUSH2 0x3BE JUMP JUMPDEST PUSH2 0xAF JUMP JUMPDEST STOP JUMPDEST PUSH2 0x67 PUSH2 0x120 JUMP JUMPDEST PUSH1 0x40 MLOAD PUSH2 0x74 SWAP2 SWAP1 PUSH2 0x44C JUMP JUMPDEST PUSH1 0x40 MLOAD DUP1 SWAP2 SUB SWAP1 RETURN JUMPDEST PUSH2 0x97 PUSH1 0x4 DUP1 CALLDATASIZE SUB DUP2 ADD SWAP1 PUSH2 0x92 SWAP2 SWAP1 PUSH2 0x48F JUMP JUMPDEST PUSH2 0x125 JUMP JUMPDEST PUSH1 0x40 MLOAD PUSH2 0xA6 SWAP4 SWAP3 SWAP2 SWAP1 PUSH2 0x534 JUMP JUMPDEST PUSH1 0x40 MLOAD DUP1 SWAP2 SUB SWAP1 RETURN JUMPDEST PUSH2 0xB7 PUSH2 0x257 JUMP JUMPDEST PUSH1 0x40 MLOAD DUP1 PUSH1 0x60 ADD PUSH1 0x40 MSTORE DUP1 PUSH0 SLOAD DUP2 MSTORE PUSH1 0x20 ADD DUP4 DUP2 MSTORE PUSH1 0x20 ADD DUP3 DUP2 MSTORE POP PUSH1 0x1 PUSH0 DUP1 SLOAD DUP2 MSTORE PUSH1 0x20 ADD SWAP1 DUP2 MSTORE PUSH1 0x20 ADD PUSH0 KECCAK256 PUSH0 DUP3 ADD MLOAD DUP2 PUSH0 ADD SSTORE PUSH1 0x20 DUP3 ADD MLOAD DUP2 PUSH1 0x1 ADD SWAP1 DUP2 PUSH2 0x102 SWAP2 SWAP1 PUSH2 0x771 JUMP JUMPDEST POP PUSH1 0x40 DUP3 ADD MLOAD DUP2 PUSH1 0x2 ADD SWAP1 DUP2 PUSH2 0x118 SWAP2 SWAP1 PUSH2 0x771 JUMP JUMPDEST POP SWAP1 POP POP POP POP JUMP JUMPDEST PUSH0 SLOAD DUP2 JUMP JUMPDEST PUSH1 0x1 PUSH1 0x20 MSTORE DUP1 PUSH0 MSTORE PUSH1 0x40 PUSH0 KECCAK256 PUSH0 SWAP2 POP SWAP1 POP DUP1 PUSH0 ADD SLOAD SWAP1 DUP1 PUSH1 0x1 ADD DUP1 SLOAD PUSH2 0x14A SWAP1 PUSH2 0x5A4 JUMP JUMPDEST DUP1 PUSH1 0x1F ADD PUSH1 0x20 DUP1 SWAP2 DIV MUL PUSH1 0x20 ADD PUSH1 0x40 MLOAD SWAP1 DUP2 ADD PUSH1 0x40 MSTORE DUP1 SWAP3 SWAP2 SWAP1 DUP2 DUP2 MSTORE PUSH1 0x20 ADD DUP3 DUP1 SLOAD PUSH2 0x176 SWAP1 PUSH2 0x5A4 JUMP JUMPDEST DUP1 ISZERO PUSH2 0x1C1 JUMPI DUP1 PUSH1 0x1F LT PUSH2 0x198 JUMPI PUSH2 0x100 DUP1 DUP4 SLOAD DIV MUL DUP4 MSTORE SWAP2 PUSH1 0x20 ADD SWAP2 PUSH2 0x1C1 JUMP JUMPDEST DUP3 ADD SWAP2 SWAP1 PUSH0 MSTORE PUSH1 0x20 PUSH0 KECCAK256 SWAP1 JUMPDEST DUP2 SLOAD DUP2 MSTORE SWAP1 PUSH1 0x1 ADD SWAP1 PUSH1 0x20 ADD DUP1 DUP4 GT PUSH2 0x1A4 JUMPI DUP3 SWAP1 SUB PUSH1 0x1F AND DUP3 ADD SWAP2 JUMPDEST POP POP POP POP POP SWAP1 DUP1 PUSH1 0x2 ADD DUP1 SLOAD PUSH2 0x1D6 SWAP1 PUSH2 0x5A4 JUMP JUMPDEST DUP1 PUSH1 0x1F ADD PUSH1 0x20 DUP1 SWAP2 DIV MUL PUSH1 0x20 ADD PUSH1 0x40 MLOAD SWAP1 DUP2 ADD PUSH1 0x40 MSTORE DUP1 SWAP3 SWAP2 SWAP1 DUP2 DUP2 MSTORE PUSH1 0x20 ADD DUP3 DUP1 SLOAD PUSH2 0x202 SWAP1 PUSH2 0x5A4 JUMP JUMPDEST DUP1 ISZERO PUSH2 0x24D JUMPI DUP1 PUSH1 0x1F LT PUSH2 0x224 JUMPI PUSH2 0x100 DUP1 DUP4 SLOAD DIV MUL DUP4 MSTORE SWAP2 PUSH1 0x20 ADD SWAP2 PUSH2 0x24D JUMP JUMPDEST DUP3 ADD SWAP2 SWAP1 PUSH0 MSTORE PUSH1 0x20 PUSH0 KECCAK256 SWAP1 JUMPDEST DUP2 SLOAD DUP2 MSTORE SWAP1 PUSH1 0x1 ADD SWAP1 PUSH1 0x20 ADD DUP1 DUP4 GT PUSH2 0x230 JUMPI DUP3 SWAP1 SUB PUSH1 0x1F AND DUP3 ADD SWAP2 JUMPDEST POP POP POP POP POP SWAP1 POP DUP4 JUMP JUMPDEST PUSH1 0x1 PUSH0 DUP1 DUP3 DUP3 SLOAD PUSH2 0x268 SWAP2 SWAP1 PUSH2 0x86D JUMP JUMPDEST SWAP3 POP POP DUP2 SWAP1 SSTORE POP JUMP JUMPDEST PUSH0 PUSH1 0x40 MLOAD SWAP1 POP SWAP1 JUMP JUMPDEST PUSH0 DUP1 REVERT JUMPDEST PUSH0 DUP1 REVERT JUMPDEST PUSH0 DUP1 REVERT JUMPDEST PUSH0 DUP1 REVERT JUMPDEST PUSH0 PUSH1 0x1F NOT PUSH1 0x1F DUP4 ADD AND SWAP1 POP SWAP2 SWAP1 POP JUMP JUMPDEST PUSH32 0x4E487B7100000000000000000000000000000000000000000000000000000000 PUSH0 MSTORE PUSH1 0x41 PUSH1 0x4 MSTORE PUSH1 0x24 PUSH0 REVERT JUMPDEST PUSH2 0x2D0 DUP3 PUSH2 0x28A JUMP JUMPDEST DUP2 ADD DUP2 DUP2 LT PUSH8 0xFFFFFFFFFFFFFFFF DUP3 GT OR ISZERO PUSH2 0x2EF JUMPI PUSH2 0x2EE PUSH2 0x29A JUMP JUMPDEST JUMPDEST DUP1 PUSH1 0x40 MSTORE POP POP POP JUMP JUMPDEST PUSH0 PUSH2 0x301 PUSH2 0x271 JUMP JUMPDEST SWAP1 POP PUSH2 0x30D DUP3 DUP3 PUSH2 0x2C7 JUMP JUMPDEST SWAP2 SWAP1 POP JUMP JUMPDEST PUSH0 PUSH8 0xFFFFFFFFFFFFFFFF DUP3 GT ISZERO PUSH2 0x32C JUMPI PUSH2 0x32B PUSH2 0x29A JUMP JUMPDEST JUMPDEST PUSH2 0x335 DUP3 PUSH2 0x28A JUMP JUMPDEST SWAP1 POP PUSH1 0x20 DUP2 ADD SWAP1 POP SWAP2 SWAP1 POP JUMP JUMPDEST DUP3 DUP2 DUP4 CALLDATACOPY PUSH0 DUP4 DUP4 ADD MSTORE POP POP POP JUMP JUMPDEST PUSH0 PUSH2 0x362 PUSH2 0x35D DUP5 PUSH2 0x312 JUMP JUMPDEST PUSH2 0x2F8 JUMP JUMPDEST SWAP1 POP DUP3 DUP2 MSTORE PUSH1 0x20 DUP2 ADD DUP5 DUP5 DUP5 ADD GT ISZERO PUSH2 0x37E JUMPI PUSH2 0x37D PUSH2 0x286 JUMP JUMPDEST JUMPDEST PUSH2 0x389 DUP5 DUP3 DUP6 PUSH2 0x342 JUMP JUMPDEST POP SWAP4 SWAP3 POP POP POP JUMP JUMPDEST PUSH0 DUP3 PUSH1 0x1F DUP4 ADD SLT PUSH2 0x3A5 JUMPI PUSH2 0x3A4 PUSH2 0x282 JUMP JUMPDEST JUMPDEST DUP2 CALLDATALOAD PUSH2 0x3B5 DUP5 DUP3 PUSH1 0x20 DUP7 ADD PUSH2 0x350 JUMP JUMPDEST SWAP2 POP POP SWAP3 SWAP2 POP POP JUMP JUMPDEST PUSH0 DUP1 PUSH1 0x40 DUP4 DUP6 SUB SLT ISZERO PUSH2 0x3D4 JUMPI PUSH2 0x3D3 PUSH2 0x27A JUMP JUMPDEST JUMPDEST PUSH0 DUP4 ADD CALLDATALOAD PUSH8 0xFFFFFFFFFFFFFFFF DUP2 GT ISZERO PUSH2 0x3F1 JUMPI PUSH2 0x3F0 PUSH2 0x27E JUMP JUMPDEST JUMPDEST PUSH2 0x3FD DUP6 DUP3 DUP7 ADD PUSH2 0x391 JUMP JUMPDEST SWAP3 POP POP PUSH1 0x20 DUP4 ADD CALLDATALOAD PUSH8 0xFFFFFFFFFFFFFFFF DUP2 GT ISZERO PUSH2 0x41E JUMPI PUSH2 0x41D PUSH2 0x27E JUMP JUMPDEST JUMPDEST PUSH2 0x42A DUP6 DUP3 DUP7 ADD PUSH2 0x391 JUMP JUMPDEST SWAP2 POP POP SWAP3 POP SWAP3 SWAP1 POP JUMP JUMPDEST PUSH0 DUP2 SWAP1 POP SWAP2 SWAP1 POP JUMP JUMPDEST PUSH2 0x446 DUP2 PUSH2 0x434 JUMP JUMPDEST DUP3 MSTORE POP POP JUMP JUMPDEST PUSH0 PUSH1 0x20 DUP3 ADD SWAP1 POP PUSH2 0x45F PUSH0 DUP4 ADD DUP5 PUSH2 0x43D JUMP JUMPDEST SWAP3 SWAP2 POP POP JUMP JUMPDEST PUSH2 0x46E DUP2 PUSH2 0x434 JUMP JUMPDEST DUP2 EQ PUSH2 0x478 JUMPI PUSH0 DUP1 REVERT JUMPDEST POP JUMP JUMPDEST PUSH0 DUP2 CALLDATALOAD SWAP1 POP PUSH2 0x489 DUP2 PUSH2 0x465 JUMP JUMPDEST SWAP3 SWAP2 POP POP JUMP JUMPDEST PUSH0 PUSH1 0x20 DUP3 DUP5 SUB SLT ISZERO PUSH2 0x4A4 JUMPI PUSH2 0x4A3 PUSH2 0x27A JUMP JUMPDEST JUMPDEST PUSH0 PUSH2 0x4B1 DUP5 DUP3 DUP6 ADD PUSH2 0x47B JUMP JUMPDEST SWAP2 POP POP SWAP3 SWAP2 POP POP JUMP JUMPDEST PUSH0 DUP2 MLOAD SWAP1 POP SWAP2 SWAP1 POP JUMP JUMPDEST PUSH0 DUP3 DUP3 MSTORE PUSH1 0x20 DUP3 ADD SWAP1 POP SWAP3 SWAP2 POP POP JUMP JUMPDEST PUSH0 JUMPDEST DUP4 DUP2 LT ISZERO PUSH2 0x4F1 JUMPI DUP1 DUP3 ADD MLOAD DUP2 DUP5 ADD MSTORE PUSH1 0x20 DUP2 ADD SWAP1 POP PUSH2 0x4D6 JUMP JUMPDEST PUSH0 DUP5 DUP5 ADD MSTORE POP POP POP POP JUMP JUMPDEST PUSH0 PUSH2 0x506 DUP3 PUSH2 0x4BA JUMP JUMPDEST PUSH2 0x510 DUP2 DUP6 PUSH2 0x4C4 JUMP JUMPDEST SWAP4 POP PUSH2 0x520 DUP2 DUP6 PUSH1 0x20 DUP7 ADD PUSH2 0x4D4 JUMP JUMPDEST PUSH2 0x529 DUP2 PUSH2 0x28A JUMP JUMPDEST DUP5 ADD SWAP2 POP POP SWAP3 SWAP2 POP POP JUMP JUMPDEST PUSH0 PUSH1 0x60 DUP3 ADD SWAP1 POP PUSH2 0x547 PUSH0 DUP4 ADD DUP7 PUSH2 0x43D JUMP JUMPDEST DUP2 DUP2 SUB PUSH1 0x20 DUP4 ADD MSTORE PUSH2 0x559 DUP2 DUP6 PUSH2 0x4FC JUMP JUMPDEST SWAP1 POP DUP2 DUP2 SUB PUSH1 0x40 DUP4 ADD MSTORE PUSH2 0x56D DUP2 DUP5 PUSH2 0x4FC JUMP JUMPDEST SWAP1 POP SWAP5 SWAP4 POP POP POP POP JUMP JUMPDEST PUSH32 0x4E487B7100000000000000000000000000000000000000000000000000000000 PUSH0 MSTORE PUSH1 0x22 PUSH1 0x4 MSTORE PUSH1 0x24 PUSH0 REVERT JUMPDEST PUSH0 PUSH1 0x2 DUP3 DIV SWAP1 POP PUSH1 0x1 DUP3 AND DUP1 PUSH2 0x5BB JUMPI PUSH1 0x7F DUP3 AND SWAP2 POP JUMPDEST PUSH1 0x20 DUP3 LT DUP2 SUB PUSH2 0x5CE JUMPI PUSH2 0x5CD PUSH2 0x577 JUMP JUMPDEST JUMPDEST POP SWAP2 SWAP1 POP JUMP JUMPDEST PUSH0 DUP2 SWAP1 POP DUP2 PUSH0 MSTORE PUSH1 0x20 PUSH0 KECCAK256 SWAP1 POP SWAP2 SWAP1 POP JUMP JUMPDEST PUSH0 PUSH1 0x20 PUSH1 0x1F DUP4 ADD DIV SWAP1 POP SWAP2 SWAP1 POP JUMP JUMPDEST PUSH0 DUP3 DUP3 SHL SWAP1 POP SWAP3 SWAP2 POP POP JUMP JUMPDEST PUSH0 PUSH1 0x8 DUP4 MUL PUSH2 0x630 PUSH32 0xFFFFFFFFFFFFFFFFFFFFFFFFFFFFFFFFFFFFFFFFFFFFFFFFFFFFFFFFFFFFFFFF DUP3 PUSH2 0x5F5 JUMP JUMPDEST PUSH2 0x63A DUP7 DUP4 PUSH2 0x5F5 JUMP JUMPDEST SWAP6 POP DUP1 NOT DUP5 AND SWAP4 POP DUP1 DUP7 AND DUP5 OR SWAP3 POP POP POP SWAP4 SWAP3 POP POP POP JUMP JUMPDEST PUSH0 DUP2 SWAP1 POP SWAP2 SWAP1 POP JUMP JUMPDEST PUSH0 PUSH2 0x675 PUSH2 0x670 PUSH2 0x66B DUP5 PUSH2 0x434 JUMP JUMPDEST PUSH2 0x652 JUMP JUMPDEST PUSH2 0x434 JUMP JUMPDEST SWAP1 POP SWAP2 SWAP1 POP JUMP JUMPDEST PUSH0 DUP2 SWAP1 POP SWAP2 SWAP1 POP JUMP JUMPDEST PUSH2 0x68E DUP4 PUSH2 0x65B JUMP JUMPDEST PUSH2 0x6A2 PUSH2 0x69A DUP3 PUSH2 0x67C JUMP JUMPDEST DUP5 DUP5 SLOAD PUSH2 0x601 JUMP JUMPDEST DUP3 SSTORE POP POP POP POP JUMP JUMPDEST PUSH0 SWAP1 JUMP JUMPDEST PUSH2 0x6B6 PUSH2 0x6AA JUMP JUMPDEST PUSH2 0x6C1 DUP2 DUP5 DUP5 PUSH2 0x685 JUMP JUMPDEST POP POP POP JUMP JUMPDEST JUMPDEST DUP2 DUP2 LT ISZERO PUSH2 0x6E4 JUMPI PUSH2 0x6D9 PUSH0 DUP3 PUSH2 0x6AE JUMP JUMPDEST PUSH1 0x1 DUP2 ADD SWAP1 POP PUSH2 0x6C7 JUMP JUMPDEST POP POP JUMP JUMPDEST PUSH1 0x1F DUP3 GT ISZERO PUSH2 0x729 JUMPI PUSH2 0x6FA DUP2 PUSH2 0x5D4 JUMP JUMPDEST PUSH2 0x703 DUP5 PUSH2 0x5E6 JUMP JUMPDEST DUP2 ADD PUSH1 0x20 DUP6 LT ISZERO PUSH2 0x712 JUMPI DUP2 SWAP1 POP JUMPDEST PUSH2 0x726 PUSH2 0x71E DUP6 PUSH2 0x5E6 JUMP JUMPDEST DUP4 ADD DUP3 PUSH2 0x6C6 JUMP JUMPDEST POP POP JUMPDEST POP POP POP JUMP JUMPDEST PUSH0 DUP3 DUP3 SHR SWAP1 POP SWAP3 SWAP2 POP POP JUMP JUMPDEST PUSH0 PUSH2 0x749 PUSH0 NOT DUP5 PUSH1 0x8 MUL PUSH2 0x72E JUMP JUMPDEST NOT DUP1 DUP4 AND SWAP2 POP POP SWAP3 SWAP2 POP POP JUMP JUMPDEST PUSH0 PUSH2 0x761 DUP4 DUP4 PUSH2 0x73A JUMP JUMPDEST SWAP2 POP DUP3 PUSH1 0x2 MUL DUP3 OR SWAP1 POP SWAP3 SWAP2 POP POP JUMP JUMPDEST PUSH2 0x77A DUP3 PUSH2 0x4BA JUMP JUMPDEST PUSH8 0xFFFFFFFFFFFFFFFF DUP2 GT ISZERO PUSH2 0x793 JUMPI PUSH2 0x792 PUSH2 0x29A JUMP JUMPDEST JUMPDEST PUSH2 0x79D DUP3 SLOAD PUSH2 0x5A4 JUMP JUMPDEST PUSH2 0x7A8 DUP3 DUP3 DUP6 PUSH2 0x6E8 JUMP JUMPDEST PUSH0 PUSH1 0x20 SWAP1 POP PUSH1 0x1F DUP4 GT PUSH1 0x1 DUP2 EQ PUSH2 0x7D9 JUMPI PUSH0 DUP5 ISZERO PUSH2 0x7C7 JUMPI DUP3 DUP8 ADD MLOAD SWAP1 POP JUMPDEST PUSH2 0x7D1 DUP6 DUP3 PUSH2 0x756 JUMP JUMPDEST DUP7 SSTORE POP PUSH2 0x838 JUMP JUMPDEST PUSH1 0x1F NOT DUP5 AND PUSH2 0x7E7 DUP7 PUSH2 0x5D4 JUMP JUMPDEST PUSH0 JUMPDEST DUP3 DUP2 LT ISZERO PUSH2 0x80E JUMPI DUP5 DUP10 ADD MLOAD DUP3 SSTORE PUSH1 0x1 DUP3 ADD SWAP2 POP PUSH1 0x20 DUP6 ADD SWAP5 POP PUSH1 0x20 DUP2 ADD SWAP1 POP PUSH2 0x7E9 JUMP JUMPDEST DUP7 DUP4 LT ISZERO PUSH2 0x82B JUMPI DUP5 DUP10 ADD MLOAD PUSH2 0x827 PUSH1 0x1F DUP10 AND DUP3 PUSH2 0x73A JUMP JUMPDEST DUP4 SSTORE POP JUMPDEST PUSH1 0x1 PUSH1 0x2 DUP9 MUL ADD DUP9 SSTORE POP POP POP JUMPDEST POP POP POP POP POP POP JUMP JUMPDEST PUSH32 0x4E487B7100000000000000000000000000000000000000000000000000000000 PUSH0 MSTORE PUSH1 0x11 PUSH1 0x4 MSTORE PUSH1 0x24 PUSH0 REVERT JUMPDEST PUSH0 PUSH2 0x877 DUP3 PUSH2 0x434 JUMP JUMPDEST SWAP2 POP PUSH2 0x882 DUP4 PUSH2 0x434 JUMP JUMPDEST SWAP3 POP DUP3 DUP3 ADD SWAP1 POP DUP1 DUP3 GT ISZERO PUSH2 0x89A JUMPI PUSH2 0x899 PUSH2 0x840 JUMP JUMPDEST JUMPDEST SWAP3 SWAP2 POP POP JUMP INVALID LOG2 PUSH5 0x6970667358 0x22 SLT KECCAK256 KECCAK256 0xAD 0xD7 EXTCODECOPY 0xDC SAR SWAP7 PUSH25 0xCCF8FB12B12F76F78AB9A15E138A2814330E8EBC798F808064 PUSH20 0x6F6C634300081600330000000000000000000000 "
				},
				"gasEstimates": {
					"creation": {
						"codeDepositCost": "452400",
						"executionCost": "5489",
						"totalCost": "457889"
					},
					"external": {
						"addPerson(string,string)": "infinite",
						"people(uint256)": "infinite",
						"peopleCount()": "2424"
					},
					"internal": {
						"incrementCount()": "infinite"
					}
				},
				"methodIdentifiers": {
					"addPerson(string,string)": "22f5b58d",
					"people(uint256)": "9e7a13ad",
					"peopleCount()": "267c68e0"
				}
			},
			"storageLayout": {
				"storage": [
					{
						"astId": 4,
						"contract": "Practical7/prac7_9structDemo2.sol:MyContract",
						"label": "peopleCount",
						"offset": 0,
						"slot": "0",
						"type": "t_uint256"
					},
					{
						"astId": 9,
						"contract": "Practical7/prac7_9structDemo2.sol:MyContract",
						"label": "people",
						"offset": 0,
						"slot": "1",
						"type": "t_mapping(t_uint256,t_struct(Person)16_storage)"
					}
				],
				"types": {
					"t_mapping(t_uint256,t_struct(Person)16_storage)": {
						"encoding": "mapping",
						"key": "t_uint256",
						"label": "mapping(uint256 => struct MyContract.Person)",
						"numberOfBytes": "32",
						"value": "t_struct(Person)16_storage"
					},
					"t_string_storage": {
						"encoding": "bytes",
						"label": "string",
						"numberOfBytes": "32"
					},
					"t_struct(Person)16_storage": {
						"encoding": "inplace",
						"label": "struct MyContract.Person",
						"members": [
							{
								"astId": 11,
								"contract": "Practical7/prac7_9structDemo2.sol:MyContract",
								"label": "_id",
								"offset": 0,
								"slot": "0",
								"type": "t_uint256"
							},
							{
								"astId": 13,
								"contract": "Practical7/prac7_9structDemo2.sol:MyContract",
								"label": "_firstName",
								"offset": 0,
								"slot": "1",
								"type": "t_string_storage"
							},
							{
								"astId": 15,
								"contract": "Practical7/prac7_9structDemo2.sol:MyContract",
								"label": "_lastName",
								"offset": 0,
								"slot": "2",
								"type": "t_string_storage"
							}
						],
						"numberOfBytes": "96"
					},
					"t_uint256": {
						"encoding": "inplace",
						"label": "uint256",
						"numberOfBytes": "32"
					}
				}
			},
			"userdoc": {
				"kind": "user",
				"methods": {},
				"version": 1
			}
		}
	}
}