{
	"Practical7/prac7_10structDemo3.sol": {
		"MyContract": {
			"abi": [
				{
					"inputs": [],
					"stateMutability": "nonpayable",
					"type": "constructor"
				},
				{
					"inputs": [
						{
							"internalType": "string",
							"name": "_firstName",
							"type": "string"
						},
						{
							"internalType": "string",
							"name": "_lastName",
							"type": "string"
						}
					],
					"name": "addPerson",
					"outputs": [],
					"stateMutability": "nonpayable",
					"type": "function"
				},
				{
					"inputs": [],
					"name": "owner",
					"outputs": [
						{
							"internalType": "address",
							"name": "",
							"type": "address"
						}
					],
					"stateMutability": "view",
					"type": "function"
				},
				{
					"inputs": [
						{
							"internalType": "uint256",
							"name": "",
							"type": "uint256"
						}
					],
					"name": "people",
					"outputs": [
						{
							"internalType": "uint256",
							"name": "_id",
							"type": "uint256"
						},
						{
							"internalType": "string",
							"name": "_firstName",
							"type": "string"
						},
						{
							"internalType": "string",
							"name": "_lastName",
							"type": "string"
						}
					],
					"stateMutability": "view",
					"type": "function"
				},
				{
					"inputs": [],
					"name": "peopleCount",
					"outputs": [
						{
							"internalType": "uint256",
							"name": "",
							"type": "uint256"
						}
					],
					"stateMutability": "view",
					"type": "function"
				}
			],
			"devdoc": {
				"kind": "dev",
				"methods": {},
				"version": 1
			},
			"evm": {
				"assembly": "    /* \"Practical7/prac7_10structDemo3.sol\":28:705  contract MyContract {... */\n  mstore(0x40, 0x80)\n    /* \"Practical7/prac7_10structDemo3.sol\":86:87  0 */\n  0x00\n    /* \"Practical7/prac7_10structDemo3.sol\":57:87  uint256 public peopleCount = 0 */\n  dup1\n  sstore\n    /* \"Practical7/prac7_10structDemo3.sol\":252:308  constructor() public {... */\n  callvalue\n  dup1\n  iszero\n  tag_1\n  jumpi\n  0x00\n  dup1\n  revert\ntag_1:\n  pop\n    /* \"Practical7/prac7_10structDemo3.sol\":290:300  msg.sender */\n  caller\n    /* \"Practical7/prac7_10structDemo3.sol\":284:289  owner */\n  0x01\n  0x00\n    /* \"Practical7/prac7_10structDemo3.sol\":284:300  owner=msg.sender */\n  0x0100\n  exp\n  dup2\n  sload\n  dup2\n  0xffffffffffffffffffffffffffffffffffffffff\n  mul\n  not\n  and\n  swap1\n  dup4\n  0xffffffffffffffffffffffffffffffffffffffff\n  and\n  mul\n  or\n  swap1\n  sstore\n  pop\n    /* \"Practical7/prac7_10structDemo3.sol\":28:705  contract MyContract {... */\n  dataSize(sub_0)\n  dup1\n  dataOffset(sub_0)\n  0x00\n  codecopy\n  0x00\n  return\nstop\n\nsub_0: assembly {\n        /* \"Practical7/prac7_10structDemo3.sol\":28:705  contract MyContract {... */\n      mstore(0x40, 0x80)\n      callvalue\n      dup1\n      iszero\n      tag_1\n      jumpi\n      0x00\n      dup1\n      revert\n    tag_1:\n      pop\n      jumpi(tag_2, lt(calldatasize, 0x04))\n      shr(0xe0, calldataload(0x00))\n      dup1\n      0x22f5b58d\n      eq\n      tag_3\n      jumpi\n      dup1\n      0x267c68e0\n      eq\n      tag_4\n      jumpi\n      dup1\n      0x8da5cb5b\n      eq\n      tag_5\n      jumpi\n      dup1\n      0x9e7a13ad\n      eq\n      tag_6\n      jumpi\n    tag_2:\n      0x00\n      dup1\n      revert\n        /* \"Practical7/prac7_10structDemo3.sol\":428:624  function addPerson(string memory _firstName, string memory _lastName) public onlyOwner{... */\n    tag_3:\n      tag_7\n      0x04\n      dup1\n      calldatasize\n      sub\n      dup2\n      add\n      swap1\n      tag_8\n      swap2\n      swap1\n      tag_9\n      jump\t// in\n    tag_8:\n      tag_10\n      jump\t// in\n    tag_7:\n      stop\n        /* \"Practical7/prac7_10structDemo3.sol\":57:87  uint256 public peopleCount = 0 */\n    tag_4:\n      tag_11\n      tag_12\n      jump\t// in\n    tag_11:\n      mload(0x40)\n      tag_13\n      swap2\n      swap1\n      tag_14\n      jump\t// in\n    tag_13:\n      mload(0x40)\n      dup1\n      swap2\n      sub\n      swap1\n      return\n        /* \"Practical7/prac7_10structDemo3.sol\":94:114  address public owner */\n    tag_5:\n      tag_15\n      tag_16\n      jump\t// in\n    tag_15:\n      mload(0x40)\n      tag_17\n      swap2\n      swap1\n      tag_18\n      jump\t// in\n    tag_17:\n      mload(0x40)\n      dup1\n      swap2\n      sub\n      swap1\n      return\n        /* \"Practical7/prac7_10structDemo3.sol\":208:245  mapping(uint => Person) public people */\n    tag_6:\n      tag_19\n      0x04\n      dup1\n      calldatasize\n      sub\n      dup2\n      add\n      swap1\n      tag_20\n      swap2\n      swap1\n      tag_21\n      jump\t// in\n    tag_20:\n      tag_22\n      jump\t// in\n    tag_19:\n      mload(0x40)\n      tag_23\n      swap4\n      swap3\n      swap2\n      swap1\n      tag_24\n      jump\t// in\n    tag_23:\n      mload(0x40)\n      dup1\n      swap2\n      sub\n      swap1\n      return\n        /* \"Practical7/prac7_10structDemo3.sol\":428:624  function addPerson(string memory _firstName, string memory _lastName) public onlyOwner{... */\n    tag_10:\n        /* \"Practical7/prac7_10structDemo3.sol\":174:179  owner */\n      0x01\n      0x00\n      swap1\n      sload\n      swap1\n      0x0100\n      exp\n      swap1\n      div\n      0xffffffffffffffffffffffffffffffffffffffff\n      and\n        /* \"Practical7/prac7_10structDemo3.sol\":160:179  msg.sender == owner */\n      0xffffffffffffffffffffffffffffffffffffffff\n      and\n        /* \"Practical7/prac7_10structDemo3.sol\":160:170  msg.sender */\n      caller\n        /* \"Practical7/prac7_10structDemo3.sol\":160:179  msg.sender == owner */\n      0xffffffffffffffffffffffffffffffffffffffff\n      and\n      eq\n        /* \"Practical7/prac7_10structDemo3.sol\":152:180  require(msg.sender == owner) */\n      tag_26\n      jumpi\n      0x00\n      dup1\n      revert\n    tag_26:\n        /* \"Practical7/prac7_10structDemo3.sol\":525:541  incrementCount() */\n      tag_28\n        /* \"Practical7/prac7_10structDemo3.sol\":525:539  incrementCount */\n      tag_29\n        /* \"Practical7/prac7_10structDemo3.sol\":525:541  incrementCount() */\n      jump\t// in\n    tag_28:\n        /* \"Practical7/prac7_10structDemo3.sol\":574:616  Person(peopleCount, _firstName, _lastName) */\n      mload(0x40)\n      dup1\n      0x60\n      add\n      0x40\n      mstore\n      dup1\n        /* \"Practical7/prac7_10structDemo3.sol\":581:592  peopleCount */\n      sload(0x00)\n        /* \"Practical7/prac7_10structDemo3.sol\":574:616  Person(peopleCount, _firstName, _lastName) */\n      dup2\n      mstore\n      0x20\n      add\n        /* \"Practical7/prac7_10structDemo3.sol\":594:604  _firstName */\n      dup4\n        /* \"Practical7/prac7_10structDemo3.sol\":574:616  Person(peopleCount, _firstName, _lastName) */\n      dup2\n      mstore\n      0x20\n      add\n        /* \"Practical7/prac7_10structDemo3.sol\":606:615  _lastName */\n      dup3\n        /* \"Practical7/prac7_10structDemo3.sol\":574:616  Person(peopleCount, _firstName, _lastName) */\n      dup2\n      mstore\n      pop\n        /* \"Practical7/prac7_10structDemo3.sol\":552:558  people */\n      0x02\n        /* \"Practical7/prac7_10structDemo3.sol\":552:571  people[peopleCount] */\n      0x00\n        /* \"Practical7/prac7_10structDemo3.sol\":559:570  peopleCount */\n      dup1\n      sload\n        /* \"Practical7/prac7_10structDemo3.sol\":552:571  people[peopleCount] */\n      dup2\n      mstore\n      0x20\n      add\n      swap1\n      dup2\n      mstore\n      0x20\n      add\n      0x00\n      keccak256\n        /* \"Practical7/prac7_10structDemo3.sol\":552:616  people[peopleCount] = Person(peopleCount, _firstName, _lastName) */\n      0x00\n      dup3\n      add\n      mload\n      dup2\n      0x00\n      add\n      sstore\n      0x20\n      dup3\n      add\n      mload\n      dup2\n      0x01\n      add\n      swap1\n      dup2\n      tag_30\n      swap2\n      swap1\n      tag_31\n      jump\t// in\n    tag_30:\n      pop\n      0x40\n      dup3\n      add\n      mload\n      dup2\n      0x02\n      add\n      swap1\n      dup2\n      tag_32\n      swap2\n      swap1\n      tag_31\n      jump\t// in\n    tag_32:\n      pop\n      swap1\n      pop\n      pop\n        /* \"Practical7/prac7_10structDemo3.sol\":428:624  function addPerson(string memory _firstName, string memory _lastName) public onlyOwner{... */\n      pop\n      pop\n      jump\t// out\n        /* \"Practical7/prac7_10structDemo3.sol\":57:87  uint256 public peopleCount = 0 */\n    tag_12:\n      sload(0x00)\n      dup2\n      jump\t// out\n        /* \"Practical7/prac7_10structDemo3.sol\":94:114  address public owner */\n    tag_16:\n      0x01\n      0x00\n      swap1\n      sload\n      swap1\n      0x0100\n      exp\n      swap1\n      div\n      0xffffffffffffffffffffffffffffffffffffffff\n      and\n      dup2\n      jump\t// out\n        /* \"Practical7/prac7_10structDemo3.sol\":208:245  mapping(uint => Person) public people */\n    tag_22:\n      mstore(0x20, 0x02)\n      dup1\n      0x00\n      mstore\n      keccak256(0x00, 0x40)\n      0x00\n      swap2\n      pop\n      swap1\n      pop\n      dup1\n      0x00\n      add\n      sload\n      swap1\n      dup1\n      0x01\n      add\n      dup1\n      sload\n      tag_33\n      swap1\n      tag_34\n      jump\t// in\n    tag_33:\n      dup1\n      0x1f\n      add\n      0x20\n      dup1\n      swap2\n      div\n      mul\n      0x20\n      add\n      mload(0x40)\n      swap1\n      dup2\n      add\n      0x40\n      mstore\n      dup1\n      swap3\n      swap2\n      swap1\n      dup2\n      dup2\n      mstore\n      0x20\n      add\n      dup3\n      dup1\n      sload\n      tag_35\n      swap1\n      tag_34\n      jump\t// in\n    tag_35:\n      dup1\n      iszero\n      tag_36\n      jumpi\n      dup1\n      0x1f\n      lt\n      tag_37\n      jumpi\n      0x0100\n      dup1\n      dup4\n      sload\n      div\n      mul\n      dup4\n      mstore\n      swap2\n      0x20\n      add\n      swap2\n      jump(tag_36)\n    tag_37:\n      dup3\n      add\n      swap2\n      swap1\n      0x00\n      mstore\n      keccak256(0x00, 0x20)\n      swap1\n    tag_38:\n      dup2\n      sload\n      dup2\n      mstore\n      swap1\n      0x01\n      add\n      swap1\n      0x20\n      add\n      dup1\n      dup4\n      gt\n      tag_38\n      jumpi\n      dup3\n      swap1\n      sub\n      0x1f\n      and\n      dup3\n      add\n      swap2\n    tag_36:\n      pop\n      pop\n      pop\n      pop\n      pop\n      swap1\n      dup1\n      0x02\n      add\n      dup1\n      sload\n      tag_39\n      swap1\n      tag_34\n      jump\t// in\n    tag_39:\n      dup1\n      0x1f\n      add\n      0x20\n      dup1\n      swap2\n      div\n      mul\n      0x20\n      add\n      mload(0x40)\n      swap1\n      dup2\n      add\n      0x40\n      mstore\n      dup1\n      swap3\n      swap2\n      swap1\n      dup2\n      dup2\n      mstore\n      0x20\n      add\n      dup3\n      dup1\n      sload\n      tag_40\n      swap1\n      tag_34\n      jump\t// in\n    tag_40:\n      dup1\n      iszero\n      tag_41\n      jumpi\n      dup1\n      0x1f\n      lt\n      tag_42\n      jumpi\n      0x0100\n      dup1\n      dup4\n      sload\n      div\n      mul\n      dup4\n      mstore\n      swap2\n      0x20\n      add\n      swap2\n      jump(tag_41)\n    tag_42:\n      dup3\n      add\n      swap2\n      swap1\n      0x00\n      mstore\n      keccak256(0x00, 0x20)\n      swap1\n    tag_43:\n      dup2\n      sload\n      dup2\n      mstore\n      swap1\n      0x01\n      add\n      swap1\n      0x20\n      add\n      dup1\n      dup4\n      gt\n      tag_43\n      jumpi\n      dup3\n      swap1\n      sub\n      0x1f\n      and\n      dup3\n      add\n      swap2\n    tag_41:\n      pop\n      pop\n      pop\n      pop\n      pop\n      swap1\n      pop\n      dup4\n      jump\t// out\n        /* \"Practical7/prac7_10structDemo3.sol\":632:702  function incrementCount() internal {... */\n    tag_29:\n        /* \"Practical7/prac7_10structDemo3.sol\":693:694  1 */\n      0x01\n        /* \"Practical7/prac7_10structDemo3.sol\":678:689  peopleCount */\n      0x00\n      dup1\n        /* \"Practical7/prac7_10structDemo3.sol\":678:694  peopleCount += 1 */\n      dup3\n      dup3\n      sload\n      tag_45\n      swap2\n      swap1\n      tag_46\n      jump\t// in\n    tag_45:\n      swap3\n      pop\n      pop\n      dup2\n      swap1\n      sstore\n      pop\n        /* \"Practical7/prac7_10structDemo3.sol\":632:702  function incrementCount() internal {... */\n      jump\t// out\n        /* \"#utility.yul\":7:82   */\n    tag_47:\n        /* \"#utility.yul\":40:46   */\n      0x00\n        /* \"#utility.yul\":73:75   */\n      0x40\n        /* \"#utility.yul\":67:76   */\n      mload\n        /* \"#utility.yul\":57:76   */\n      swap1\n      pop\n        /* \"#utility.yul\":7:82   */\n      swap1\n      jump\t// out\n        /* \"#utility.yul\":88:205   */\n    tag_48:\n        /* \"#utility.yul\":197:198   */\n      0x00\n        /* \"#utility.yul\":194:195   */\n      dup1\n        /* \"#utility.yul\":187:199   */\n      revert\n        /* \"#utility.yul\":211:328   */\n    tag_49:\n        /* \"#utility.yul\":320:321   */\n      0x00\n        /* \"#utility.yul\":317:318   */\n      dup1\n        /* \"#utility.yul\":310:322   */\n      revert\n        /* \"#utility.yul\":334:451   */\n    tag_50:\n        /* \"#utility.yul\":443:444   */\n      0x00\n        /* \"#utility.yul\":440:441   */\n      dup1\n        /* \"#utility.yul\":433:445   */\n      revert\n        /* \"#utility.yul\":457:574   */\n    tag_51:\n        /* \"#utility.yul\":566:567   */\n      0x00\n        /* \"#utility.yul\":563:564   */\n      dup1\n        /* \"#utility.yul\":556:568   */\n      revert\n        /* \"#utility.yul\":580:682   */\n    tag_52:\n        /* \"#utility.yul\":621:627   */\n      0x00\n        /* \"#utility.yul\":672:674   */\n      0x1f\n        /* \"#utility.yul\":668:675   */\n      not\n        /* \"#utility.yul\":663:665   */\n      0x1f\n        /* \"#utility.yul\":656:661   */\n      dup4\n        /* \"#utility.yul\":652:666   */\n      add\n        /* \"#utility.yul\":648:676   */\n      and\n        /* \"#utility.yul\":638:676   */\n      swap1\n      pop\n        /* \"#utility.yul\":580:682   */\n      swap2\n      swap1\n      pop\n      jump\t// out\n        /* \"#utility.yul\":688:868   */\n    tag_53:\n        /* \"#utility.yul\":736:813   */\n      0x4e487b7100000000000000000000000000000000000000000000000000000000\n        /* \"#utility.yul\":733:734   */\n      0x00\n        /* \"#utility.yul\":726:814   */\n      mstore\n        /* \"#utility.yul\":833:837   */\n      0x41\n        /* \"#utility.yul\":830:831   */\n      0x04\n        /* \"#utility.yul\":823:838   */\n      mstore\n        /* \"#utility.yul\":857:861   */\n      0x24\n        /* \"#utility.yul\":854:855   */\n      0x00\n        /* \"#utility.yul\":847:862   */\n      revert\n        /* \"#utility.yul\":874:1155   */\n    tag_54:\n        /* \"#utility.yul\":957:984   */\n      tag_97\n        /* \"#utility.yul\":979:983   */\n      dup3\n        /* \"#utility.yul\":957:984   */\n      tag_52\n      jump\t// in\n    tag_97:\n        /* \"#utility.yul\":949:955   */\n      dup2\n        /* \"#utility.yul\":945:985   */\n      add\n        /* \"#utility.yul\":1087:1093   */\n      dup2\n        /* \"#utility.yul\":1075:1085   */\n      dup2\n        /* \"#utility.yul\":1072:1094   */\n      lt\n        /* \"#utility.yul\":1051:1069   */\n      0xffffffffffffffff\n        /* \"#utility.yul\":1039:1049   */\n      dup3\n        /* \"#utility.yul\":1036:1070   */\n      gt\n        /* \"#utility.yul\":1033:1095   */\n      or\n        /* \"#utility.yul\":1030:1118   */\n      iszero\n      tag_98\n      jumpi\n        /* \"#utility.yul\":1098:1116   */\n      tag_99\n      tag_53\n      jump\t// in\n    tag_99:\n        /* \"#utility.yul\":1030:1118   */\n    tag_98:\n        /* \"#utility.yul\":1138:1148   */\n      dup1\n        /* \"#utility.yul\":1134:1136   */\n      0x40\n        /* \"#utility.yul\":1127:1149   */\n      mstore\n        /* \"#utility.yul\":917:1155   */\n      pop\n        /* \"#utility.yul\":874:1155   */\n      pop\n      pop\n      jump\t// out\n        /* \"#utility.yul\":1161:1290   */\n    tag_55:\n        /* \"#utility.yul\":1195:1201   */\n      0x00\n        /* \"#utility.yul\":1222:1242   */\n      tag_101\n      tag_47\n      jump\t// in\n    tag_101:\n        /* \"#utility.yul\":1212:1242   */\n      swap1\n      pop\n        /* \"#utility.yul\":1251:1284   */\n      tag_102\n        /* \"#utility.yul\":1279:1283   */\n      dup3\n        /* \"#utility.yul\":1271:1277   */\n      dup3\n        /* \"#utility.yul\":1251:1284   */\n      tag_54\n      jump\t// in\n    tag_102:\n        /* \"#utility.yul\":1161:1290   */\n      swap2\n      swap1\n      pop\n      jump\t// out\n        /* \"#utility.yul\":1296:1604   */\n    tag_56:\n        /* \"#utility.yul\":1358:1362   */\n      0x00\n        /* \"#utility.yul\":1448:1466   */\n      0xffffffffffffffff\n        /* \"#utility.yul\":1440:1446   */\n      dup3\n        /* \"#utility.yul\":1437:1467   */\n      gt\n        /* \"#utility.yul\":1434:1490   */\n      iszero\n      tag_104\n      jumpi\n        /* \"#utility.yul\":1470:1488   */\n      tag_105\n      tag_53\n      jump\t// in\n    tag_105:\n        /* \"#utility.yul\":1434:1490   */\n    tag_104:\n        /* \"#utility.yul\":1508:1537   */\n      tag_106\n        /* \"#utility.yul\":1530:1536   */\n      dup3\n        /* \"#utility.yul\":1508:1537   */\n      tag_52\n      jump\t// in\n    tag_106:\n        /* \"#utility.yul\":1500:1537   */\n      swap1\n      pop\n        /* \"#utility.yul\":1592:1596   */\n      0x20\n        /* \"#utility.yul\":1586:1590   */\n      dup2\n        /* \"#utility.yul\":1582:1597   */\n      add\n        /* \"#utility.yul\":1574:1597   */\n      swap1\n      pop\n        /* \"#utility.yul\":1296:1604   */\n      swap2\n      swap1\n      pop\n      jump\t// out\n        /* \"#utility.yul\":1610:1756   */\n    tag_57:\n        /* \"#utility.yul\":1707:1713   */\n      dup3\n        /* \"#utility.yul\":1702:1705   */\n      dup2\n        /* \"#utility.yul\":1697:1700   */\n      dup4\n        /* \"#utility.yul\":1684:1714   */\n      calldatacopy\n        /* \"#utility.yul\":1748:1749   */\n      0x00\n        /* \"#utility.yul\":1739:1745   */\n      dup4\n        /* \"#utility.yul\":1734:1737   */\n      dup4\n        /* \"#utility.yul\":1730:1746   */\n      add\n        /* \"#utility.yul\":1723:1750   */\n      mstore\n        /* \"#utility.yul\":1610:1756   */\n      pop\n      pop\n      pop\n      jump\t// out\n        /* \"#utility.yul\":1762:2187   */\n    tag_58:\n        /* \"#utility.yul\":1840:1845   */\n      0x00\n        /* \"#utility.yul\":1865:1931   */\n      tag_109\n        /* \"#utility.yul\":1881:1930   */\n      tag_110\n        /* \"#utility.yul\":1923:1929   */\n      dup5\n        /* \"#utility.yul\":1881:1930   */\n      tag_56\n      jump\t// in\n    tag_110:\n        /* \"#utility.yul\":1865:1931   */\n      tag_55\n      jump\t// in\n    tag_109:\n        /* \"#utility.yul\":1856:1931   */\n      swap1\n      pop\n        /* \"#utility.yul\":1954:1960   */\n      dup3\n        /* \"#utility.yul\":1947:1952   */\n      dup2\n        /* \"#utility.yul\":1940:1961   */\n      mstore\n        /* \"#utility.yul\":1992:1996   */\n      0x20\n        /* \"#utility.yul\":1985:1990   */\n      dup2\n        /* \"#utility.yul\":1981:1997   */\n      add\n        /* \"#utility.yul\":2030:2033   */\n      dup5\n        /* \"#utility.yul\":2021:2027   */\n      dup5\n        /* \"#utility.yul\":2016:2019   */\n      dup5\n        /* \"#utility.yul\":2012:2028   */\n      add\n        /* \"#utility.yul\":2009:2034   */\n      gt\n        /* \"#utility.yul\":2006:2118   */\n      iszero\n      tag_111\n      jumpi\n        /* \"#utility.yul\":2037:2116   */\n      tag_112\n      tag_51\n      jump\t// in\n    tag_112:\n        /* \"#utility.yul\":2006:2118   */\n    tag_111:\n        /* \"#utility.yul\":2127:2181   */\n      tag_113\n        /* \"#utility.yul\":2174:2180   */\n      dup5\n        /* \"#utility.yul\":2169:2172   */\n      dup3\n        /* \"#utility.yul\":2164:2167   */\n      dup6\n        /* \"#utility.yul\":2127:2181   */\n      tag_57\n      jump\t// in\n    tag_113:\n        /* \"#utility.yul\":1846:2187   */\n      pop\n        /* \"#utility.yul\":1762:2187   */\n      swap4\n      swap3\n      pop\n      pop\n      pop\n      jump\t// out\n        /* \"#utility.yul\":2207:2547   */\n    tag_59:\n        /* \"#utility.yul\":2263:2268   */\n      0x00\n        /* \"#utility.yul\":2312:2315   */\n      dup3\n        /* \"#utility.yul\":2305:2309   */\n      0x1f\n        /* \"#utility.yul\":2297:2303   */\n      dup4\n        /* \"#utility.yul\":2293:2310   */\n      add\n        /* \"#utility.yul\":2289:2316   */\n      slt\n        /* \"#utility.yul\":2279:2401   */\n      tag_115\n      jumpi\n        /* \"#utility.yul\":2320:2399   */\n      tag_116\n      tag_50\n      jump\t// in\n    tag_116:\n        /* \"#utility.yul\":2279:2401   */\n    tag_115:\n        /* \"#utility.yul\":2437:2443   */\n      dup2\n        /* \"#utility.yul\":2424:2444   */\n      calldataload\n        /* \"#utility.yul\":2462:2541   */\n      tag_117\n        /* \"#utility.yul\":2537:2540   */\n      dup5\n        /* \"#utility.yul\":2529:2535   */\n      dup3\n        /* \"#utility.yul\":2522:2526   */\n      0x20\n        /* \"#utility.yul\":2514:2520   */\n      dup7\n        /* \"#utility.yul\":2510:2527   */\n      add\n        /* \"#utility.yul\":2462:2541   */\n      tag_58\n      jump\t// in\n    tag_117:\n        /* \"#utility.yul\":2453:2541   */\n      swap2\n      pop\n        /* \"#utility.yul\":2269:2547   */\n      pop\n        /* \"#utility.yul\":2207:2547   */\n      swap3\n      swap2\n      pop\n      pop\n      jump\t// out\n        /* \"#utility.yul\":2553:3387   */\n    tag_9:\n        /* \"#utility.yul\":2641:2647   */\n      0x00\n        /* \"#utility.yul\":2649:2655   */\n      dup1\n        /* \"#utility.yul\":2698:2700   */\n      0x40\n        /* \"#utility.yul\":2686:2695   */\n      dup4\n        /* \"#utility.yul\":2677:2684   */\n      dup6\n        /* \"#utility.yul\":2673:2696   */\n      sub\n        /* \"#utility.yul\":2669:2701   */\n      slt\n        /* \"#utility.yul\":2666:2785   */\n      iszero\n      tag_119\n      jumpi\n        /* \"#utility.yul\":2704:2783   */\n      tag_120\n      tag_48\n      jump\t// in\n    tag_120:\n        /* \"#utility.yul\":2666:2785   */\n    tag_119:\n        /* \"#utility.yul\":2852:2853   */\n      0x00\n        /* \"#utility.yul\":2841:2850   */\n      dup4\n        /* \"#utility.yul\":2837:2854   */\n      add\n        /* \"#utility.yul\":2824:2855   */\n      calldataload\n        /* \"#utility.yul\":2882:2900   */\n      0xffffffffffffffff\n        /* \"#utility.yul\":2874:2880   */\n      dup2\n        /* \"#utility.yul\":2871:2901   */\n      gt\n        /* \"#utility.yul\":2868:2985   */\n      iszero\n      tag_121\n      jumpi\n        /* \"#utility.yul\":2904:2983   */\n      tag_122\n      tag_49\n      jump\t// in\n    tag_122:\n        /* \"#utility.yul\":2868:2985   */\n    tag_121:\n        /* \"#utility.yul\":3009:3072   */\n      tag_123\n        /* \"#utility.yul\":3064:3071   */\n      dup6\n        /* \"#utility.yul\":3055:3061   */\n      dup3\n        /* \"#utility.yul\":3044:3053   */\n      dup7\n        /* \"#utility.yul\":3040:3062   */\n      add\n        /* \"#utility.yul\":3009:3072   */\n      tag_59\n      jump\t// in\n    tag_123:\n        /* \"#utility.yul\":2999:3072   */\n      swap3\n      pop\n        /* \"#utility.yul\":2795:3082   */\n      pop\n        /* \"#utility.yul\":3149:3151   */\n      0x20\n        /* \"#utility.yul\":3138:3147   */\n      dup4\n        /* \"#utility.yul\":3134:3152   */\n      add\n        /* \"#utility.yul\":3121:3153   */\n      calldataload\n        /* \"#utility.yul\":3180:3198   */\n      0xffffffffffffffff\n        /* \"#utility.yul\":3172:3178   */\n      dup2\n        /* \"#utility.yul\":3169:3199   */\n      gt\n        /* \"#utility.yul\":3166:3283   */\n      iszero\n      tag_124\n      jumpi\n        /* \"#utility.yul\":3202:3281   */\n      tag_125\n      tag_49\n      jump\t// in\n    tag_125:\n        /* \"#utility.yul\":3166:3283   */\n    tag_124:\n        /* \"#utility.yul\":3307:3370   */\n      tag_126\n        /* \"#utility.yul\":3362:3369   */\n      dup6\n        /* \"#utility.yul\":3353:3359   */\n      dup3\n        /* \"#utility.yul\":3342:3351   */\n      dup7\n        /* \"#utility.yul\":3338:3360   */\n      add\n        /* \"#utility.yul\":3307:3370   */\n      tag_59\n      jump\t// in\n    tag_126:\n        /* \"#utility.yul\":3297:3370   */\n      swap2\n      pop\n        /* \"#utility.yul\":3092:3380   */\n      pop\n        /* \"#utility.yul\":2553:3387   */\n      swap3\n      pop\n      swap3\n      swap1\n      pop\n      jump\t// out\n        /* \"#utility.yul\":3393:3470   */\n    tag_60:\n        /* \"#utility.yul\":3430:3437   */\n      0x00\n        /* \"#utility.yul\":3459:3464   */\n      dup2\n        /* \"#utility.yul\":3448:3464   */\n      swap1\n      pop\n        /* \"#utility.yul\":3393:3470   */\n      swap2\n      swap1\n      pop\n      jump\t// out\n        /* \"#utility.yul\":3476:3594   */\n    tag_61:\n        /* \"#utility.yul\":3563:3587   */\n      tag_129\n        /* \"#utility.yul\":3581:3586   */\n      dup2\n        /* \"#utility.yul\":3563:3587   */\n      tag_60\n      jump\t// in\n    tag_129:\n        /* \"#utility.yul\":3558:3561   */\n      dup3\n        /* \"#utility.yul\":3551:3588   */\n      mstore\n        /* \"#utility.yul\":3476:3594   */\n      pop\n      pop\n      jump\t// out\n        /* \"#utility.yul\":3600:3822   */\n    tag_14:\n        /* \"#utility.yul\":3693:3697   */\n      0x00\n        /* \"#utility.yul\":3731:3733   */\n      0x20\n        /* \"#utility.yul\":3720:3729   */\n      dup3\n        /* \"#utility.yul\":3716:3734   */\n      add\n        /* \"#utility.yul\":3708:3734   */\n      swap1\n      pop\n        /* \"#utility.yul\":3744:3815   */\n      tag_131\n        /* \"#utility.yul\":3812:3813   */\n      0x00\n        /* \"#utility.yul\":3801:3810   */\n      dup4\n        /* \"#utility.yul\":3797:3814   */\n      add\n        /* \"#utility.yul\":3788:3794   */\n      dup5\n        /* \"#utility.yul\":3744:3815   */\n      tag_61\n      jump\t// in\n    tag_131:\n        /* \"#utility.yul\":3600:3822   */\n      swap3\n      swap2\n      pop\n      pop\n      jump\t// out\n        /* \"#utility.yul\":3828:3954   */\n    tag_62:\n        /* \"#utility.yul\":3865:3872   */\n      0x00\n        /* \"#utility.yul\":3905:3947   */\n      0xffffffffffffffffffffffffffffffffffffffff\n        /* \"#utility.yul\":3898:3903   */\n      dup3\n        /* \"#utility.yul\":3894:3948   */\n      and\n        /* \"#utility.yul\":3883:3948   */\n      swap1\n      pop\n        /* \"#utility.yul\":3828:3954   */\n      swap2\n      swap1\n      pop\n      jump\t// out\n        /* \"#utility.yul\":3960:4056   */\n    tag_63:\n        /* \"#utility.yul\":3997:4004   */\n      0x00\n        /* \"#utility.yul\":4026:4050   */\n      tag_134\n        /* \"#utility.yul\":4044:4049   */\n      dup3\n        /* \"#utility.yul\":4026:4050   */\n      tag_62\n      jump\t// in\n    tag_134:\n        /* \"#utility.yul\":4015:4050   */\n      swap1\n      pop\n        /* \"#utility.yul\":3960:4056   */\n      swap2\n      swap1\n      pop\n      jump\t// out\n        /* \"#utility.yul\":4062:4180   */\n    tag_64:\n        /* \"#utility.yul\":4149:4173   */\n      tag_136\n        /* \"#utility.yul\":4167:4172   */\n      dup2\n        /* \"#utility.yul\":4149:4173   */\n      tag_63\n      jump\t// in\n    tag_136:\n        /* \"#utility.yul\":4144:4147   */\n      dup3\n        /* \"#utility.yul\":4137:4174   */\n      mstore\n        /* \"#utility.yul\":4062:4180   */\n      pop\n      pop\n      jump\t// out\n        /* \"#utility.yul\":4186:4408   */\n    tag_18:\n        /* \"#utility.yul\":4279:4283   */\n      0x00\n        /* \"#utility.yul\":4317:4319   */\n      0x20\n        /* \"#utility.yul\":4306:4315   */\n      dup3\n        /* \"#utility.yul\":4302:4320   */\n      add\n        /* \"#utility.yul\":4294:4320   */\n      swap1\n      pop\n        /* \"#utility.yul\":4330:4401   */\n      tag_138\n        /* \"#utility.yul\":4398:4399   */\n      0x00\n        /* \"#utility.yul\":4387:4396   */\n      dup4\n        /* \"#utility.yul\":4383:4400   */\n      add\n        /* \"#utility.yul\":4374:4380   */\n      dup5\n        /* \"#utility.yul\":4330:4401   */\n      tag_64\n      jump\t// in\n    tag_138:\n        /* \"#utility.yul\":4186:4408   */\n      swap3\n      swap2\n      pop\n      pop\n      jump\t// out\n        /* \"#utility.yul\":4414:4536   */\n    tag_65:\n        /* \"#utility.yul\":4487:4511   */\n      tag_140\n        /* \"#utility.yul\":4505:4510   */\n      dup2\n        /* \"#utility.yul\":4487:4511   */\n      tag_60\n      jump\t// in\n    tag_140:\n        /* \"#utility.yul\":4480:4485   */\n      dup2\n        /* \"#utility.yul\":4477:4512   */\n      eq\n        /* \"#utility.yul\":4467:4530   */\n      tag_141\n      jumpi\n        /* \"#utility.yul\":4526:4527   */\n      0x00\n        /* \"#utility.yul\":4523:4524   */\n      dup1\n        /* \"#utility.yul\":4516:4528   */\n      revert\n        /* \"#utility.yul\":4467:4530   */\n    tag_141:\n        /* \"#utility.yul\":4414:4536   */\n      pop\n      jump\t// out\n        /* \"#utility.yul\":4542:4681   */\n    tag_66:\n        /* \"#utility.yul\":4588:4593   */\n      0x00\n        /* \"#utility.yul\":4626:4632   */\n      dup2\n        /* \"#utility.yul\":4613:4633   */\n      calldataload\n        /* \"#utility.yul\":4604:4633   */\n      swap1\n      pop\n        /* \"#utility.yul\":4642:4675   */\n      tag_143\n        /* \"#utility.yul\":4669:4674   */\n      dup2\n        /* \"#utility.yul\":4642:4675   */\n      tag_65\n      jump\t// in\n    tag_143:\n        /* \"#utility.yul\":4542:4681   */\n      swap3\n      swap2\n      pop\n      pop\n      jump\t// out\n        /* \"#utility.yul\":4687:5016   */\n    tag_21:\n        /* \"#utility.yul\":4746:4752   */\n      0x00\n        /* \"#utility.yul\":4795:4797   */\n      0x20\n        /* \"#utility.yul\":4783:4792   */\n      dup3\n        /* \"#utility.yul\":4774:4781   */\n      dup5\n        /* \"#utility.yul\":4770:4793   */\n      sub\n        /* \"#utility.yul\":4766:4798   */\n      slt\n        /* \"#utility.yul\":4763:4882   */\n      iszero\n      tag_145\n      jumpi\n        /* \"#utility.yul\":4801:4880   */\n      tag_146\n      tag_48\n      jump\t// in\n    tag_146:\n        /* \"#utility.yul\":4763:4882   */\n    tag_145:\n        /* \"#utility.yul\":4921:4922   */\n      0x00\n        /* \"#utility.yul\":4946:4999   */\n      tag_147\n        /* \"#utility.yul\":4991:4998   */\n      dup5\n        /* \"#utility.yul\":4982:4988   */\n      dup3\n        /* \"#utility.yul\":4971:4980   */\n      dup6\n        /* \"#utility.yul\":4967:4989   */\n      add\n        /* \"#utility.yul\":4946:4999   */\n      tag_66\n      jump\t// in\n    tag_147:\n        /* \"#utility.yul\":4936:4999   */\n      swap2\n      pop\n        /* \"#utility.yul\":4892:5009   */\n      pop\n        /* \"#utility.yul\":4687:5016   */\n      swap3\n      swap2\n      pop\n      pop\n      jump\t// out\n        /* \"#utility.yul\":5022:5121   */\n    tag_67:\n        /* \"#utility.yul\":5074:5080   */\n      0x00\n        /* \"#utility.yul\":5108:5113   */\n      dup2\n        /* \"#utility.yul\":5102:5114   */\n      mload\n        /* \"#utility.yul\":5092:5114   */\n      swap1\n      pop\n        /* \"#utility.yul\":5022:5121   */\n      swap2\n      swap1\n      pop\n      jump\t// out\n        /* \"#utility.yul\":5127:5296   */\n    tag_68:\n        /* \"#utility.yul\":5211:5222   */\n      0x00\n        /* \"#utility.yul\":5245:5251   */\n      dup3\n        /* \"#utility.yul\":5240:5243   */\n      dup3\n        /* \"#utility.yul\":5233:5252   */\n      mstore\n        /* \"#utility.yul\":5285:5289   */\n      0x20\n        /* \"#utility.yul\":5280:5283   */\n      dup3\n        /* \"#utility.yul\":5276:5290   */\n      add\n        /* \"#utility.yul\":5261:5290   */\n      swap1\n      pop\n        /* \"#utility.yul\":5127:5296   */\n      swap3\n      swap2\n      pop\n      pop\n      jump\t// out\n        /* \"#utility.yul\":5302:5548   */\n    tag_69:\n        /* \"#utility.yul\":5383:5384   */\n      0x00\n        /* \"#utility.yul\":5393:5506   */\n    tag_151:\n        /* \"#utility.yul\":5407:5413   */\n      dup4\n        /* \"#utility.yul\":5404:5405   */\n      dup2\n        /* \"#utility.yul\":5401:5414   */\n      lt\n        /* \"#utility.yul\":5393:5506   */\n      iszero\n      tag_153\n      jumpi\n        /* \"#utility.yul\":5492:5493   */\n      dup1\n        /* \"#utility.yul\":5487:5490   */\n      dup3\n        /* \"#utility.yul\":5483:5494   */\n      add\n        /* \"#utility.yul\":5477:5495   */\n      mload\n        /* \"#utility.yul\":5473:5474   */\n      dup2\n        /* \"#utility.yul\":5468:5471   */\n      dup5\n        /* \"#utility.yul\":5464:5475   */\n      add\n        /* \"#utility.yul\":5457:5496   */\n      mstore\n        /* \"#utility.yul\":5429:5431   */\n      0x20\n        /* \"#utility.yul\":5426:5427   */\n      dup2\n        /* \"#utility.yul\":5422:5432   */\n      add\n        /* \"#utility.yul\":5417:5432   */\n      swap1\n      pop\n        /* \"#utility.yul\":5393:5506   */\n      jump(tag_151)\n    tag_153:\n        /* \"#utility.yul\":5540:5541   */\n      0x00\n        /* \"#utility.yul\":5531:5537   */\n      dup5\n        /* \"#utility.yul\":5526:5529   */\n      dup5\n        /* \"#utility.yul\":5522:5538   */\n      add\n        /* \"#utility.yul\":5515:5542   */\n      mstore\n        /* \"#utility.yul\":5364:5548   */\n      pop\n        /* \"#utility.yul\":5302:5548   */\n      pop\n      pop\n      pop\n      jump\t// out\n        /* \"#utility.yul\":5554:5931   */\n    tag_70:\n        /* \"#utility.yul\":5642:5645   */\n      0x00\n        /* \"#utility.yul\":5670:5709   */\n      tag_155\n        /* \"#utility.yul\":5703:5708   */\n      dup3\n        /* \"#utility.yul\":5670:5709   */\n      tag_67\n      jump\t// in\n    tag_155:\n        /* \"#utility.yul\":5725:5796   */\n      tag_156\n        /* \"#utility.yul\":5789:5795   */\n      dup2\n        /* \"#utility.yul\":5784:5787   */\n      dup6\n        /* \"#utility.yul\":5725:5796   */\n      tag_68\n      jump\t// in\n    tag_156:\n        /* \"#utility.yul\":5718:5796   */\n      swap4\n      pop\n        /* \"#utility.yul\":5805:5870   */\n      tag_157\n        /* \"#utility.yul\":5863:5869   */\n      dup2\n        /* \"#utility.yul\":5858:5861   */\n      dup6\n        /* \"#utility.yul\":5851:5855   */\n      0x20\n        /* \"#utility.yul\":5844:5849   */\n      dup7\n        /* \"#utility.yul\":5840:5856   */\n      add\n        /* \"#utility.yul\":5805:5870   */\n      tag_69\n      jump\t// in\n    tag_157:\n        /* \"#utility.yul\":5895:5924   */\n      tag_158\n        /* \"#utility.yul\":5917:5923   */\n      dup2\n        /* \"#utility.yul\":5895:5924   */\n      tag_52\n      jump\t// in\n    tag_158:\n        /* \"#utility.yul\":5890:5893   */\n      dup5\n        /* \"#utility.yul\":5886:5925   */\n      add\n        /* \"#utility.yul\":5879:5925   */\n      swap2\n      pop\n        /* \"#utility.yul\":5646:5931   */\n      pop\n        /* \"#utility.yul\":5554:5931   */\n      swap3\n      swap2\n      pop\n      pop\n      jump\t// out\n        /* \"#utility.yul\":5937:6561   */\n    tag_24:\n        /* \"#utility.yul\":6126:6130   */\n      0x00\n        /* \"#utility.yul\":6164:6166   */\n      0x60\n        /* \"#utility.yul\":6153:6162   */\n      dup3\n        /* \"#utility.yul\":6149:6167   */\n      add\n        /* \"#utility.yul\":6141:6167   */\n      swap1\n      pop\n        /* \"#utility.yul\":6177:6248   */\n      tag_160\n        /* \"#utility.yul\":6245:6246   */\n      0x00\n        /* \"#utility.yul\":6234:6243   */\n      dup4\n        /* \"#utility.yul\":6230:6247   */\n      add\n        /* \"#utility.yul\":6221:6227   */\n      dup7\n        /* \"#utility.yul\":6177:6248   */\n      tag_61\n      jump\t// in\n    tag_160:\n        /* \"#utility.yul\":6295:6304   */\n      dup2\n        /* \"#utility.yul\":6289:6293   */\n      dup2\n        /* \"#utility.yul\":6285:6305   */\n      sub\n        /* \"#utility.yul\":6280:6282   */\n      0x20\n        /* \"#utility.yul\":6269:6278   */\n      dup4\n        /* \"#utility.yul\":6265:6283   */\n      add\n        /* \"#utility.yul\":6258:6306   */\n      mstore\n        /* \"#utility.yul\":6323:6401   */\n      tag_161\n        /* \"#utility.yul\":6396:6400   */\n      dup2\n        /* \"#utility.yul\":6387:6393   */\n      dup6\n        /* \"#utility.yul\":6323:6401   */\n      tag_70\n      jump\t// in\n    tag_161:\n        /* \"#utility.yul\":6315:6401   */\n      swap1\n      pop\n        /* \"#utility.yul\":6448:6457   */\n      dup2\n        /* \"#utility.yul\":6442:6446   */\n      dup2\n        /* \"#utility.yul\":6438:6458   */\n      sub\n        /* \"#utility.yul\":6433:6435   */\n      0x40\n        /* \"#utility.yul\":6422:6431   */\n      dup4\n        /* \"#utility.yul\":6418:6436   */\n      add\n        /* \"#utility.yul\":6411:6459   */\n      mstore\n        /* \"#utility.yul\":6476:6554   */\n      tag_162\n        /* \"#utility.yul\":6549:6553   */\n      dup2\n        /* \"#utility.yul\":6540:6546   */\n      dup5\n        /* \"#utility.yul\":6476:6554   */\n      tag_70\n      jump\t// in\n    tag_162:\n        /* \"#utility.yul\":6468:6554   */\n      swap1\n      pop\n        /* \"#utility.yul\":5937:6561   */\n      swap5\n      swap4\n      pop\n      pop\n      pop\n      pop\n      jump\t// out\n        /* \"#utility.yul\":6567:6747   */\n    tag_71:\n        /* \"#utility.yul\":6615:6692   */\n      0x4e487b7100000000000000000000000000000000000000000000000000000000\n        /* \"#utility.yul\":6612:6613   */\n      0x00\n        /* \"#utility.yul\":6605:6693   */\n      mstore\n        /* \"#utility.yul\":6712:6716   */\n      0x22\n        /* \"#utility.yul\":6709:6710   */\n      0x04\n        /* \"#utility.yul\":6702:6717   */\n      mstore\n        /* \"#utility.yul\":6736:6740   */\n      0x24\n        /* \"#utility.yul\":6733:6734   */\n      0x00\n        /* \"#utility.yul\":6726:6741   */\n      revert\n        /* \"#utility.yul\":6753:7073   */\n    tag_34:\n        /* \"#utility.yul\":6797:6803   */\n      0x00\n        /* \"#utility.yul\":6834:6835   */\n      0x02\n        /* \"#utility.yul\":6828:6832   */\n      dup3\n        /* \"#utility.yul\":6824:6836   */\n      div\n        /* \"#utility.yul\":6814:6836   */\n      swap1\n      pop\n        /* \"#utility.yul\":6881:6882   */\n      0x01\n        /* \"#utility.yul\":6875:6879   */\n      dup3\n        /* \"#utility.yul\":6871:6883   */\n      and\n        /* \"#utility.yul\":6902:6920   */\n      dup1\n        /* \"#utility.yul\":6892:6973   */\n      tag_165\n      jumpi\n        /* \"#utility.yul\":6958:6962   */\n      0x7f\n        /* \"#utility.yul\":6950:6956   */\n      dup3\n        /* \"#utility.yul\":6946:6963   */\n      and\n        /* \"#utility.yul\":6936:6963   */\n      swap2\n      pop\n        /* \"#utility.yul\":6892:6973   */\n    tag_165:\n        /* \"#utility.yul\":7020:7022   */\n      0x20\n        /* \"#utility.yul\":7012:7018   */\n      dup3\n        /* \"#utility.yul\":7009:7023   */\n      lt\n        /* \"#utility.yul\":6989:7007   */\n      dup2\n        /* \"#utility.yul\":6986:7024   */\n      sub\n        /* \"#utility.yul\":6983:7067   */\n      tag_166\n      jumpi\n        /* \"#utility.yul\":7039:7057   */\n      tag_167\n      tag_71\n      jump\t// in\n    tag_167:\n        /* \"#utility.yul\":6983:7067   */\n    tag_166:\n        /* \"#utility.yul\":6804:7073   */\n      pop\n        /* \"#utility.yul\":6753:7073   */\n      swap2\n      swap1\n      pop\n      jump\t// out\n        /* \"#utility.yul\":7079:7220   */\n    tag_72:\n        /* \"#utility.yul\":7128:7132   */\n      0x00\n        /* \"#utility.yul\":7151:7154   */\n      dup2\n        /* \"#utility.yul\":7143:7154   */\n      swap1\n      pop\n        /* \"#utility.yul\":7174:7177   */\n      dup2\n        /* \"#utility.yul\":7171:7172   */\n      0x00\n        /* \"#utility.yul\":7164:7178   */\n      mstore\n        /* \"#utility.yul\":7208:7212   */\n      0x20\n        /* \"#utility.yul\":7205:7206   */\n      0x00\n        /* \"#utility.yul\":7195:7213   */\n      keccak256\n        /* \"#utility.yul\":7187:7213   */\n      swap1\n      pop\n        /* \"#utility.yul\":7079:7220   */\n      swap2\n      swap1\n      pop\n      jump\t// out\n        /* \"#utility.yul\":7226:7319   */\n    tag_73:\n        /* \"#utility.yul\":7263:7269   */\n      0x00\n        /* \"#utility.yul\":7310:7312   */\n      0x20\n        /* \"#utility.yul\":7305:7307   */\n      0x1f\n        /* \"#utility.yul\":7298:7303   */\n      dup4\n        /* \"#utility.yul\":7294:7308   */\n      add\n        /* \"#utility.yul\":7290:7313   */\n      div\n        /* \"#utility.yul\":7280:7313   */\n      swap1\n      pop\n        /* \"#utility.yul\":7226:7319   */\n      swap2\n      swap1\n      pop\n      jump\t// out\n        /* \"#utility.yul\":7325:7432   */\n    tag_74:\n        /* \"#utility.yul\":7369:7377   */\n      0x00\n        /* \"#utility.yul\":7419:7424   */\n      dup3\n        /* \"#utility.yul\":7413:7417   */\n      dup3\n        /* \"#utility.yul\":7409:7425   */\n      shl\n        /* \"#utility.yul\":7388:7425   */\n      swap1\n      pop\n        /* \"#utility.yul\":7325:7432   */\n      swap3\n      swap2\n      pop\n      pop\n      jump\t// out\n        /* \"#utility.yul\":7438:7831   */\n    tag_75:\n        /* \"#utility.yul\":7507:7513   */\n      0x00\n        /* \"#utility.yul\":7557:7558   */\n      0x08\n        /* \"#utility.yul\":7545:7555   */\n      dup4\n        /* \"#utility.yul\":7541:7559   */\n      mul\n        /* \"#utility.yul\":7580:7677   */\n      tag_172\n        /* \"#utility.yul\":7610:7676   */\n      0xffffffffffffffffffffffffffffffffffffffffffffffffffffffffffffffff\n        /* \"#utility.yul\":7599:7608   */\n      dup3\n        /* \"#utility.yul\":7580:7677   */\n      tag_74\n      jump\t// in\n    tag_172:\n        /* \"#utility.yul\":7698:7737   */\n      tag_173\n        /* \"#utility.yul\":7728:7736   */\n      dup7\n        /* \"#utility.yul\":7717:7726   */\n      dup4\n        /* \"#utility.yul\":7698:7737   */\n      tag_74\n      jump\t// in\n    tag_173:\n        /* \"#utility.yul\":7686:7737   */\n      swap6\n      pop\n        /* \"#utility.yul\":7770:7774   */\n      dup1\n        /* \"#utility.yul\":7766:7775   */\n      not\n        /* \"#utility.yul\":7759:7764   */\n      dup5\n        /* \"#utility.yul\":7755:7776   */\n      and\n        /* \"#utility.yul\":7746:7776   */\n      swap4\n      pop\n        /* \"#utility.yul\":7819:7823   */\n      dup1\n        /* \"#utility.yul\":7809:7817   */\n      dup7\n        /* \"#utility.yul\":7805:7824   */\n      and\n        /* \"#utility.yul\":7798:7803   */\n      dup5\n        /* \"#utility.yul\":7795:7825   */\n      or\n        /* \"#utility.yul\":7785:7825   */\n      swap3\n      pop\n        /* \"#utility.yul\":7514:7831   */\n      pop\n      pop\n        /* \"#utility.yul\":7438:7831   */\n      swap4\n      swap3\n      pop\n      pop\n      pop\n      jump\t// out\n        /* \"#utility.yul\":7837:7897   */\n    tag_76:\n        /* \"#utility.yul\":7865:7868   */\n      0x00\n        /* \"#utility.yul\":7886:7891   */\n      dup2\n        /* \"#utility.yul\":7879:7891   */\n      swap1\n      pop\n        /* \"#utility.yul\":7837:7897   */\n      swap2\n      swap1\n      pop\n      jump\t// out\n        /* \"#utility.yul\":7903:8045   */\n    tag_77:\n        /* \"#utility.yul\":7953:7962   */\n      0x00\n        /* \"#utility.yul\":7986:8039   */\n      tag_176\n        /* \"#utility.yul\":8004:8038   */\n      tag_177\n        /* \"#utility.yul\":8013:8037   */\n      tag_178\n        /* \"#utility.yul\":8031:8036   */\n      dup5\n        /* \"#utility.yul\":8013:8037   */\n      tag_60\n      jump\t// in\n    tag_178:\n        /* \"#utility.yul\":8004:8038   */\n      tag_76\n      jump\t// in\n    tag_177:\n        /* \"#utility.yul\":7986:8039   */\n      tag_60\n      jump\t// in\n    tag_176:\n        /* \"#utility.yul\":7973:8039   */\n      swap1\n      pop\n        /* \"#utility.yul\":7903:8045   */\n      swap2\n      swap1\n      pop\n      jump\t// out\n        /* \"#utility.yul\":8051:8126   */\n    tag_78:\n        /* \"#utility.yul\":8094:8097   */\n      0x00\n        /* \"#utility.yul\":8115:8120   */\n      dup2\n        /* \"#utility.yul\":8108:8120   */\n      swap1\n      pop\n        /* \"#utility.yul\":8051:8126   */\n      swap2\n      swap1\n      pop\n      jump\t// out\n        /* \"#utility.yul\":8132:8401   */\n    tag_79:\n        /* \"#utility.yul\":8242:8281   */\n      tag_181\n        /* \"#utility.yul\":8273:8280   */\n      dup4\n        /* \"#utility.yul\":8242:8281   */\n      tag_77\n      jump\t// in\n    tag_181:\n        /* \"#utility.yul\":8303:8394   */\n      tag_182\n        /* \"#utility.yul\":8352:8393   */\n      tag_183\n        /* \"#utility.yul\":8376:8392   */\n      dup3\n        /* \"#utility.yul\":8352:8393   */\n      tag_78\n      jump\t// in\n    tag_183:\n        /* \"#utility.yul\":8344:8350   */\n      dup5\n        /* \"#utility.yul\":8337:8341   */\n      dup5\n        /* \"#utility.yul\":8331:8342   */\n      sload\n        /* \"#utility.yul\":8303:8394   */\n      tag_75\n      jump\t// in\n    tag_182:\n        /* \"#utility.yul\":8297:8301   */\n      dup3\n        /* \"#utility.yul\":8290:8395   */\n      sstore\n        /* \"#utility.yul\":8208:8401   */\n      pop\n        /* \"#utility.yul\":8132:8401   */\n      pop\n      pop\n      pop\n      jump\t// out\n        /* \"#utility.yul\":8407:8480   */\n    tag_80:\n        /* \"#utility.yul\":8452:8455   */\n      0x00\n        /* \"#utility.yul\":8407:8480   */\n      swap1\n      jump\t// out\n        /* \"#utility.yul\":8486:8675   */\n    tag_81:\n        /* \"#utility.yul\":8563:8595   */\n      tag_186\n      tag_80\n      jump\t// in\n    tag_186:\n        /* \"#utility.yul\":8604:8669   */\n      tag_187\n        /* \"#utility.yul\":8662:8668   */\n      dup2\n        /* \"#utility.yul\":8654:8660   */\n      dup5\n        /* \"#utility.yul\":8648:8652   */\n      dup5\n        /* \"#utility.yul\":8604:8669   */\n      tag_79\n      jump\t// in\n    tag_187:\n        /* \"#utility.yul\":8539:8675   */\n      pop\n        /* \"#utility.yul\":8486:8675   */\n      pop\n      pop\n      jump\t// out\n        /* \"#utility.yul\":8681:8867   */\n    tag_82:\n        /* \"#utility.yul\":8741:8861   */\n    tag_189:\n        /* \"#utility.yul\":8758:8761   */\n      dup2\n        /* \"#utility.yul\":8751:8756   */\n      dup2\n        /* \"#utility.yul\":8748:8762   */\n      lt\n        /* \"#utility.yul\":8741:8861   */\n      iszero\n      tag_191\n      jumpi\n        /* \"#utility.yul\":8812:8851   */\n      tag_192\n        /* \"#utility.yul\":8849:8850   */\n      0x00\n        /* \"#utility.yul\":8842:8847   */\n      dup3\n        /* \"#utility.yul\":8812:8851   */\n      tag_81\n      jump\t// in\n    tag_192:\n        /* \"#utility.yul\":8785:8786   */\n      0x01\n        /* \"#utility.yul\":8778:8783   */\n      dup2\n        /* \"#utility.yul\":8774:8787   */\n      add\n        /* \"#utility.yul\":8765:8787   */\n      swap1\n      pop\n        /* \"#utility.yul\":8741:8861   */\n      jump(tag_189)\n    tag_191:\n        /* \"#utility.yul\":8681:8867   */\n      pop\n      pop\n      jump\t// out\n        /* \"#utility.yul\":8873:9416   */\n    tag_83:\n        /* \"#utility.yul\":8974:8976   */\n      0x1f\n        /* \"#utility.yul\":8969:8972   */\n      dup3\n        /* \"#utility.yul\":8966:8977   */\n      gt\n        /* \"#utility.yul\":8963:9409   */\n      iszero\n      tag_194\n      jumpi\n        /* \"#utility.yul\":9008:9046   */\n      tag_195\n        /* \"#utility.yul\":9040:9045   */\n      dup2\n        /* \"#utility.yul\":9008:9046   */\n      tag_72\n      jump\t// in\n    tag_195:\n        /* \"#utility.yul\":9092:9121   */\n      tag_196\n        /* \"#utility.yul\":9110:9120   */\n      dup5\n        /* \"#utility.yul\":9092:9121   */\n      tag_73\n      jump\t// in\n    tag_196:\n        /* \"#utility.yul\":9082:9090   */\n      dup2\n        /* \"#utility.yul\":9078:9122   */\n      add\n        /* \"#utility.yul\":9275:9277   */\n      0x20\n        /* \"#utility.yul\":9263:9273   */\n      dup6\n        /* \"#utility.yul\":9260:9278   */\n      lt\n        /* \"#utility.yul\":9257:9306   */\n      iszero\n      tag_197\n      jumpi\n        /* \"#utility.yul\":9296:9304   */\n      dup2\n        /* \"#utility.yul\":9281:9304   */\n      swap1\n      pop\n        /* \"#utility.yul\":9257:9306   */\n    tag_197:\n        /* \"#utility.yul\":9319:9399   */\n      tag_198\n        /* \"#utility.yul\":9375:9397   */\n      tag_199\n        /* \"#utility.yul\":9393:9396   */\n      dup6\n        /* \"#utility.yul\":9375:9397   */\n      tag_73\n      jump\t// in\n    tag_199:\n        /* \"#utility.yul\":9365:9373   */\n      dup4\n        /* \"#utility.yul\":9361:9398   */\n      add\n        /* \"#utility.yul\":9348:9359   */\n      dup3\n        /* \"#utility.yul\":9319:9399   */\n      tag_82\n      jump\t// in\n    tag_198:\n        /* \"#utility.yul\":8978:9409   */\n      pop\n      pop\n        /* \"#utility.yul\":8963:9409   */\n    tag_194:\n        /* \"#utility.yul\":8873:9416   */\n      pop\n      pop\n      pop\n      jump\t// out\n        /* \"#utility.yul\":9422:9539   */\n    tag_84:\n        /* \"#utility.yul\":9476:9484   */\n      0x00\n        /* \"#utility.yul\":9526:9531   */\n      dup3\n        /* \"#utility.yul\":9520:9524   */\n      dup3\n        /* \"#utility.yul\":9516:9532   */\n      shr\n        /* \"#utility.yul\":9495:9532   */\n      swap1\n      pop\n        /* \"#utility.yul\":9422:9539   */\n      swap3\n      swap2\n      pop\n      pop\n      jump\t// out\n        /* \"#utility.yul\":9545:9714   */\n    tag_85:\n        /* \"#utility.yul\":9589:9595   */\n      0x00\n        /* \"#utility.yul\":9622:9673   */\n      tag_202\n        /* \"#utility.yul\":9670:9671   */\n      0x00\n        /* \"#utility.yul\":9666:9672   */\n      not\n        /* \"#utility.yul\":9658:9663   */\n      dup5\n        /* \"#utility.yul\":9655:9656   */\n      0x08\n        /* \"#utility.yul\":9651:9664   */\n      mul\n        /* \"#utility.yul\":9622:9673   */\n      tag_84\n      jump\t// in\n    tag_202:\n        /* \"#utility.yul\":9618:9674   */\n      not\n        /* \"#utility.yul\":9703:9707   */\n      dup1\n        /* \"#utility.yul\":9697:9701   */\n      dup4\n        /* \"#utility.yul\":9693:9708   */\n      and\n        /* \"#utility.yul\":9683:9708   */\n      swap2\n      pop\n        /* \"#utility.yul\":9596:9714   */\n      pop\n        /* \"#utility.yul\":9545:9714   */\n      swap3\n      swap2\n      pop\n      pop\n      jump\t// out\n        /* \"#utility.yul\":9719:10014   */\n    tag_86:\n        /* \"#utility.yul\":9795:9799   */\n      0x00\n        /* \"#utility.yul\":9941:9970   */\n      tag_204\n        /* \"#utility.yul\":9966:9969   */\n      dup4\n        /* \"#utility.yul\":9960:9964   */\n      dup4\n        /* \"#utility.yul\":9941:9970   */\n      tag_85\n      jump\t// in\n    tag_204:\n        /* \"#utility.yul\":9933:9970   */\n      swap2\n      pop\n        /* \"#utility.yul\":10003:10006   */\n      dup3\n        /* \"#utility.yul\":10000:10001   */\n      0x02\n        /* \"#utility.yul\":9996:10007   */\n      mul\n        /* \"#utility.yul\":9990:9994   */\n      dup3\n        /* \"#utility.yul\":9987:10008   */\n      or\n        /* \"#utility.yul\":9979:10008   */\n      swap1\n      pop\n        /* \"#utility.yul\":9719:10014   */\n      swap3\n      swap2\n      pop\n      pop\n      jump\t// out\n        /* \"#utility.yul\":10019:11414   */\n    tag_31:\n        /* \"#utility.yul\":10136:10173   */\n      tag_206\n        /* \"#utility.yul\":10169:10172   */\n      dup3\n        /* \"#utility.yul\":10136:10173   */\n      tag_67\n      jump\t// in\n    tag_206:\n        /* \"#utility.yul\":10238:10256   */\n      0xffffffffffffffff\n        /* \"#utility.yul\":10230:10236   */\n      dup2\n        /* \"#utility.yul\":10227:10257   */\n      gt\n        /* \"#utility.yul\":10224:10280   */\n      iszero\n      tag_207\n      jumpi\n        /* \"#utility.yul\":10260:10278   */\n      tag_208\n      tag_53\n      jump\t// in\n    tag_208:\n        /* \"#utility.yul\":10224:10280   */\n    tag_207:\n        /* \"#utility.yul\":10304:10342   */\n      tag_209\n        /* \"#utility.yul\":10336:10340   */\n      dup3\n        /* \"#utility.yul\":10330:10341   */\n      sload\n        /* \"#utility.yul\":10304:10342   */\n      tag_34\n      jump\t// in\n    tag_209:\n        /* \"#utility.yul\":10389:10456   */\n      tag_210\n        /* \"#utility.yul\":10449:10455   */\n      dup3\n        /* \"#utility.yul\":10441:10447   */\n      dup3\n        /* \"#utility.yul\":10435:10439   */\n      dup6\n        /* \"#utility.yul\":10389:10456   */\n      tag_83\n      jump\t// in\n    tag_210:\n        /* \"#utility.yul\":10483:10484   */\n      0x00\n        /* \"#utility.yul\":10507:10511   */\n      0x20\n        /* \"#utility.yul\":10494:10511   */\n      swap1\n      pop\n        /* \"#utility.yul\":10539:10541   */\n      0x1f\n        /* \"#utility.yul\":10531:10537   */\n      dup4\n        /* \"#utility.yul\":10528:10542   */\n      gt\n        /* \"#utility.yul\":10556:10557   */\n      0x01\n        /* \"#utility.yul\":10551:11169   */\n      dup2\n      eq\n      tag_212\n      jumpi\n        /* \"#utility.yul\":11213:11214   */\n      0x00\n        /* \"#utility.yul\":11230:11236   */\n      dup5\n        /* \"#utility.yul\":11227:11304   */\n      iszero\n      tag_213\n      jumpi\n        /* \"#utility.yul\":11279:11288   */\n      dup3\n        /* \"#utility.yul\":11274:11277   */\n      dup8\n        /* \"#utility.yul\":11270:11289   */\n      add\n        /* \"#utility.yul\":11264:11290   */\n      mload\n        /* \"#utility.yul\":11255:11290   */\n      swap1\n      pop\n        /* \"#utility.yul\":11227:11304   */\n    tag_213:\n        /* \"#utility.yul\":11330:11397   */\n      tag_214\n        /* \"#utility.yul\":11390:11396   */\n      dup6\n        /* \"#utility.yul\":11383:11388   */\n      dup3\n        /* \"#utility.yul\":11330:11397   */\n      tag_86\n      jump\t// in\n    tag_214:\n        /* \"#utility.yul\":11324:11328   */\n      dup7\n        /* \"#utility.yul\":11317:11398   */\n      sstore\n        /* \"#utility.yul\":11186:11408   */\n      pop\n        /* \"#utility.yul\":10521:11408   */\n      jump(tag_211)\n        /* \"#utility.yul\":10551:11169   */\n    tag_212:\n        /* \"#utility.yul\":10603:10607   */\n      0x1f\n        /* \"#utility.yul\":10599:10608   */\n      not\n        /* \"#utility.yul\":10591:10597   */\n      dup5\n        /* \"#utility.yul\":10587:10609   */\n      and\n        /* \"#utility.yul\":10637:10674   */\n      tag_215\n        /* \"#utility.yul\":10669:10673   */\n      dup7\n        /* \"#utility.yul\":10637:10674   */\n      tag_72\n      jump\t// in\n    tag_215:\n        /* \"#utility.yul\":10696:10697   */\n      0x00\n        /* \"#utility.yul\":10710:10918   */\n    tag_216:\n        /* \"#utility.yul\":10724:10731   */\n      dup3\n        /* \"#utility.yul\":10721:10722   */\n      dup2\n        /* \"#utility.yul\":10718:10732   */\n      lt\n        /* \"#utility.yul\":10710:10918   */\n      iszero\n      tag_218\n      jumpi\n        /* \"#utility.yul\":10803:10812   */\n      dup5\n        /* \"#utility.yul\":10798:10801   */\n      dup10\n        /* \"#utility.yul\":10794:10813   */\n      add\n        /* \"#utility.yul\":10788:10814   */\n      mload\n        /* \"#utility.yul\":10780:10786   */\n      dup3\n        /* \"#utility.yul\":10773:10815   */\n      sstore\n        /* \"#utility.yul\":10854:10855   */\n      0x01\n        /* \"#utility.yul\":10846:10852   */\n      dup3\n        /* \"#utility.yul\":10842:10856   */\n      add\n        /* \"#utility.yul\":10832:10856   */\n      swap2\n      pop\n        /* \"#utility.yul\":10901:10903   */\n      0x20\n        /* \"#utility.yul\":10890:10899   */\n      dup6\n        /* \"#utility.yul\":10886:10904   */\n      add\n        /* \"#utility.yul\":10873:10904   */\n      swap5\n      pop\n        /* \"#utility.yul\":10747:10751   */\n      0x20\n        /* \"#utility.yul\":10744:10745   */\n      dup2\n        /* \"#utility.yul\":10740:10752   */\n      add\n        /* \"#utility.yul\":10735:10752   */\n      swap1\n      pop\n        /* \"#utility.yul\":10710:10918   */\n      jump(tag_216)\n    tag_218:\n        /* \"#utility.yul\":10946:10952   */\n      dup7\n        /* \"#utility.yul\":10937:10944   */\n      dup4\n        /* \"#utility.yul\":10934:10953   */\n      lt\n        /* \"#utility.yul\":10931:11110   */\n      iszero\n      tag_219\n      jumpi\n        /* \"#utility.yul\":11004:11013   */\n      dup5\n        /* \"#utility.yul\":10999:11002   */\n      dup10\n        /* \"#utility.yul\":10995:11014   */\n      add\n        /* \"#utility.yul\":10989:11015   */\n      mload\n        /* \"#utility.yul\":11047:11095   */\n      tag_220\n        /* \"#utility.yul\":11089:11093   */\n      0x1f\n        /* \"#utility.yul\":11081:11087   */\n      dup10\n        /* \"#utility.yul\":11077:11094   */\n      and\n        /* \"#utility.yul\":11066:11075   */\n      dup3\n        /* \"#utility.yul\":11047:11095   */\n      tag_85\n      jump\t// in\n    tag_220:\n        /* \"#utility.yul\":11039:11045   */\n      dup4\n        /* \"#utility.yul\":11032:11096   */\n      sstore\n        /* \"#utility.yul\":10954:11110   */\n      pop\n        /* \"#utility.yul\":10931:11110   */\n    tag_219:\n        /* \"#utility.yul\":11156:11157   */\n      0x01\n        /* \"#utility.yul\":11152:11153   */\n      0x02\n        /* \"#utility.yul\":11144:11150   */\n      dup9\n        /* \"#utility.yul\":11140:11154   */\n      mul\n        /* \"#utility.yul\":11136:11158   */\n      add\n        /* \"#utility.yul\":11130:11134   */\n      dup9\n        /* \"#utility.yul\":11123:11159   */\n      sstore\n        /* \"#utility.yul\":10558:11169   */\n      pop\n      pop\n      pop\n        /* \"#utility.yul\":10521:11408   */\n    tag_211:\n      pop\n        /* \"#utility.yul\":10111:11414   */\n      pop\n      pop\n      pop\n        /* \"#utility.yul\":10019:11414   */\n      pop\n      pop\n      jump\t// out\n        /* \"#utility.yul\":11420:11600   */\n    tag_87:\n        /* \"#utility.yul\":11468:11545   */\n      0x4e487b7100000000000000000000000000000000000000000000000000000000\n        /* \"#utility.yul\":11465:11466   */\n      0x00\n        /* \"#utility.yul\":11458:11546   */\n      mstore\n        /* \"#utility.yul\":11565:11569   */\n      0x11\n        /* \"#utility.yul\":11562:11563   */\n      0x04\n        /* \"#utility.yul\":11555:11570   */\n      mstore\n        /* \"#utility.yul\":11589:11593   */\n      0x24\n        /* \"#utility.yul\":11586:11587   */\n      0x00\n        /* \"#utility.yul\":11579:11594   */\n      revert\n        /* \"#utility.yul\":11606:11797   */\n    tag_46:\n        /* \"#utility.yul\":11646:11649   */\n      0x00\n        /* \"#utility.yul\":11665:11685   */\n      tag_223\n        /* \"#utility.yul\":11683:11684   */\n      dup3\n        /* \"#utility.yul\":11665:11685   */\n      tag_60\n      jump\t// in\n    tag_223:\n        /* \"#utility.yul\":11660:11685   */\n      swap2\n      pop\n        /* \"#utility.yul\":11699:11719   */\n      tag_224\n        /* \"#utility.yul\":11717:11718   */\n      dup4\n        /* \"#utility.yul\":11699:11719   */\n      tag_60\n      jump\t// in\n    tag_224:\n        /* \"#utility.yul\":11694:11719   */\n      swap3\n      pop\n        /* \"#utility.yul\":11742:11743   */\n      dup3\n        /* \"#utility.yul\":11739:11740   */\n      dup3\n        /* \"#utility.yul\":11735:11744   */\n      add\n        /* \"#utility.yul\":11728:11744   */\n      swap1\n      pop\n        /* \"#utility.yul\":11763:11766   */\n      dup1\n        /* \"#utility.yul\":11760:11761   */\n      dup3\n        /* \"#utility.yul\":11757:11767   */\n      gt\n        /* \"#utility.yul\":11754:11790   */\n      iszero\n      tag_225\n      jumpi\n        /* \"#utility.yul\":11770:11788   */\n      tag_226\n      tag_87\n      jump\t// in\n    tag_226:\n        /* \"#utility.yul\":11754:11790   */\n    tag_225:\n        /* \"#utility.yul\":11606:11797   */\n      swap3\n      swap2\n      pop\n      pop\n      jump\t// out\n\n    auxdata: 0xa2646970667358221220fd8a9d9f4722eefdf13f7299d5ac5c3729bedddab5fade37f650d153ca5a9c8864736f6c63430008160033\n}\n",
				"bytecode": {
					"linkReferences": {},
					"object": "60806040525f8055348015610012575f80fd5b503360015f6101000a81548173ffffffffffffffffffffffffffffffffffffffff021916908373ffffffffffffffffffffffffffffffffffffffff1602179055506109d4806100605f395ff3fe608060405234801561000f575f80fd5b506004361061004a575f3560e01c806322f5b58d1461004e578063267c68e01461006a5780638da5cb5b146100885780639e7a13ad146100a6575b5f80fd5b61006860048036038101906100639190610464565b6100d8565b005b6100726101a1565b60405161007f91906104f2565b60405180910390f35b6100906101a6565b60405161009d919061054a565b60405180910390f35b6100c060048036038101906100bb919061058d565b6101cb565b6040516100cf93929190610632565b60405180910390f35b60015f9054906101000a900473ffffffffffffffffffffffffffffffffffffffff1673ffffffffffffffffffffffffffffffffffffffff163373ffffffffffffffffffffffffffffffffffffffff1614610130575f80fd5b6101386102fd565b60405180606001604052805f5481526020018381526020018281525060025f805481526020019081526020015f205f820151815f01556020820151816001019081610183919061086f565b506040820151816002019081610199919061086f565b509050505050565b5f5481565b60015f9054906101000a900473ffffffffffffffffffffffffffffffffffffffff1681565b6002602052805f5260405f205f91509050805f0154908060010180546101f0906106a2565b80601f016020809104026020016040519081016040528092919081815260200182805461021c906106a2565b80156102675780601f1061023e57610100808354040283529160200191610267565b820191905f5260205f20905b81548152906001019060200180831161024a57829003601f168201915b50505050509080600201805461027c906106a2565b80601f01602080910402602001604051908101604052809291908181526020018280546102a8906106a2565b80156102f35780601f106102ca576101008083540402835291602001916102f3565b820191905f5260205f20905b8154815290600101906020018083116102d657829003601f168201915b5050505050905083565b60015f8082825461030e919061096b565b92505081905550565b5f604051905090565b5f80fd5b5f80fd5b5f80fd5b5f80fd5b5f601f19601f8301169050919050565b7f4e487b71000000000000000000000000000000000000000000000000000000005f52604160045260245ffd5b61037682610330565b810181811067ffffffffffffffff8211171561039557610394610340565b5b80604052505050565b5f6103a7610317565b90506103b3828261036d565b919050565b5f67ffffffffffffffff8211156103d2576103d1610340565b5b6103db82610330565b9050602081019050919050565b828183375f83830152505050565b5f610408610403846103b8565b61039e565b9050828152602081018484840111156104245761042361032c565b5b61042f8482856103e8565b509392505050565b5f82601f83011261044b5761044a610328565b5b813561045b8482602086016103f6565b91505092915050565b5f806040838503121561047a57610479610320565b5b5f83013567ffffffffffffffff81111561049757610496610324565b5b6104a385828601610437565b925050602083013567ffffffffffffffff8111156104c4576104c3610324565b5b6104d085828601610437565b9150509250929050565b5f819050919050565b6104ec816104da565b82525050565b5f6020820190506105055f8301846104e3565b92915050565b5f73ffffffffffffffffffffffffffffffffffffffff82169050919050565b5f6105348261050b565b9050919050565b6105448161052a565b82525050565b5f60208201905061055d5f83018461053b565b92915050565b61056c816104da565b8114610576575f80fd5b50565b5f8135905061058781610563565b92915050565b5f602082840312156105a2576105a1610320565b5b5f6105af84828501610579565b91505092915050565b5f81519050919050565b5f82825260208201905092915050565b5f5b838110156105ef5780820151818401526020810190506105d4565b5f8484015250505050565b5f610604826105b8565b61060e81856105c2565b935061061e8185602086016105d2565b61062781610330565b840191505092915050565b5f6060820190506106455f8301866104e3565b818103602083015261065781856105fa565b9050818103604083015261066b81846105fa565b9050949350505050565b7f4e487b71000000000000000000000000000000000000000000000000000000005f52602260045260245ffd5b5f60028204905060018216806106b957607f821691505b6020821081036106cc576106cb610675565b5b50919050565b5f819050815f5260205f209050919050565b5f6020601f8301049050919050565b5f82821b905092915050565b5f6008830261072e7fffffffffffffffffffffffffffffffffffffffffffffffffffffffffffffffff826106f3565b61073886836106f3565b95508019841693508086168417925050509392505050565b5f819050919050565b5f61077361076e610769846104da565b610750565b6104da565b9050919050565b5f819050919050565b61078c83610759565b6107a06107988261077a565b8484546106ff565b825550505050565b5f90565b6107b46107a8565b6107bf818484610783565b505050565b5b818110156107e2576107d75f826107ac565b6001810190506107c5565b5050565b601f821115610827576107f8816106d2565b610801846106e4565b81016020851015610810578190505b61082461081c856106e4565b8301826107c4565b50505b505050565b5f82821c905092915050565b5f6108475f198460080261082c565b1980831691505092915050565b5f61085f8383610838565b9150826002028217905092915050565b610878826105b8565b67ffffffffffffffff81111561089157610890610340565b5b61089b82546106a2565b6108a68282856107e6565b5f60209050601f8311600181146108d7575f84156108c5578287015190505b6108cf8582610854565b865550610936565b601f1984166108e5866106d2565b5f5b8281101561090c578489015182556001820191506020850194506020810190506108e7565b868310156109295784890151610925601f891682610838565b8355505b6001600288020188555050505b505050505050565b7f4e487b71000000000000000000000000000000000000000000000000000000005f52601160045260245ffd5b5f610975826104da565b9150610980836104da565b92508282019050808211156109985761099761093e565b5b9291505056fea2646970667358221220fd8a9d9f4722eefdf13f7299d5ac5c3729bedddab5fade37f650d153ca5a9c8864736f6c63430008160033",
					"opcodes": "PUSH1 0x80 PUSH1 0x40 MSTORE PUSH0 DUP1 SSTORE CALLVALUE DUP1 ISZERO PUSH2 0x12 JUMPI PUSH0 DUP1 REVERT JUMPDEST POP CALLER PUSH1 0x1 PUSH0 PUSH2 0x100 EXP DUP2 SLOAD DUP2 PUSH20 0xFFFFFFFFFFFFFFFFFFFFFFFFFFFFFFFFFFFFFFFF MUL NOT AND SWAP1 DUP4 PUSH20 0xFFFFFFFFFFFFFFFFFFFFFFFFFFFFFFFFFFFFFFFF AND MUL OR SWAP1 SSTORE POP PUSH2 0x9D4 DUP1 PUSH2 0x60 PUSH0 CODECOPY PUSH0 RETURN INVALID PUSH1 0x80 PUSH1 0x40 MSTORE CALLVALUE DUP1 ISZERO PUSH2 0xF JUMPI PUSH0 DUP1 REVERT JUMPDEST POP PUSH1 0x4 CALLDATASIZE LT PUSH2 0x4A JUMPI PUSH0 CALLDATALOAD PUSH1 0xE0 SHR DUP1 PUSH4 0x22F5B58D EQ PUSH2 0x4E JUMPI DUP1 PUSH4 0x267C68E0 EQ PUSH2 0x6A JUMPI DUP1 PUSH4 0x8DA5CB5B EQ PUSH2 0x88 JUMPI DUP1 PUSH4 0x9E7A13AD EQ PUSH2 0xA6 JUMPI JUMPDEST PUSH0 DUP1 REVERT JUMPDEST PUSH2 0x68 PUSH1 0x4 DUP1 CALLDATASIZE SUB DUP2 ADD SWAP1 PUSH2 0x63 SWAP2 SWAP1 PUSH2 0x464 JUMP JUMPDEST PUSH2 0xD8 JUMP JUMPDEST STOP JUMPDEST PUSH2 0x72 PUSH2 0x1A1 JUMP JUMPDEST PUSH1 0x40 MLOAD PUSH2 0x7F SWAP2 SWAP1 PUSH2 0x4F2 JUMP JUMPDEST PUSH1 0x40 MLOAD DUP1 SWAP2 SUB SWAP1 RETURN JUMPDEST PUSH2 0x90 PUSH2 0x1A6 JUMP JUMPDEST PUSH1 0x40 MLOAD PUSH2 0x9D SWAP2 SWAP1 PUSH2 0x54A JUMP JUMPDEST PUSH1 0x40 MLOAD DUP1 SWAP2 SUB SWAP1 RETURN JUMPDEST PUSH2 0xC0 PUSH1 0x4 DUP1 CALLDATASIZE SUB DUP2 ADD SWAP1 PUSH2 0xBB SWAP2 SWAP1 PUSH2 0x58D JUMP JUMPDEST PUSH2 0x1CB JUMP JUMPDEST PUSH1 0x40 MLOAD PUSH2 0xCF SWAP4 SWAP3 SWAP2 SWAP1 PUSH2 0x632 JUMP JUMPDEST PUSH1 0x40 MLOAD DUP1 SWAP2 SUB SWAP1 RETURN JUMPDEST PUSH1 0x1 PUSH0 SWAP1 SLOAD SWAP1 PUSH2 0x100 EXP SWAP1 DIV PUSH20 0xFFFFFFFFFFFFFFFFFFFFFFFFFFFFFFFFFFFFFFFF AND PUSH20 0xFFFFFFFFFFFFFFFFFFFFFFFFFFFFFFFFFFFFFFFF AND CALLER PUSH20 0xFFFFFFFFFFFFFFFFFFFFFFFFFFFFFFFFFFFFFFFF AND EQ PUSH2 0x130 JUMPI PUSH0 DUP1 REVERT JUMPDEST PUSH2 0x138 PUSH2 0x2FD JUMP JUMPDEST PUSH1 0x40 MLOAD DUP1 PUSH1 0x60 ADD PUSH1 0x40 MSTORE DUP1 PUSH0 SLOAD DUP2 MSTORE PUSH1 0x20 ADD DUP4 DUP2 MSTORE PUSH1 0x20 ADD DUP3 DUP2 MSTORE POP PUSH1 0x2 PUSH0 DUP1 SLOAD DUP2 MSTORE PUSH1 0x20 ADD SWAP1 DUP2 MSTORE PUSH1 0x20 ADD PUSH0 KECCAK256 PUSH0 DUP3 ADD MLOAD DUP2 PUSH0 ADD SSTORE PUSH1 0x20 DUP3 ADD MLOAD DUP2 PUSH1 0x1 ADD SWAP1 DUP2 PUSH2 0x183 SWAP2 SWAP1 PUSH2 0x86F JUMP JUMPDEST POP PUSH1 0x40 DUP3 ADD MLOAD DUP2 PUSH1 0x2 ADD SWAP1 DUP2 PUSH2 0x199 SWAP2 SWAP1 PUSH2 0x86F JUMP JUMPDEST POP SWAP1 POP POP POP POP JUMP JUMPDEST PUSH0 SLOAD DUP2 JUMP JUMPDEST PUSH1 0x1 PUSH0 SWAP1 SLOAD SWAP1 PUSH2 0x100 EXP SWAP1 DIV PUSH20 0xFFFFFFFFFFFFFFFFFFFFFFFFFFFFFFFFFFFFFFFF AND DUP2 JUMP JUMPDEST PUSH1 0x2 PUSH1 0x20 MSTORE DUP1 PUSH0 MSTORE PUSH1 0x40 PUSH0 KECCAK256 PUSH0 SWAP2 POP SWAP1 POP DUP1 PUSH0 ADD SLOAD SWAP1 DUP1 PUSH1 0x1 ADD DUP1 SLOAD PUSH2 0x1F0 SWAP1 PUSH2 0x6A2 JUMP JUMPDEST DUP1 PUSH1 0x1F ADD PUSH1 0x20 DUP1 SWAP2 DIV MUL PUSH1 0x20 ADD PUSH1 0x40 MLOAD SWAP1 DUP2 ADD PUSH1 0x40 MSTORE DUP1 SWAP3 SWAP2 SWAP1 DUP2 DUP2 MSTORE PUSH1 0x20 ADD DUP3 DUP1 SLOAD PUSH2 0x21C SWAP1 PUSH2 0x6A2 JUMP JUMPDEST DUP1 ISZERO PUSH2 0x267 JUMPI DUP1 PUSH1 0x1F LT PUSH2 0x23E JUMPI PUSH2 0x100 DUP1 DUP4 SLOAD DIV MUL DUP4 MSTORE SWAP2 PUSH1 0x20 ADD SWAP2 PUSH2 0x267 JUMP JUMPDEST DUP3 ADD SWAP2 SWAP1 PUSH0 MSTORE PUSH1 0x20 PUSH0 KECCAK256 SWAP1 JUMPDEST DUP2 SLOAD DUP2 MSTORE SWAP1 PUSH1 0x1 ADD SWAP1 PUSH1 0x20 ADD DUP1 DUP4 GT PUSH2 0x24A JUMPI DUP3 SWAP1 SUB PUSH1 0x1F AND DUP3 ADD SWAP2 JUMPDEST POP POP POP POP POP SWAP1 DUP1 PUSH1 0x2 ADD DUP1 SLOAD PUSH2 0x27C SWAP1 PUSH2 0x6A2 JUMP JUMPDEST DUP1 PUSH1 0x1F ADD PUSH1 0x20 DUP1 SWAP2 DIV MUL PUSH1 0x20 ADD PUSH1 0x40 MLOAD SWAP1 DUP2 ADD PUSH1 0x40 MSTORE DUP1 SWAP3 SWAP2 SWAP1 DUP2 DUP2 MSTORE PUSH1 0x20 ADD DUP3 DUP1 SLOAD PUSH2 0x2A8 SWAP1 PUSH2 0x6A2 JUMP JUMPDEST DUP1 ISZERO PUSH2 0x2F3 JUMPI DUP1 PUSH1 0x1F LT PUSH2 0x2CA JUMPI PUSH2 0x100 DUP1 DUP4 SLOAD DIV MUL DUP4 MSTORE SWAP2 PUSH1 0x20 ADD SWAP2 PUSH2 0x2F3 JUMP JUMPDEST DUP3 ADD SWAP2 SWAP1 PUSH0 MSTORE PUSH1 0x20 PUSH0 KECCAK256 SWAP1 JUMPDEST DUP2 SLOAD DUP2 MSTORE SWAP1 PUSH1 0x1 ADD SWAP1 PUSH1 0x20 ADD DUP1 DUP4 GT PUSH2 0x2D6 JUMPI DUP3 SWAP1 SUB PUSH1 0x1F AND DUP3 ADD SWAP2 JUMPDEST POP POP POP POP POP SWAP1 POP DUP4 JUMP JUMPDEST PUSH1 0x1 PUSH0 DUP1 DUP3 DUP3 SLOAD PUSH2 0x30E SWAP2 SWAP1 PUSH2 0x96B JUMP JUMPDEST SWAP3 POP POP DUP2 SWAP1 SSTORE POP JUMP JUMPDEST PUSH0 PUSH1 0x40 MLOAD SWAP1 POP SWAP1 JUMP JUMPDEST PUSH0 DUP1 REVERT JUMPDEST PUSH0 DUP1 REVERT JUMPDEST PUSH0 DUP1 REVERT JUMPDEST PUSH0 DUP1 REVERT JUMPDEST PUSH0 PUSH1 0x1F NOT PUSH1 0x1F DUP4 ADD AND SWAP1 POP SWAP2 SWAP1 POP JUMP JUMPDEST PUSH32 0x4E487B7100000000000000000000000000000000000000000000000000000000 PUSH0 MSTORE PUSH1 0x41 PUSH1 0x4 MSTORE PUSH1 0x24 PUSH0 REVERT JUMPDEST PUSH2 0x376 DUP3 PUSH2 0x330 JUMP JUMPDEST DUP2 ADD DUP2 DUP2 LT PUSH8 0xFFFFFFFFFFFFFFFF DUP3 GT OR ISZERO PUSH2 0x395 JUMPI PUSH2 0x394 PUSH2 0x340 JUMP JUMPDEST JUMPDEST DUP1 PUSH1 0x40 MSTORE POP POP POP JUMP JUMPDEST PUSH0 PUSH2 0x3A7 PUSH2 0x317 JUMP JUMPDEST SWAP1 POP PUSH2 0x3B3 DUP3 DUP3 PUSH2 0x36D JUMP JUMPDEST SWAP2 SWAP1 POP JUMP JUMPDEST PUSH0 PUSH8 0xFFFFFFFFFFFFFFFF DUP3 GT ISZERO PUSH2 0x3D2 JUMPI PUSH2 0x3D1 PUSH2 0x340 JUMP JUMPDEST JUMPDEST PUSH2 0x3DB DUP3 PUSH2 0x330 JUMP JUMPDEST SWAP1 POP PUSH1 0x20 DUP2 ADD SWAP1 POP SWAP2 SWAP1 POP JUMP JUMPDEST DUP3 DUP2 DUP4 CALLDATACOPY PUSH0 DUP4 DUP4 ADD MSTORE POP POP POP JUMP JUMPDEST PUSH0 PUSH2 0x408 PUSH2 0x403 DUP5 PUSH2 0x3B8 JUMP JUMPDEST PUSH2 0x39E JUMP JUMPDEST SWAP1 POP DUP3 DUP2 MSTORE PUSH1 0x20 DUP2 ADD DUP5 DUP5 DUP5 ADD GT ISZERO PUSH2 0x424 JUMPI PUSH2 0x423 PUSH2 0x32C JUMP JUMPDEST JUMPDEST PUSH2 0x42F DUP5 DUP3 DUP6 PUSH2 0x3E8 JUMP JUMPDEST POP SWAP4 SWAP3 POP POP POP JUMP JUMPDEST PUSH0 DUP3 PUSH1 0x1F DUP4 ADD SLT PUSH2 0x44B JUMPI PUSH2 0x44A PUSH2 0x328 JUMP JUMPDEST JUMPDEST DUP2 CALLDATALOAD PUSH2 0x45B DUP5 DUP3 PUSH1 0x20 DUP7 ADD PUSH2 0x3F6 JUMP JUMPDEST SWAP2 POP POP SWAP3 SWAP2 POP POP JUMP JUMPDEST PUSH0 DUP1 PUSH1 0x40 DUP4 DUP6 SUB SLT ISZERO PUSH2 0x47A JUMPI PUSH2 0x479 PUSH2 0x320 JUMP JUMPDEST JUMPDEST PUSH0 DUP4 ADD CALLDATALOAD PUSH8 0xFFFFFFFFFFFFFFFF DUP2 GT ISZERO PUSH2 0x497 JUMPI PUSH2 0x496 PUSH2 0x324 JUMP JUMPDEST JUMPDEST PUSH2 0x4A3 DUP6 DUP3 DUP7 ADD PUSH2 0x437 JUMP JUMPDEST SWAP3 POP POP PUSH1 0x20 DUP4 ADD CALLDATALOAD PUSH8 0xFFFFFFFFFFFFFFFF DUP2 GT ISZERO PUSH2 0x4C4 JUMPI PUSH2 0x4C3 PUSH2 0x324 JUMP JUMPDEST JUMPDEST PUSH2 0x4D0 DUP6 DUP3 DUP7 ADD PUSH2 0x437 JUMP JUMPDEST SWAP2 POP POP SWAP3 POP SWAP3 SWAP1 POP JUMP JUMPDEST PUSH0 DUP2 SWAP1 POP SWAP2 SWAP1 POP JUMP JUMPDEST PUSH2 0x4EC DUP2 PUSH2 0x4DA JUMP JUMPDEST DUP3 MSTORE POP POP JUMP JUMPDEST PUSH0 PUSH1 0x20 DUP3 ADD SWAP1 POP PUSH2 0x505 PUSH0 DUP4 ADD DUP5 PUSH2 0x4E3 JUMP JUMPDEST SWAP3 SWAP2 POP POP JUMP JUMPDEST PUSH0 PUSH20 0xFFFFFFFFFFFFFFFFFFFFFFFFFFFFFFFFFFFFFFFF DUP3 AND SWAP1 POP SWAP2 SWAP1 POP JUMP JUMPDEST PUSH0 PUSH2 0x534 DUP3 PUSH2 0x50B JUMP JUMPDEST SWAP1 POP SWAP2 SWAP1 POP JUMP JUMPDEST PUSH2 0x544 DUP2 PUSH2 0x52A JUMP JUMPDEST DUP3 MSTORE POP POP JUMP JUMPDEST PUSH0 PUSH1 0x20 DUP3 ADD SWAP1 POP PUSH2 0x55D PUSH0 DUP4 ADD DUP5 PUSH2 0x53B JUMP JUMPDEST SWAP3 SWAP2 POP POP JUMP JUMPDEST PUSH2 0x56C DUP2 PUSH2 0x4DA JUMP JUMPDEST DUP2 EQ PUSH2 0x576 JUMPI PUSH0 DUP1 REVERT JUMPDEST POP JUMP JUMPDEST PUSH0 DUP2 CALLDATALOAD SWAP1 POP PUSH2 0x587 DUP2 PUSH2 0x563 JUMP JUMPDEST SWAP3 SWAP2 POP POP JUMP JUMPDEST PUSH0 PUSH1 0x20 DUP3 DUP5 SUB SLT ISZERO PUSH2 0x5A2 JUMPI PUSH2 0x5A1 PUSH2 0x320 JUMP JUMPDEST JUMPDEST PUSH0 PUSH2 0x5AF DUP5 DUP3 DUP6 ADD PUSH2 0x579 JUMP JUMPDEST SWAP2 POP POP SWAP3 SWAP2 POP POP JUMP JUMPDEST PUSH0 DUP2 MLOAD SWAP1 POP SWAP2 SWAP1 POP JUMP JUMPDEST PUSH0 DUP3 DUP3 MSTORE PUSH1 0x20 DUP3 ADD SWAP1 POP SWAP3 SWAP2 POP POP JUMP JUMPDEST PUSH0 JUMPDEST DUP4 DUP2 LT ISZERO PUSH2 0x5EF JUMPI DUP1 DUP3 ADD MLOAD DUP2 DUP5 ADD MSTORE PUSH1 0x20 DUP2 ADD SWAP1 POP PUSH2 0x5D4 JUMP JUMPDEST PUSH0 DUP5 DUP5 ADD MSTORE POP POP POP POP JUMP JUMPDEST PUSH0 PUSH2 0x604 DUP3 PUSH2 0x5B8 JUMP JUMPDEST PUSH2 0x60E DUP2 DUP6 PUSH2 0x5C2 JUMP JUMPDEST SWAP4 POP PUSH2 0x61E DUP2 DUP6 PUSH1 0x20 DUP7 ADD PUSH2 0x5D2 JUMP JUMPDEST PUSH2 0x627 DUP2 PUSH2 0x330 JUMP JUMPDEST DUP5 ADD SWAP2 POP POP SWAP3 SWAP2 POP POP JUMP JUMPDEST PUSH0 PUSH1 0x60 DUP3 ADD SWAP1 POP PUSH2 0x645 PUSH0 DUP4 ADD DUP7 PUSH2 0x4E3 JUMP JUMPDEST DUP2 DUP2 SUB PUSH1 0x20 DUP4 ADD MSTORE PUSH2 0x657 DUP2 DUP6 PUSH2 0x5FA JUMP JUMPDEST SWAP1 POP DUP2 DUP2 SUB PUSH1 0x40 DUP4 ADD MSTORE PUSH2 0x66B DUP2 DUP5 PUSH2 0x5FA JUMP JUMPDEST SWAP1 POP SWAP5 SWAP4 POP POP POP POP JUMP JUMPDEST PUSH32 0x4E487B7100000000000000000000000000000000000000000000000000000000 PUSH0 MSTORE PUSH1 0x22 PUSH1 0x4 MSTORE PUSH1 0x24 PUSH0 REVERT JUMPDEST PUSH0 PUSH1 0x2 DUP3 DIV SWAP1 POP PUSH1 0x1 DUP3 AND DUP1 PUSH2 0x6B9 JUMPI PUSH1 0x7F DUP3 AND SWAP2 POP JUMPDEST PUSH1 0x20 DUP3 LT DUP2 SUB PUSH2 0x6CC JUMPI PUSH2 0x6CB PUSH2 0x675 JUMP JUMPDEST JUMPDEST POP SWAP2 SWAP1 POP JUMP JUMPDEST PUSH0 DUP2 SWAP1 POP DUP2 PUSH0 MSTORE PUSH1 0x20 PUSH0 KECCAK256 SWAP1 POP SWAP2 SWAP1 POP JUMP JUMPDEST PUSH0 PUSH1 0x20 PUSH1 0x1F DUP4 ADD DIV SWAP1 POP SWAP2 SWAP1 POP JUMP JUMPDEST PUSH0 DUP3 DUP3 SHL SWAP1 POP SWAP3 SWAP2 POP POP JUMP JUMPDEST PUSH0 PUSH1 0x8 DUP4 MUL PUSH2 0x72E PUSH32 0xFFFFFFFFFFFFFFFFFFFFFFFFFFFFFFFFFFFFFFFFFFFFFFFFFFFFFFFFFFFFFFFF DUP3 PUSH2 0x6F3 JUMP JUMPDEST PUSH2 0x738 DUP7 DUP4 PUSH2 0x6F3 JUMP JUMPDEST SWAP6 POP DUP1 NOT DUP5 AND SWAP4 POP DUP1 DUP7 AND DUP5 OR SWAP3 POP POP POP SWAP4 SWAP3 POP POP POP JUMP JUMPDEST PUSH0 DUP2 SWAP1 POP SWAP2 SWAP1 POP JUMP JUMPDEST PUSH0 PUSH2 0x773 PUSH2 0x76E PUSH2 0x769 DUP5 PUSH2 0x4DA JUMP JUMPDEST PUSH2 0x750 JUMP JUMPDEST PUSH2 0x4DA JUMP JUMPDEST SWAP1 POP SWAP2 SWAP1 POP JUMP JUMPDEST PUSH0 DUP2 SWAP1 POP SWAP2 SWAP1 POP JUMP JUMPDEST PUSH2 0x78C DUP4 PUSH2 0x759 JUMP JUMPDEST PUSH2 0x7A0 PUSH2 0x798 DUP3 PUSH2 0x77A JUMP JUMPDEST DUP5 DUP5 SLOAD PUSH2 0x6FF JUMP JUMPDEST DUP3 SSTORE POP POP POP POP JUMP JUMPDEST PUSH0 SWAP1 JUMP JUMPDEST PUSH2 0x7B4 PUSH2 0x7A8 JUMP JUMPDEST PUSH2 0x7BF DUP2 DUP5 DUP5 PUSH2 0x783 JUMP JUMPDEST POP POP POP JUMP JUMPDEST JUMPDEST DUP2 DUP2 LT ISZERO PUSH2 0x7E2 JUMPI PUSH2 0x7D7 PUSH0 DUP3 PUSH2 0x7AC JUMP JUMPDEST PUSH1 0x1 DUP2 ADD SWAP1 POP PUSH2 0x7C5 JUMP JUMPDEST POP POP JUMP JUMPDEST PUSH1 0x1F DUP3 GT ISZERO PUSH2 0x827 JUMPI PUSH2 0x7F8 DUP2 PUSH2 0x6D2 JUMP JUMPDEST PUSH2 0x801 DUP5 PUSH2 0x6E4 JUMP JUMPDEST DUP2 ADD PUSH1 0x20 DUP6 LT ISZERO PUSH2 0x810 JUMPI DUP2 SWAP1 POP JUMPDEST PUSH2 0x824 PUSH2 0x81C DUP6 PUSH2 0x6E4 JUMP JUMPDEST DUP4 ADD DUP3 PUSH2 0x7C4 JUMP JUMPDEST POP POP JUMPDEST POP POP POP JUMP JUMPDEST PUSH0 DUP3 DUP3 SHR SWAP1 POP SWAP3 SWAP2 POP POP JUMP JUMPDEST PUSH0 PUSH2 0x847 PUSH0 NOT DUP5 PUSH1 0x8 MUL PUSH2 0x82C JUMP JUMPDEST NOT DUP1 DUP4 AND SWAP2 POP POP SWAP3 SWAP2 POP POP JUMP JUMPDEST PUSH0 PUSH2 0x85F DUP4 DUP4 PUSH2 0x838 JUMP JUMPDEST SWAP2 POP DUP3 PUSH1 0x2 MUL DUP3 OR SWAP1 POP SWAP3 SWAP2 POP POP JUMP JUMPDEST PUSH2 0x878 DUP3 PUSH2 0x5B8 JUMP JUMPDEST PUSH8 0xFFFFFFFFFFFFFFFF DUP2 GT ISZERO PUSH2 0x891 JUMPI PUSH2 0x890 PUSH2 0x340 JUMP JUMPDEST JUMPDEST PUSH2 0x89B DUP3 SLOAD PUSH2 0x6A2 JUMP JUMPDEST PUSH2 0x8A6 DUP3 DUP3 DUP6 PUSH2 0x7E6 JUMP JUMPDEST PUSH0 PUSH1 0x20 SWAP1 POP PUSH1 0x1F DUP4 GT PUSH1 0x1 DUP2 EQ PUSH2 0x8D7 JUMPI PUSH0 DUP5 ISZERO PUSH2 0x8C5 JUMPI DUP3 DUP8 ADD MLOAD SWAP1 POP JUMPDEST PUSH2 0x8CF DUP6 DUP3 PUSH2 0x854 JUMP JUMPDEST DUP7 SSTORE POP PUSH2 0x936 JUMP JUMPDEST PUSH1 0x1F NOT DUP5 AND PUSH2 0x8E5 DUP7 PUSH2 0x6D2 JUMP JUMPDEST PUSH0 JUMPDEST DUP3 DUP2 LT ISZERO PUSH2 0x90C JUMPI DUP5 DUP10 ADD MLOAD DUP3 SSTORE PUSH1 0x1 DUP3 ADD SWAP2 POP PUSH1 0x20 DUP6 ADD SWAP5 POP PUSH1 0x20 DUP2 ADD SWAP1 POP PUSH2 0x8E7 JUMP JUMPDEST DUP7 DUP4 LT ISZERO PUSH2 0x929 JUMPI DUP5 DUP10 ADD MLOAD PUSH2 0x925 PUSH1 0x1F DUP10 AND DUP3 PUSH2 0x838 JUMP JUMPDEST DUP4 SSTORE POP JUMPDEST PUSH1 0x1 PUSH1 0x2 DUP9 MUL ADD DUP9 SSTORE POP POP POP JUMPDEST POP POP POP POP POP POP JUMP JUMPDEST PUSH32 0x4E487B7100000000000000000000000000000000000000000000000000000000 PUSH0 MSTORE PUSH1 0x11 PUSH1 0x4 MSTORE PUSH1 0x24 PUSH0 REVERT JUMPDEST PUSH0 PUSH2 0x975 DUP3 PUSH2 0x4DA JUMP JUMPDEST SWAP2 POP PUSH2 0x980 DUP4 PUSH2 0x4DA JUMP JUMPDEST SWAP3 POP DUP3 DUP3 ADD SWAP1 POP DUP1 DUP3 GT ISZERO PUSH2 0x998 JUMPI PUSH2 0x997 PUSH2 0x93E JUMP JUMPDEST JUMPDEST SWAP3 SWAP2 POP POP JUMP INVALID LOG2 PUSH5 0x6970667358 0x22 SLT KECCAK256 REVERT DUP11 SWAP14 SWAP16 SELFBALANCE 0x22 0xEE REVERT CALL EXTCODEHASH PUSH19 0x99D5AC5C3729BEDDDAB5FADE37F650D153CA5A SWAP13 DUP9 PUSH5 0x736F6C6343 STOP ADDMOD AND STOP CALLER "
				},
				"gasEstimates": {
					"creation": {
						"codeDepositCost": "503200",
						"executionCost": "29805",
						"totalCost": "533005"
					},
					"external": {
						"addPerson(string,string)": "infinite",
						"owner()": "2530",
						"people(uint256)": "infinite",
						"peopleCount()": "2424"
					},
					"internal": {
						"incrementCount()": "infinite"
					}
				},
				"methodIdentifiers": {
					"addPerson(string,string)": "22f5b58d",
					"owner()": "8da5cb5b",
					"people(uint256)": "9e7a13ad",
					"peopleCount()": "267c68e0"
				}
			},
			"storageLayout": {
				"storage": [
					{
						"astId": 4,
						"contract": "Practical7/prac7_10structDemo3.sol:MyContract",
						"label": "peopleCount",
						"offset": 0,
						"slot": "0",
						"type": "t_uint256"
					},
					{
						"astId": 6,
						"contract": "Practical7/prac7_10structDemo3.sol:MyContract",
						"label": "owner",
						"offset": 0,
						"slot": "1",
						"type": "t_address"
					},
					{
						"astId": 22,
						"contract": "Practical7/prac7_10structDemo3.sol:MyContract",
						"label": "people",
						"offset": 0,
						"slot": "2",
						"type": "t_mapping(t_uint256,t_struct(Person)38_storage)"
					}
				],
				"types": {
					"t_address": {
						"encoding": "inplace",
						"label": "address",
						"numberOfBytes": "20"
					},
					"t_mapping(t_uint256,t_struct(Person)38_storage)": {
						"encoding": "mapping",
						"key": "t_uint256",
						"label": "mapping(uint256 => struct MyContract.Person)",
						"numberOfBytes": "32",
						"value": "t_struct(Person)38_storage"
					},
					"t_string_storage": {
						"encoding": "bytes",
						"label": "string",
						"numberOfBytes": "32"
					},
					"t_struct(Person)38_storage": {
						"encoding": "inplace",
						"label": "struct MyContract.Person",
						"members": [
							{
								"astId": 33,
								"contract": "Practical7/prac7_10structDemo3.sol:MyContract",
								"label": "_id",
								"offset": 0,
								"slot": "0",
								"type": "t_uint256"
							},
							{
								"astId": 35,
								"contract": "Practical7/prac7_10structDemo3.sol:MyContract",
								"label": "_firstName",
								"offset": 0,
								"slot": "1",
								"type": "t_string_storage"
							},
							{
								"astId": 37,
								"contract": "Practical7/prac7_10structDemo3.sol:MyContract",
								"label": "_lastName",
								"offset": 0,
								"slot": "2",
								"type": "t_string_storage"
							}
						],
						"numberOfBytes": "96"
					},
					"t_uint256": {
						"encoding": "inplace",
						"label": "uint256",
						"numberOfBytes": "32"
					}
				}
			},
			"userdoc": {
				"kind": "user",
				"methods": {},
				"version": 1
			}
		}
	}
}